{
  "address": "0xdd2d19B816cc83fF841129D144A6a89A4b1fB349",
  "abi": [
    {
      "anonymous": false,
      "inputs": [
        {
          "indexed": false,
          "internalType": "uint256",
          "name": "oldA",
          "type": "uint256"
        },
        {
          "indexed": false,
          "internalType": "uint256",
          "name": "newA",
          "type": "uint256"
        },
        {
          "indexed": false,
          "internalType": "uint256",
          "name": "initialTime",
          "type": "uint256"
        },
        {
          "indexed": false,
          "internalType": "uint256",
          "name": "futureTime",
          "type": "uint256"
        }
      ],
      "name": "RampA",
      "type": "event"
    },
    {
      "anonymous": false,
      "inputs": [
        {
          "indexed": false,
          "internalType": "uint256",
          "name": "currentA",
          "type": "uint256"
        },
        {
          "indexed": false,
          "internalType": "uint256",
          "name": "time",
          "type": "uint256"
        }
      ],
      "name": "StopRampA",
      "type": "event"
    },
    {
      "inputs": [],
      "name": "A_PRECISION",
      "outputs": [
        {
          "internalType": "uint256",
          "name": "",
          "type": "uint256"
        }
      ],
      "stateMutability": "view",
      "type": "function"
    },
    {
      "inputs": [],
      "name": "MAX_A",
      "outputs": [
        {
          "internalType": "uint256",
          "name": "",
          "type": "uint256"
        }
      ],
      "stateMutability": "view",
      "type": "function"
    }
  ],
  "transactionHash": "0xdd2157161678e9297f373e67cd51dc256c42d592980fa86c3b35b8d9fd02f5e7",
  "args": [],
  "solcInputHash": "492b8174343aef947d9cd2113004784d",
  "bytecode": "0x6105de61003a600b82828239805160001a60731461002d57634e487b7160e01b600052600060045260246000fd5b30600052607381538281f3fe730000000000000000000000000000000000000000301460806040526004361061006c5760003560e01c8063396984151461007157806358fdd79b1461008d578063b0a14cfc146100af578063c9b64dcb146100c2578063d011f918146100d5578063f14e211e146100dd575b600080fd5b61007b620f424081565b60405190815260200160405180910390f35b81801561009957600080fd5b506100ad6100a83660046104f6565b6100fd565b005b61007b6100bd3660046104dd565b61034a565b61007b6100d03660046104dd565b610367565b61007b606481565b8180156100e957600080fd5b506100ad6100f83660046104dd565b610372565b600283015461010f9062015180610522565b4210156101635760405162461bcd60e51b815260206004820152601f60248201527f57616974203120646179206265666f7265207374617274696e672072616d700060448201526064015b60405180910390fd5b6101706212750042610522565b8110156101b85760405162461bcd60e51b8152602060048201526016602482015275496e73756666696369656e742072616d702074696d6560501b604482015260640161015a565b6000821180156101ca5750620f424082105b6102165760405162461bcd60e51b815260206004820181905260248201527f667574757265415f206d757374206265203e203020616e64203c204d41585f41604482015260640161015a565b60006102218461042f565b9050600061023060648561055c565b905081811015610291578161024660028361055c565b101561028c5760405162461bcd60e51b8152602060048201526015602482015274199d5d1d5c995057c81a5cc81d1bdbc81cdb585b1b605a1b604482015260640161015a565b6102e3565b61029c60028361055c565b8111156102e35760405162461bcd60e51b8152602060048201526015602482015274667574757265415f20697320746f6f206c6172676560581b604482015260640161015a565b8185556001850181905542600286018190556003860184905560408051848152602081018490528082019290925260608201859052517fa2b71ec6df949300b59aab36b55e189697b750119dd349fcfa8c0f779e83c2549181900360800190a15050505050565b600060646103578361042f565b610361919061053a565b92915050565b60006103618261042f565b428160030154116103c55760405162461bcd60e51b815260206004820152601760248201527f52616d7020697320616c72656164792073746f70706564000000000000000000604482015260640161015a565b60006103d08261042f565b808355600183018190554260028401819055600384018190556040519192507f46e22fb3709ad289f62ce63d469248536dbc78d82b84a3d7e74ad606dc2019389161042391848252602082015260400190565b60405180910390a15050565b6003810154600182015460009190428211156104d657600284015484548083111561049a5761045e828561057b565b610468834261057b565b610472838661057b565b61047c919061055c565b610486919061053a565b6104909082610522565b9695505050505050565b6104a4828561057b565b6104ae834261057b565b6104b8858461057b565b6104c2919061055c565b6104cc919061053a565b610490908261057b565b9392505050565b6000602082840312156104ef57600080fd5b5035919050565b60008060006060848603121561050b57600080fd5b505081359360208301359350604090920135919050565b6000821982111561053557610535610592565b500190565b60008261055757634e487b7160e01b600052601260045260246000fd5b500490565b600081600019048311821515161561057657610576610592565b500290565b60008282101561058d5761058d610592565b500390565b634e487b7160e01b600052601160045260246000fdfea2646970667358221220b745e24de785ef0da5db0011c817203f8c4082c5620ef9ac949cf015d6dcda5a64736f6c63430008070033",
  "devdoc": {
    "kind": "dev",
    "methods": {
      "getA(SwapUtils.Swap storage)": {
        "details": "See the StableSwap paper for details",
        "params": {
          "self": "Swap struct to read from"
        },
        "returns": {
          "_0": "A parameter"
        }
      },
      "getAPrecise(SwapUtils.Swap storage)": {
        "details": "See the StableSwap paper for details",
        "params": {
          "self": "Swap struct to read from"
        },
        "returns": {
          "_0": "A parameter in its raw precision form"
        }
      },
      "rampA(SwapUtils.Swap storage,uint256,uint256)": {
        "params": {
          "futureA_": "the new A to ramp towards",
          "futureTime_": "timestamp when the new A should be reached",
          "self": "Swap struct to update"
        }
      },
      "stopRampA(SwapUtils.Swap storage)": {
        "params": {
          "self": "Swap struct to update"
        }
      }
    },
    "title": "AmplificationUtils library",
    "version": 1
  },
  "userdoc": {
    "kind": "user",
    "methods": {
      "getA(SwapUtils.Swap storage)": {
        "notice": "Return A, the amplification coefficient * n * (n - 1)"
      },
      "getAPrecise(SwapUtils.Swap storage)": {
        "notice": "Return A in its raw precision"
      },
      "rampA(SwapUtils.Swap storage,uint256,uint256)": {
        "notice": "Start ramping up or down A parameter towards given futureA_ and futureTime_ Checks if the change is too rapid, and commits the new A value only when it falls under the limit range."
      },
      "stopRampA(SwapUtils.Swap storage)": {
        "notice": "Stops ramping A immediately. Once this function is called, rampA() cannot be called for another 24 hours"
      }
    },
    "notice": "A library to calculate and ramp the A parameter of a given `SwapUtils.Swap` struct. This library assumes the struct is fully validated.",
    "version": 1
  },
  "storageLayout": {
    "storage": [],
    "types": null
  }
}