{
  "address": "0xa1DBBb8a3c797295c9315720f41dF72b16f41fBa",
  "abi": [
    {
      "inputs": [
        {
          "internalType": "string",
          "name": "uri",
          "type": "string"
        }
      ],
      "stateMutability": "nonpayable",
      "type": "constructor"
    },
    {
      "anonymous": false,
      "inputs": [
        {
          "indexed": true,
          "internalType": "address",
          "name": "account",
          "type": "address"
        },
        {
          "indexed": true,
          "internalType": "address",
          "name": "operator",
          "type": "address"
        },
        {
          "indexed": false,
          "internalType": "bool",
          "name": "approved",
          "type": "bool"
        }
      ],
      "name": "ApprovalForAll",
      "type": "event"
    },
    {
      "anonymous": false,
      "inputs": [
        {
          "indexed": true,
          "internalType": "address",
          "name": "newInterface",
          "type": "address"
        },
        {
          "indexed": false,
          "internalType": "uint256",
          "name": "ID",
          "type": "uint256"
        }
      ],
      "name": "InterfaceChanged",
      "type": "event"
    },
    {
      "anonymous": false,
      "inputs": [
        {
          "indexed": false,
          "internalType": "address",
          "name": "account",
          "type": "address"
        }
      ],
      "name": "Paused",
      "type": "event"
    },
    {
      "anonymous": false,
      "inputs": [
        {
          "indexed": true,
          "internalType": "bytes32",
          "name": "role",
          "type": "bytes32"
        },
        {
          "indexed": true,
          "internalType": "bytes32",
          "name": "previousAdminRole",
          "type": "bytes32"
        },
        {
          "indexed": true,
          "internalType": "bytes32",
          "name": "newAdminRole",
          "type": "bytes32"
        }
      ],
      "name": "RoleAdminChanged",
      "type": "event"
    },
    {
      "anonymous": false,
      "inputs": [
        {
          "indexed": true,
          "internalType": "bytes32",
          "name": "role",
          "type": "bytes32"
        },
        {
          "indexed": true,
          "internalType": "address",
          "name": "account",
          "type": "address"
        },
        {
          "indexed": true,
          "internalType": "address",
          "name": "sender",
          "type": "address"
        }
      ],
      "name": "RoleGranted",
      "type": "event"
    },
    {
      "anonymous": false,
      "inputs": [
        {
          "indexed": true,
          "internalType": "bytes32",
          "name": "role",
          "type": "bytes32"
        },
        {
          "indexed": true,
          "internalType": "address",
          "name": "account",
          "type": "address"
        },
        {
          "indexed": true,
          "internalType": "address",
          "name": "sender",
          "type": "address"
        }
      ],
      "name": "RoleRevoked",
      "type": "event"
    },
    {
      "anonymous": false,
      "inputs": [
        {
          "indexed": true,
          "internalType": "address",
          "name": "operator",
          "type": "address"
        },
        {
          "indexed": true,
          "internalType": "address",
          "name": "from",
          "type": "address"
        },
        {
          "indexed": true,
          "internalType": "address",
          "name": "to",
          "type": "address"
        },
        {
          "indexed": false,
          "internalType": "uint256[]",
          "name": "ids",
          "type": "uint256[]"
        },
        {
          "indexed": false,
          "internalType": "uint256[]",
          "name": "values",
          "type": "uint256[]"
        }
      ],
      "name": "TransferBatch",
      "type": "event"
    },
    {
      "anonymous": false,
      "inputs": [
        {
          "indexed": true,
          "internalType": "address",
          "name": "operator",
          "type": "address"
        },
        {
          "indexed": true,
          "internalType": "address",
          "name": "from",
          "type": "address"
        },
        {
          "indexed": true,
          "internalType": "address",
          "name": "to",
          "type": "address"
        },
        {
          "indexed": false,
          "internalType": "uint256",
          "name": "id",
          "type": "uint256"
        },
        {
          "indexed": false,
          "internalType": "uint256",
          "name": "value",
          "type": "uint256"
        }
      ],
      "name": "TransferSingle",
      "type": "event"
    },
    {
      "anonymous": false,
      "inputs": [
        {
          "indexed": false,
          "internalType": "string",
          "name": "value",
          "type": "string"
        },
        {
          "indexed": true,
          "internalType": "uint256",
          "name": "id",
          "type": "uint256"
        }
      ],
      "name": "URI",
      "type": "event"
    },
    {
      "anonymous": false,
      "inputs": [
        {
          "indexed": false,
          "internalType": "address",
          "name": "account",
          "type": "address"
        }
      ],
      "name": "Unpaused",
      "type": "event"
    },
    {
      "inputs": [],
      "name": "DEFAULT_ADMIN_ROLE",
      "outputs": [
        {
          "internalType": "bytes32",
          "name": "",
          "type": "bytes32"
        }
      ],
      "stateMutability": "view",
      "type": "function"
    },
    {
      "inputs": [],
      "name": "MINTER_ROLE",
      "outputs": [
        {
          "internalType": "bytes32",
          "name": "",
          "type": "bytes32"
        }
      ],
      "stateMutability": "view",
      "type": "function"
    },
    {
      "inputs": [],
      "name": "ORACLE_ROLE",
      "outputs": [
        {
          "internalType": "bytes32",
          "name": "",
          "type": "bytes32"
        }
      ],
      "stateMutability": "view",
      "type": "function"
    },
    {
      "inputs": [],
      "name": "PAUSER_ROLE",
      "outputs": [
        {
          "internalType": "bytes32",
          "name": "",
          "type": "bytes32"
        }
      ],
      "stateMutability": "view",
      "type": "function"
    },
    {
      "inputs": [
        {
          "internalType": "address",
          "name": "account",
          "type": "address"
        },
        {
          "internalType": "uint256",
          "name": "id",
          "type": "uint256"
        }
      ],
      "name": "balanceOf",
      "outputs": [
        {
          "internalType": "uint256",
          "name": "",
          "type": "uint256"
        }
      ],
      "stateMutability": "view",
      "type": "function"
    },
    {
      "inputs": [
        {
          "internalType": "address[]",
          "name": "accounts",
          "type": "address[]"
        },
        {
          "internalType": "uint256[]",
          "name": "ids",
          "type": "uint256[]"
        }
      ],
      "name": "balanceOfBatch",
      "outputs": [
        {
          "internalType": "uint256[]",
          "name": "",
          "type": "uint256[]"
        }
      ],
      "stateMutability": "view",
      "type": "function"
    },
    {
      "inputs": [
        {
          "internalType": "address",
          "name": "account",
          "type": "address"
        },
        {
          "internalType": "uint256",
          "name": "id",
          "type": "uint256"
        },
        {
          "internalType": "uint256",
          "name": "value",
          "type": "uint256"
        }
      ],
      "name": "burn",
      "outputs": [],
      "stateMutability": "nonpayable",
      "type": "function"
    },
    {
      "inputs": [
        {
          "internalType": "address",
          "name": "account",
          "type": "address"
        },
        {
          "internalType": "uint256[]",
          "name": "ids",
          "type": "uint256[]"
        },
        {
          "internalType": "uint256[]",
          "name": "values",
          "type": "uint256[]"
        }
      ],
      "name": "burnBatch",
      "outputs": [],
      "stateMutability": "nonpayable",
      "type": "function"
    },
    {
      "inputs": [
        {
          "internalType": "uint256",
          "name": "id",
          "type": "uint256"
        }
      ],
      "name": "exists",
      "outputs": [
        {
          "internalType": "bool",
          "name": "",
          "type": "bool"
        }
      ],
      "stateMutability": "view",
      "type": "function"
    },
    {
      "inputs": [
        {
          "internalType": "bytes32",
          "name": "role",
          "type": "bytes32"
        }
      ],
      "name": "getRoleAdmin",
      "outputs": [
        {
          "internalType": "bytes32",
          "name": "",
          "type": "bytes32"
        }
      ],
      "stateMutability": "view",
      "type": "function"
    },
    {
      "inputs": [
        {
          "internalType": "bytes32",
          "name": "role",
          "type": "bytes32"
        },
        {
          "internalType": "uint256",
          "name": "index",
          "type": "uint256"
        }
      ],
      "name": "getRoleMember",
      "outputs": [
        {
          "internalType": "address",
          "name": "",
          "type": "address"
        }
      ],
      "stateMutability": "view",
      "type": "function"
    },
    {
      "inputs": [
        {
          "internalType": "bytes32",
          "name": "role",
          "type": "bytes32"
        }
      ],
      "name": "getRoleMemberCount",
      "outputs": [
        {
          "internalType": "uint256",
          "name": "",
          "type": "uint256"
        }
      ],
      "stateMutability": "view",
      "type": "function"
    },
    {
      "inputs": [
        {
          "internalType": "bytes32",
          "name": "role",
          "type": "bytes32"
        },
        {
          "internalType": "address",
          "name": "account",
          "type": "address"
        }
      ],
      "name": "grantRole",
      "outputs": [],
      "stateMutability": "nonpayable",
      "type": "function"
    },
    {
      "inputs": [
        {
          "internalType": "bytes32",
          "name": "role",
          "type": "bytes32"
        },
        {
          "internalType": "address",
          "name": "account",
          "type": "address"
        }
      ],
      "name": "hasRole",
      "outputs": [
        {
          "internalType": "bool",
          "name": "",
          "type": "bool"
        }
      ],
      "stateMutability": "view",
      "type": "function"
    },
    {
      "inputs": [
        {
          "internalType": "address",
          "name": "account",
          "type": "address"
        },
        {
          "internalType": "address",
          "name": "operator",
          "type": "address"
        }
      ],
      "name": "isApprovedForAll",
      "outputs": [
        {
          "internalType": "bool",
          "name": "",
          "type": "bool"
        }
      ],
      "stateMutability": "view",
      "type": "function"
    },
    {
      "inputs": [
        {
          "internalType": "address",
          "name": "_interface",
          "type": "address"
        },
        {
          "internalType": "uint256",
          "name": "id",
          "type": "uint256"
        }
      ],
      "name": "isInterface",
      "outputs": [
        {
          "internalType": "bool",
          "name": "",
          "type": "bool"
        }
      ],
      "stateMutability": "view",
      "type": "function"
    },
    {
      "inputs": [
        {
          "internalType": "address",
          "name": "to",
          "type": "address"
        },
        {
          "internalType": "uint256",
          "name": "id",
          "type": "uint256"
        },
        {
          "internalType": "uint256",
          "name": "amount",
          "type": "uint256"
        },
        {
          "internalType": "bytes",
          "name": "data",
          "type": "bytes"
        }
      ],
      "name": "mint",
      "outputs": [],
      "stateMutability": "nonpayable",
      "type": "function"
    },
    {
      "inputs": [
        {
          "internalType": "address",
          "name": "to",
          "type": "address"
        },
        {
          "internalType": "uint256[]",
          "name": "ids",
          "type": "uint256[]"
        },
        {
          "internalType": "uint256[]",
          "name": "amounts",
          "type": "uint256[]"
        },
        {
          "internalType": "bytes",
          "name": "data",
          "type": "bytes"
        }
      ],
      "name": "mintBatch",
      "outputs": [],
      "stateMutability": "nonpayable",
      "type": "function"
    },
    {
      "inputs": [],
      "name": "name",
      "outputs": [
        {
          "internalType": "string",
          "name": "",
          "type": "string"
        }
      ],
      "stateMutability": "view",
      "type": "function"
    },
    {
      "inputs": [],
      "name": "pause",
      "outputs": [],
      "stateMutability": "nonpayable",
      "type": "function"
    },
    {
      "inputs": [],
      "name": "paused",
      "outputs": [
        {
          "internalType": "bool",
          "name": "",
          "type": "bool"
        }
      ],
      "stateMutability": "view",
      "type": "function"
    },
    {
      "inputs": [
        {
          "internalType": "uint256",
          "name": "_id",
          "type": "uint256"
        }
      ],
      "name": "pricePerShare",
      "outputs": [
        {
          "internalType": "uint256",
          "name": "",
          "type": "uint256"
        }
      ],
      "stateMutability": "view",
      "type": "function"
    },
    {
      "inputs": [
        {
          "internalType": "bytes32",
          "name": "role",
          "type": "bytes32"
        },
        {
          "internalType": "address",
          "name": "account",
          "type": "address"
        }
      ],
      "name": "renounceRole",
      "outputs": [],
      "stateMutability": "nonpayable",
      "type": "function"
    },
    {
      "inputs": [
        {
          "internalType": "bytes32",
          "name": "role",
          "type": "bytes32"
        },
        {
          "internalType": "address",
          "name": "account",
          "type": "address"
        }
      ],
      "name": "revokeRole",
      "outputs": [],
      "stateMutability": "nonpayable",
      "type": "function"
    },
    {
      "inputs": [
        {
          "internalType": "address",
          "name": "from",
          "type": "address"
        },
        {
          "internalType": "address",
          "name": "to",
          "type": "address"
        },
        {
          "internalType": "uint256[]",
          "name": "ids",
          "type": "uint256[]"
        },
        {
          "internalType": "uint256[]",
          "name": "amounts",
          "type": "uint256[]"
        },
        {
          "internalType": "bytes",
          "name": "data",
          "type": "bytes"
        }
      ],
      "name": "safeBatchTransferFrom",
      "outputs": [],
      "stateMutability": "nonpayable",
      "type": "function"
    },
    {
      "inputs": [
        {
          "internalType": "address",
          "name": "from",
          "type": "address"
        },
        {
          "internalType": "address",
          "name": "to",
          "type": "address"
        },
        {
          "internalType": "uint256",
          "name": "id",
          "type": "uint256"
        },
        {
          "internalType": "uint256",
          "name": "amount",
          "type": "uint256"
        },
        {
          "internalType": "bytes",
          "name": "data",
          "type": "bytes"
        }
      ],
      "name": "safeTransferFrom",
      "outputs": [],
      "stateMutability": "nonpayable",
      "type": "function"
    },
    {
      "inputs": [
        {
          "internalType": "address",
          "name": "operator",
          "type": "address"
        },
        {
          "internalType": "bool",
          "name": "approved",
          "type": "bool"
        }
      ],
      "name": "setApprovalForAll",
      "outputs": [],
      "stateMutability": "nonpayable",
      "type": "function"
    },
    {
      "inputs": [
        {
          "internalType": "address",
          "name": "_Interface",
          "type": "address"
        },
        {
          "internalType": "uint256",
          "name": "_id",
          "type": "uint256"
        },
        {
          "internalType": "bool",
          "name": "isSet",
          "type": "bool"
        }
      ],
      "name": "setInterface",
      "outputs": [],
      "stateMutability": "nonpayable",
      "type": "function"
    },
    {
      "inputs": [
        {
          "internalType": "uint256",
          "name": "pricePerShare_",
          "type": "uint256"
        },
        {
          "internalType": "uint256",
          "name": "_id",
          "type": "uint256"
        }
      ],
      "name": "setPricePerShare",
      "outputs": [],
      "stateMutability": "nonpayable",
      "type": "function"
    },
    {
      "inputs": [
        {
          "internalType": "bytes4",
          "name": "interfaceId",
          "type": "bytes4"
        }
      ],
      "name": "supportsInterface",
      "outputs": [
        {
          "internalType": "bool",
          "name": "",
          "type": "bool"
        }
      ],
      "stateMutability": "view",
      "type": "function"
    },
    {
      "inputs": [],
      "name": "symbol",
      "outputs": [
        {
          "internalType": "string",
          "name": "",
          "type": "string"
        }
      ],
      "stateMutability": "view",
      "type": "function"
    },
    {
      "inputs": [
        {
          "internalType": "uint256",
          "name": "id",
          "type": "uint256"
        }
      ],
      "name": "totalSupply",
      "outputs": [
        {
          "internalType": "uint256",
          "name": "",
          "type": "uint256"
        }
      ],
      "stateMutability": "view",
      "type": "function"
    },
    {
      "inputs": [],
      "name": "unpause",
      "outputs": [],
      "stateMutability": "nonpayable",
      "type": "function"
    },
    {
      "inputs": [
        {
          "internalType": "address",
          "name": "Minter",
          "type": "address"
        }
      ],
      "name": "updateMinterPauserOracle",
      "outputs": [],
      "stateMutability": "nonpayable",
      "type": "function"
    },
    {
      "inputs": [
        {
          "internalType": "uint256",
          "name": "",
          "type": "uint256"
        }
      ],
      "name": "uri",
      "outputs": [
        {
          "internalType": "string",
          "name": "",
          "type": "string"
        }
      ],
      "stateMutability": "view",
      "type": "function"
    }
  ],
  "transactionHash": "0x7f9e1f04a1bd522395ebcf9de040279e72eda759212fc5a6552cf43f96b57210",
  "args": [
    "https://api.geode.fi/gavax"
  ],
  "solcInputHash": "492b8174343aef947d9cd2113004784d",
  "bytecode": "0x60806040523480156200001157600080fd5b5060405162003527380380620035278339810160408190526200003491620002ff565b80806200004181620000e5565b506005805460ff1916905562000059600033620000fe565b620000857f9f2df0fed2c77648de5860a4cc508cd0818c85b8b8a1ab4ceeef8d981c8956a633620000fe565b620000b17f65d7a28e3265b37a6474929f336521b332c1681b933f6cb9f3376673440d862a33620000fe565b50620000de7f68e79a7bf1e0bc45d0a330c573bc367f9cf464fd326078812f301165fbda4ef133620000fe565b506200042e565b8051620000fa90600490602084019062000259565b5050565b620000fa82826200011b82826200014760201b62000e701760201c565b60008281526001602090815260409091206200014291839062000ef4620001e7821b17901c565b505050565b6000828152602081815260408083206001600160a01b038516845290915290205460ff16620000fa576000828152602081815260408083206001600160a01b03851684529091529020805460ff19166001179055620001a33390565b6001600160a01b0316816001600160a01b0316837f2f8788117e7eff1d82e926ec794901d17c78024a50270940304540a733656f0d60405160405180910390a45050565b6000620001fe836001600160a01b03841662000207565b90505b92915050565b6000818152600183016020526040812054620002505750815460018181018455600084815260208082209093018490558454848252828601909352604090209190915562000201565b50600062000201565b8280546200026790620003db565b90600052602060002090601f0160209004810192826200028b5760008555620002d6565b82601f10620002a657805160ff1916838001178555620002d6565b82800160010185558215620002d6579182015b82811115620002d6578251825591602001919060010190620002b9565b50620002e4929150620002e8565b5090565b5b80821115620002e45760008155600101620002e9565b600060208083850312156200031357600080fd5b82516001600160401b03808211156200032b57600080fd5b818501915085601f8301126200034057600080fd5b81518181111562000355576200035562000418565b604051601f8201601f19908116603f0116810190838211818310171562000380576200038062000418565b8160405282815288868487010111156200039957600080fd5b600093505b82841015620003bd57848401860151818501870152928501926200039e565b82841115620003cf5760008684830101525b98975050505050505050565b600181811c90821680620003f057607f821691505b602082108114156200041257634e487b7160e01b600052602260045260246000fd5b50919050565b634e487b7160e01b600052604160045260246000fd5b6130e9806200043e6000396000f3fe608060405234801561001057600080fd5b50600436106102105760003560e01c80638456cb5911610125578063ca15c873116100ad578063e985e9c51161007c578063e985e9c5146104dd578063f242432a14610519578063f5298aca1461052c578063f759cc3b1461053f578063fcd295e31461055f57600080fd5b8063ca15c8731461048d578063d5391393146104a0578063d547741f146104b5578063e63ab1e9146104c857600080fd5b80639ec0f804116100f45780639ec0f8041461042c578063a217fddf1461043f578063a22cb46514610447578063a6fd34511461045a578063bd85b0391461046d57600080fd5b80638456cb59146103c25780639010d07c146103ca57806391d14854146103f557806395d89b411461040857600080fd5b80632eb2c2d6116101a85780634e1273f4116101775780634e1273f41461034f5780634f558e791461036f5780635c975abb146103915780636b20c4541461039c578063731133e9146103af57600080fd5b80632eb2c2d61461030e5780632f2ff15d1461032157806336568abe146103345780633f4ba83a1461034757600080fd5b80630e89341c116101e45780630e89341c146102b05780631f7fdffa146102c357806322af5997146102d8578063248a9ca3146102eb57600080fd5b8062fdd58e1461021557806301ffc9a71461023b57806306fdde031461025e57806307e2cea51461029b575b600080fd5b61022861022336600461265f565b610572565b6040519081526020015b60405180910390f35b61024e61024936600461287c565b61060d565b6040519015158152602001610232565b61028e6040518060400160405280601181526020017008ecadec8ca40a6e8c2d6cac84082ac82b607b1b81525081565b6040516102329190612a76565b61022860008051602061305483398151915281565b61028e6102be36600461281e565b610618565b6102d66102d136600461259c565b6106ac565b005b6102d66102e636600461285a565b6106f2565b6102286102f936600461281e565b60009081526020819052604090206001015490565b6102d661031c366004612419565b610770565b6102d661032f366004612837565b6107bc565b6102d6610342366004612837565b6107e7565b6102d6610861565b61036261035d36600461274d565b6108f5565b6040516102329190612a35565b61024e61037d36600461281e565b600090815260066020526040902054151590565b60055460ff1661024e565b6102d66103aa366004612528565b610a1f565b6102d66103bd3660046126f8565b610a62565b6102d6610aa2565b6103dd6103d836600461285a565b610b34565b6040516001600160a01b039091168152602001610232565b61024e610403366004612837565b610b53565b61028e604051806040016040528060058152602001640ce82ac82b60db1b81525081565b6102d661043a366004612689565b610b7c565b610228600081565b6102d6610455366004612635565b610c66565b6102d66104683660046123cb565b610c71565b61022861047b36600461281e565b60009081526006602052604090205490565b61022861049b36600461281e565b610d38565b61022860008051602061309483398151915281565b6102d66104c3366004612837565b610d4f565b61022860008051602061307483398151915281565b61024e6104eb3660046123e6565b6001600160a01b03918216600090815260036020908152604080832093909416825291909152205460ff1690565b6102d66105273660046124c3565b610d75565b6102d661053a3660046126c5565b610dca565b61022861054d36600461281e565b60009081526008602052604090205490565b61024e61056d36600461265f565b610e1d565b60006001600160a01b0383166105e25760405162461bcd60e51b815260206004820152602a60248201527f455243313135353a2061646472657373207a65726f206973206e6f742061207660448201526930b634b21037bbb732b960b11b60648201526084015b60405180910390fd5b5060008181526002602090815260408083206001600160a01b03861684529091529020545b92915050565b600061060782610f09565b60606004805461062790612ebc565b80601f016020809104026020016040519081016040528092919081815260200182805461065390612ebc565b80156106a05780601f10610675576101008083540402835291602001916106a0565b820191906000526020600020905b81548152906001019060200180831161068357829003601f168201915b50505050509050919050565b6106c460008051602061309483398151915233610b53565b6106e05760405162461bcd60e51b81526004016105d990612c94565b6106ec84848484610f49565b50505050565b61070a60008051602061305483398151915233610b53565b6107565760405162461bcd60e51b815260206004820152601e60248201527f67415641583a206d7573742068617665204f5241434c4520746f20736574000060448201526064016105d9565b61076c8282600090815260086020526040902055565b5050565b6001600160a01b03851633148061078c575061078c85336104eb565b6107a85760405162461bcd60e51b81526004016105d990612a89565b6107b585858585856110a4565b5050505050565b6000828152602081905260409020600101546107d88133611251565b6107e283836112b5565b505050565b6001600160a01b03811633146108575760405162461bcd60e51b815260206004820152602f60248201527f416363657373436f6e74726f6c3a2063616e206f6e6c792072656e6f756e636560448201526e103937b632b9903337b91039b2b63360891b60648201526084016105d9565b61076c82826112d7565b61087960008051602061307483398151915233610b53565b6108eb5760405162461bcd60e51b815260206004820152603b60248201527f455243313135355072657365744d696e7465725061757365723a206d7573742060448201527f686176652070617573657220726f6c6520746f20756e7061757365000000000060648201526084016105d9565b6108f36112f9565b565b6060815183511461095a5760405162461bcd60e51b815260206004820152602960248201527f455243313135353a206163636f756e747320616e6420696473206c656e677468604482015268040dad2e6dac2e8c6d60bb1b60648201526084016105d9565b6000835167ffffffffffffffff81111561097657610976612f81565b60405190808252806020026020018201604052801561099f578160200160208202803683370190505b50905060005b8451811015610a17576109ea8582815181106109c3576109c3612f6b565b60200260200101518583815181106109dd576109dd612f6b565b6020026020010151610572565b8282815181106109fc576109fc612f6b565b6020908102919091010152610a1081612f24565b90506109a5565b509392505050565b6001600160a01b038316331480610a3b5750610a3b83336104eb565b610a575760405162461bcd60e51b81526004016105d990612a89565b6107e283838361138c565b610a7a60008051602061309483398151915233610b53565b610a965760405162461bcd60e51b81526004016105d990612c94565b6106ec8484848461152b565b610aba60008051602061307483398151915233610b53565b610b2c5760405162461bcd60e51b815260206004820152603960248201527f455243313135355072657365744d696e7465725061757365723a206d7573742060448201527f686176652070617573657220726f6c6520746f2070617573650000000000000060648201526084016105d9565b6108f3611616565b6000828152600160205260408120610b4c9083611691565b9392505050565b6000918252602082815260408084206001600160a01b0393909316845291905290205460ff1690565b610b9460008051602061309483398151915233610b53565b610bb05760405162461bcd60e51b81526004016105d990612d3b565b6001600160a01b0383163b610c135760405162461bcd60e51b8152602060048201526024808201527f67415641583a205f496e74657266616365206d757374206265206120636f6e746044820152631c9858dd60e21b60648201526084016105d9565b610c1e83838361169d565b826001600160a01b03167f7b6f183ad3150affe206a9ff35cdf0c27344cac3aaa49a7172afcaeef272db1d83604051610c5991815260200190565b60405180910390a2505050565b61076c3383836116f9565b610c8960008051602061309483398151915233610b53565b610ca55760405162461bcd60e51b81526004016105d990612d3b565b610cbd600080516020613094833981519152336107e7565b610cd5600080516020613074833981519152336107e7565b610ced600080516020613054833981519152336107e7565b610d05600080516020613094833981519152826117da565b610d1d600080516020613074833981519152826117da565b610d35600080516020613054833981519152826117da565b50565b6000818152600160205260408120610607906117e4565b600082815260208190526040902060010154610d6b8133611251565b6107e283836112d7565b6001600160a01b038516331480610da15750610d9185336104eb565b80610da15750610da13384610e1d565b610dbd5760405162461bcd60e51b81526004016105d990612b20565b6107b585858585856117ee565b6001600160a01b038316331480610df65750610de683336104eb565b80610df65750610df63383610e1d565b610e125760405162461bcd60e51b81526004016105d990612b20565b6107e283838361192a565b60006001600160a01b038316610e455760405162461bcd60e51b81526004016105d990612bc1565b5060009081526007602090815260408083206001600160a01b03949094168352929052205460ff1690565b610e7a8282610b53565b61076c576000828152602081815260408083206001600160a01b03851684529091529020805460ff19166001179055610eb03390565b6001600160a01b0316816001600160a01b0316837f2f8788117e7eff1d82e926ec794901d17c78024a50270940304540a733656f0d60405160405180910390a45050565b6000610b4c836001600160a01b038416611a46565b60006001600160e01b03198216636cdb3d1360e11b1480610f3a57506001600160e01b031982166303a24d0760e21b145b80610607575061060782611a95565b6001600160a01b038416610f6f5760405162461bcd60e51b81526004016105d990612dc6565b8151835114610f905760405162461bcd60e51b81526004016105d990612d7e565b33610fa081600087878787611aba565b60005b845181101561103c57838181518110610fbe57610fbe612f6b565b602002602001015160026000878481518110610fdc57610fdc612f6b565b602002602001015181526020019081526020016000206000886001600160a01b03166001600160a01b0316815260200190815260200160002060008282546110249190612e2b565b9091555081905061103481612f24565b915050610fa3565b50846001600160a01b031660006001600160a01b0316826001600160a01b03167f4a39dc06d4c0dbc64b70af90fd698a233a518aa5d07e595d983b8c0526c8f7fb878760405161108d929190612a48565b60405180910390a46107b581600087878787611ac8565b81518351146110c55760405162461bcd60e51b81526004016105d990612d7e565b6001600160a01b0384166110eb5760405162461bcd60e51b81526004016105d990612c0c565b336110fa818787878787611aba565b60005b84518110156111e357600085828151811061111a5761111a612f6b565b60200260200101519050600085838151811061113857611138612f6b565b60209081029190910181015160008481526002835260408082206001600160a01b038e1683529093529190912054909150818110156111895760405162461bcd60e51b81526004016105d990612cf1565b60008381526002602090815260408083206001600160a01b038e8116855292528083208585039055908b168252812080548492906111c8908490612e2b565b92505081905550505050806111dc90612f24565b90506110fd565b50846001600160a01b0316866001600160a01b0316826001600160a01b03167f4a39dc06d4c0dbc64b70af90fd698a233a518aa5d07e595d983b8c0526c8f7fb8787604051611233929190612a48565b60405180910390a4611249818787878787611ac8565b505050505050565b61125b8282610b53565b61076c57611273816001600160a01b03166014611c33565b61127e836020611c33565b60405160200161128f92919061291d565b60408051601f198184030181529082905262461bcd60e51b82526105d991600401612a76565b6112bf8282610e70565b60008281526001602052604090206107e29082610ef4565b6112e18282611dcf565b60008281526001602052604090206107e29082611e34565b60055460ff166113425760405162461bcd60e51b815260206004820152601460248201527314185d5cd8589b194e881b9bdd081c185d5cd95960621b60448201526064016105d9565b6005805460ff191690557f5db9ee0a495bf2e6ff9c91a7834c1ba4fdd244a5e8aa4e537bd38aeae4b073aa335b6040516001600160a01b03909116815260200160405180910390a1565b6001600160a01b0383166113b25760405162461bcd60e51b81526004016105d990612c51565b80518251146113d35760405162461bcd60e51b81526004016105d990612d7e565b60003390506113f681856000868660405180602001604052806000815250611aba565b60005b83518110156114be57600084828151811061141657611416612f6b565b60200260200101519050600084838151811061143457611434612f6b565b60209081029190910181015160008481526002835260408082206001600160a01b038c1683529093529190912054909150818110156114855760405162461bcd60e51b81526004016105d990612b7d565b60009283526002602090815260408085206001600160a01b038b16865290915290922091039055806114b681612f24565b9150506113f9565b5060006001600160a01b0316846001600160a01b0316826001600160a01b03167f4a39dc06d4c0dbc64b70af90fd698a233a518aa5d07e595d983b8c0526c8f7fb868660405161150f929190612a48565b60405180910390a46040805160208101909152600090526106ec565b6001600160a01b0384166115515760405162461bcd60e51b81526004016105d990612dc6565b33600061155d85611e49565b9050600061156a85611e49565b905061157b83600089858589611aba565b60008681526002602090815260408083206001600160a01b038b168452909152812080548792906115ad908490612e2b565b909155505060408051878152602081018790526001600160a01b03808a1692600092918716917fc3d58168c5ae7397731d063d5bbf3d657854427343f4c083240f7aacaa2d0f62910160405180910390a461160d83600089898989611e94565b50505050505050565b60055460ff161561165c5760405162461bcd60e51b815260206004820152601060248201526f14185d5cd8589b194e881c185d5cd95960821b60448201526064016105d9565b6005805460ff191660011790557f62e78cea01bee320cd4e420270b5ea74000d11b0c9f74754ebdbfc544b05a25861136f3390565b6000610b4c8383611f73565b6001600160a01b0383166116c35760405162461bcd60e51b81526004016105d990612bc1565b60009182526007602090815260408084206001600160a01b03959095168452939052919020805460ff1916911515919091179055565b816001600160a01b0316836001600160a01b0316141561176d5760405162461bcd60e51b815260206004820152602960248201527f455243313135353a2073657474696e6720617070726f76616c20737461747573604482015268103337b91039b2b63360b91b60648201526084016105d9565b6001600160a01b03838116600081815260036020908152604080832094871680845294825291829020805460ff191686151590811790915591519182527f17307eab39ab6107e8899845ad3d59bd9653f200f220920489ca2b5937696c31910160405180910390a3505050565b61076c82826112b5565b6000610607825490565b6001600160a01b0384166118145760405162461bcd60e51b81526004016105d990612c0c565b33600061182085611e49565b9050600061182d85611e49565b905061183d838989858589611aba565b60008681526002602090815260408083206001600160a01b038c168452909152902054858110156118805760405162461bcd60e51b81526004016105d990612cf1565b60008781526002602090815260408083206001600160a01b038d8116855292528083208985039055908a168252812080548892906118bf908490612e2b565b909155505060408051888152602081018890526001600160a01b03808b16928c821692918816917fc3d58168c5ae7397731d063d5bbf3d657854427343f4c083240f7aacaa2d0f62910160405180910390a461191f848a8a8a8a8a611e94565b505050505050505050565b6001600160a01b0383166119505760405162461bcd60e51b81526004016105d990612c51565b33600061195c84611e49565b9050600061196984611e49565b905061198983876000858560405180602001604052806000815250611aba565b60008581526002602090815260408083206001600160a01b038a168452909152902054848110156119cc5760405162461bcd60e51b81526004016105d990612b7d565b60008681526002602090815260408083206001600160a01b038b81168086529184528285208a8703905582518b81529384018a90529092908816917fc3d58168c5ae7397731d063d5bbf3d657854427343f4c083240f7aacaa2d0f62910160405180910390a460408051602081019091526000905261160d565b6000818152600183016020526040812054611a8d57508154600181810184556000848152602080822090930184905584548482528286019093526040902091909155610607565b506000610607565b60006001600160e01b03198216635a05180f60e01b1480610607575061060782611f9d565b611249868686868686611fd2565b6001600160a01b0384163b156112495760405163bc197c8160e01b81526001600160a01b0385169063bc197c8190611b0c9089908990889088908890600401612992565b602060405180830381600087803b158015611b2657600080fd5b505af1925050508015611b56575060408051601f3d908101601f19168201909252611b5391810190612899565b60015b611c0357611b62612f97565b806308c379a01415611b9c5750611b77612fb3565b80611b825750611b9e565b8060405162461bcd60e51b81526004016105d99190612a76565b505b60405162461bcd60e51b815260206004820152603460248201527f455243313135353a207472616e7366657220746f206e6f6e20455243313135356044820152732932b1b2b4bb32b91034b6b83632b6b2b73a32b960611b60648201526084016105d9565b6001600160e01b0319811663bc197c8160e01b1461160d5760405162461bcd60e51b81526004016105d990612ad8565b60606000611c42836002612e43565b611c4d906002612e2b565b67ffffffffffffffff811115611c6557611c65612f81565b6040519080825280601f01601f191660200182016040528015611c8f576020820181803683370190505b509050600360fc1b81600081518110611caa57611caa612f6b565b60200101906001600160f81b031916908160001a905350600f60fb1b81600181518110611cd957611cd9612f6b565b60200101906001600160f81b031916908160001a9053506000611cfd846002612e43565b611d08906001612e2b565b90505b6001811115611d80576f181899199a1a9b1b9c1cb0b131b232b360811b85600f1660108110611d3c57611d3c612f6b565b1a60f81b828281518110611d5257611d52612f6b565b60200101906001600160f81b031916908160001a90535060049490941c93611d7981612ea5565b9050611d0b565b508315610b4c5760405162461bcd60e51b815260206004820181905260248201527f537472696e67733a20686578206c656e67746820696e73756666696369656e7460448201526064016105d9565b611dd98282610b53565b1561076c576000828152602081815260408083206001600160a01b0385168085529252808320805460ff1916905551339285917ff6391f5c32d9c69d2a47ea670b442974b53935d1edc7fd64eb21e047a839171b9190a45050565b6000610b4c836001600160a01b038416612159565b60408051600180825281830190925260609160009190602080830190803683370190505090508281600081518110611e8357611e83612f6b565b602090810291909101015292915050565b6001600160a01b0384163b15158015611eb45750611eb28684610e1d565b155b156112495760405163f23a6e6160e01b81526001600160a01b0385169063f23a6e6190611eed90899089908890889088906004016129f0565b602060405180830381600087803b158015611f0757600080fd5b505af1925050508015611f37575060408051601f3d908101601f19168201909252611f3491810190612899565b60015b611f4357611b62612f97565b6001600160e01b0319811663f23a6e6160e01b1461160d5760405162461bcd60e51b81526004016105d990612ad8565b6000826000018281548110611f8a57611f8a612f6b565b9060005260206000200154905092915050565b60006001600160e01b03198216637965db0b60e01b148061060757506301ffc9a760e01b6001600160e01b0319831614610607565b611fe086868686868661224c565b6001600160a01b0385166120675760005b83518110156120655782818151811061200c5761200c612f6b565b60200260200101516006600086848151811061202a5761202a612f6b565b60200260200101518152602001908152602001600020600082825461204f9190612e2b565b9091555061205e905081612f24565b9050611ff1565b505b6001600160a01b0384166112495760005b835181101561160d57600084828151811061209557612095612f6b565b6020026020010151905060008483815181106120b3576120b3612f6b565b60200260200101519050600060066000848152602001908152602001600020549050818110156121365760405162461bcd60e51b815260206004820152602860248201527f455243313135353a206275726e20616d6f756e74206578636565647320746f74604482015267616c537570706c7960c01b60648201526084016105d9565b6000928352600660205260409092209103905561215281612f24565b9050612078565b6000818152600183016020526040812054801561224257600061217d600183612e62565b855490915060009061219190600190612e62565b90508181146121f65760008660000182815481106121b1576121b1612f6b565b90600052602060002001549050808760000184815481106121d4576121d4612f6b565b6000918252602080832090910192909255918252600188019052604090208390555b855486908061220757612207612f55565b600190038181906000526020600020016000905590558560010160008681526020019081526020016000206000905560019350505050610607565b6000915050610607565b60055460ff16156112495760405162461bcd60e51b815260206004820152602c60248201527f455243313135355061757361626c653a20746f6b656e207472616e736665722060448201526b1dda1a5b19481c185d5cd95960a21b60648201526084016105d9565b80356001600160a01b03811681146122cb57600080fd5b919050565b600082601f8301126122e157600080fd5b813560206122ee82612e07565b6040516122fb8282612ef7565b8381528281019150858301600585901b8701840188101561231b57600080fd5b60005b8581101561233a5781358452928401929084019060010161231e565b5090979650505050505050565b803580151581146122cb57600080fd5b600082601f83011261236857600080fd5b813567ffffffffffffffff81111561238257612382612f81565b604051612399601f8301601f191660200182612ef7565b8181528460208386010111156123ae57600080fd5b816020850160208301376000918101602001919091529392505050565b6000602082840312156123dd57600080fd5b610b4c826122b4565b600080604083850312156123f957600080fd5b612402836122b4565b9150612410602084016122b4565b90509250929050565b600080600080600060a0868803121561243157600080fd5b61243a866122b4565b9450612448602087016122b4565b9350604086013567ffffffffffffffff8082111561246557600080fd5b61247189838a016122d0565b9450606088013591508082111561248757600080fd5b61249389838a016122d0565b935060808801359150808211156124a957600080fd5b506124b688828901612357565b9150509295509295909350565b600080600080600060a086880312156124db57600080fd5b6124e4866122b4565b94506124f2602087016122b4565b93506040860135925060608601359150608086013567ffffffffffffffff81111561251c57600080fd5b6124b688828901612357565b60008060006060848603121561253d57600080fd5b612546846122b4565b9250602084013567ffffffffffffffff8082111561256357600080fd5b61256f878388016122d0565b9350604086013591508082111561258557600080fd5b50612592868287016122d0565b9150509250925092565b600080600080608085870312156125b257600080fd5b6125bb856122b4565b9350602085013567ffffffffffffffff808211156125d857600080fd5b6125e4888389016122d0565b945060408701359150808211156125fa57600080fd5b612606888389016122d0565b9350606087013591508082111561261c57600080fd5b5061262987828801612357565b91505092959194509250565b6000806040838503121561264857600080fd5b612651836122b4565b915061241060208401612347565b6000806040838503121561267257600080fd5b61267b836122b4565b946020939093013593505050565b60008060006060848603121561269e57600080fd5b6126a7846122b4565b9250602084013591506126bc60408501612347565b90509250925092565b6000806000606084860312156126da57600080fd5b6126e3846122b4565b95602085013595506040909401359392505050565b6000806000806080858703121561270e57600080fd5b612717856122b4565b93506020850135925060408501359150606085013567ffffffffffffffff81111561274157600080fd5b61262987828801612357565b6000806040838503121561276057600080fd5b823567ffffffffffffffff8082111561277857600080fd5b818501915085601f83011261278c57600080fd5b8135602061279982612e07565b6040516127a68282612ef7565b8381528281019150858301600585901b870184018b10156127c657600080fd5b600096505b848710156127f0576127dc816122b4565b8352600196909601959183019183016127cb565b509650508601359250508082111561280757600080fd5b50612814858286016122d0565b9150509250929050565b60006020828403121561283057600080fd5b5035919050565b6000806040838503121561284a57600080fd5b82359150612410602084016122b4565b6000806040838503121561286d57600080fd5b50508035926020909101359150565b60006020828403121561288e57600080fd5b8135610b4c8161303d565b6000602082840312156128ab57600080fd5b8151610b4c8161303d565b600081518084526020808501945080840160005b838110156128e6578151875295820195908201906001016128ca565b509495945050505050565b60008151808452612909816020860160208601612e79565b601f01601f19169290920160200192915050565b7f416363657373436f6e74726f6c3a206163636f756e7420000000000000000000815260008351612955816017850160208801612e79565b7001034b99036b4b9b9b4b733903937b6329607d1b6017918401918201528351612986816028840160208801612e79565b01602801949350505050565b6001600160a01b0386811682528516602082015260a0604082018190526000906129be908301866128b6565b82810360608401526129d081866128b6565b905082810360808401526129e481856128f1565b98975050505050505050565b6001600160a01b03868116825285166020820152604081018490526060810183905260a060808201819052600090612a2a908301846128f1565b979650505050505050565b602081526000610b4c60208301846128b6565b604081526000612a5b60408301856128b6565b8281036020840152612a6d81856128b6565b95945050505050565b602081526000610b4c60208301846128f1565b6020808252602f908201527f455243313135353a2063616c6c6572206973206e6f7420746f6b656e206f776e60408201526e195c881b9bdc88185c1c1c9bdd9959608a1b606082015260800190565b60208082526028908201527f455243313135353a204552433131353552656365697665722072656a656374656040820152676420746f6b656e7360c01b606082015260800190565b60208082526037908201527f455243313135353a2063616c6c6572206973206e6f74206f776e6572206e6f7260408201527f20696e74657266616365206e6f7220617070726f766564000000000000000000606082015260800190565b60208082526024908201527f455243313135353a206275726e20616d6f756e7420657863656564732062616c604082015263616e636560e01b606082015260800190565b6020808252602b908201527f67415641583a20696e7465726661636520717565727920666f7220746865207a60408201526a65726f206164647265737360a81b606082015260800190565b60208082526025908201527f455243313135353a207472616e7366657220746f20746865207a65726f206164604082015264647265737360d81b606082015260800190565b60208082526023908201527f455243313135353a206275726e2066726f6d20746865207a65726f206164647260408201526265737360e81b606082015260800190565b60208082526038908201527f455243313135355072657365744d696e7465725061757365723a206d7573742060408201527f68617665206d696e74657220726f6c6520746f206d696e740000000000000000606082015260800190565b6020808252602a908201527f455243313135353a20696e73756666696369656e742062616c616e636520666f60408201526939103a3930b739b332b960b11b606082015260800190565b60208082526023908201527f67415641583a206d7573742068617665204d494e5445525f524f4c4520746f206040820152621cd95d60ea1b606082015260800190565b60208082526028908201527f455243313135353a2069647320616e6420616d6f756e7473206c656e677468206040820152670dad2e6dac2e8c6d60c31b606082015260800190565b60208082526021908201527f455243313135353a206d696e7420746f20746865207a65726f206164647265736040820152607360f81b606082015260800190565b600067ffffffffffffffff821115612e2157612e21612f81565b5060051b60200190565b60008219821115612e3e57612e3e612f3f565b500190565b6000816000190483118215151615612e5d57612e5d612f3f565b500290565b600082821015612e7457612e74612f3f565b500390565b60005b83811015612e94578181015183820152602001612e7c565b838111156106ec5750506000910152565b600081612eb457612eb4612f3f565b506000190190565b600181811c90821680612ed057607f821691505b60208210811415612ef157634e487b7160e01b600052602260045260246000fd5b50919050565b601f8201601f1916810167ffffffffffffffff81118282101715612f1d57612f1d612f81565b6040525050565b6000600019821415612f3857612f38612f3f565b5060010190565b634e487b7160e01b600052601160045260246000fd5b634e487b7160e01b600052603160045260246000fd5b634e487b7160e01b600052603260045260246000fd5b634e487b7160e01b600052604160045260246000fd5b600060033d1115612fb05760046000803e5060005160e01c5b90565b600060443d1015612fc15790565b6040516003193d81016004833e81513d67ffffffffffffffff8160248401118184111715612ff157505050505090565b82850191508151818111156130095750505050505090565b843d87010160208285010111156130235750505050505090565b61303260208286010187612ef7565b509095945050505050565b6001600160e01b031981168114610d3557600080fdfe68e79a7bf1e0bc45d0a330c573bc367f9cf464fd326078812f301165fbda4ef165d7a28e3265b37a6474929f336521b332c1681b933f6cb9f3376673440d862a9f2df0fed2c77648de5860a4cc508cd0818c85b8b8a1ab4ceeef8d981c8956a6a2646970667358221220049445f3df2b625083eb71f8d6c6b1c0cede985f11ba7e68cdcebe86cb539d4364736f6c63430008070033",
  "devdoc": {
    "details": "only difference between ERC1155SupplyMinterPauser and Openzeppelin's implementation is _doSafeTransferAcceptanceCheck is being virtual: // https://github.com/OpenZeppelin/openzeppelin-contracts/blob/cb3f2ab900e39c5ab6e0de6663edf06f573b834f/contracts/token/ERC1155/presets/ERC1155PresetMinterPauser.sol // https://github.com/OpenZeppelin/openzeppelin-contracts/blob/cb3f2ab900e39c5ab6e0de6663edf06f573b834f/contracts/token/ERC1155/extensions/ERC1155Supply.sol diffchecker link: https://www.diffchecker.com/UOAdD16A",
    "kind": "dev",
    "methods": {
      "balanceOf(address,uint256)": {
        "details": "See {IERC1155-balanceOf}. Requirements: - `account` cannot be the zero address."
      },
      "balanceOfBatch(address[],uint256[])": {
        "details": "See {IERC1155-balanceOfBatch}. Requirements: - `accounts` and `ids` must have the same length."
      },
      "burn(address,uint256,uint256)": {
        "details": "See {IERC1155-safeTransferFrom}.CHANGED for gAVAXADDED \"|| isInterface(_msgSender(),id))\""
      },
      "exists(uint256)": {
        "details": "Indicates whether any token exist with a given id, or not."
      },
      "getRoleAdmin(bytes32)": {
        "details": "Returns the admin role that controls `role`. See {grantRole} and {revokeRole}. To change a role's admin, use {_setRoleAdmin}."
      },
      "getRoleMember(bytes32,uint256)": {
        "details": "Returns one of the accounts that have `role`. `index` must be a value between 0 and {getRoleMemberCount}, non-inclusive. Role bearers are not sorted in any particular way, and their ordering may change at any point. WARNING: When using {getRoleMember} and {getRoleMemberCount}, make sure you perform all queries on the same block. See the following https://forum.openzeppelin.com/t/iterating-over-elements-on-enumerableset-in-openzeppelin-contracts/2296[forum post] for more information."
      },
      "getRoleMemberCount(bytes32)": {
        "details": "Returns the number of accounts that have `role`. Can be used together with {getRoleMember} to enumerate all bearers of a role."
      },
      "grantRole(bytes32,address)": {
        "details": "Grants `role` to `account`. If `account` had not been already granted `role`, emits a {RoleGranted} event. Requirements: - the caller must have ``role``'s admin role."
      },
      "hasRole(bytes32,address)": {
        "details": "Returns `true` if `account` has been granted `role`."
      },
      "isApprovedForAll(address,address)": {
        "details": "See {IERC1155-isApprovedForAll}."
      },
      "isInterface(address,uint256)": {
        "details": "ADDED for gAVAX"
      },
      "mint(address,uint256,uint256,bytes)": {
        "details": "Creates `amount` new tokens for `to`, of token type `id`. See {ERC1155-_mint}. Requirements: - the caller must have the `MINTER_ROLE`."
      },
      "mintBatch(address,uint256[],uint256[],bytes)": {
        "details": "xref:ROOT:erc1155.adoc#batch-operations[Batched] variant of {mint}."
      },
      "pause()": {
        "details": "Pauses all token transfers. See {ERC1155Pausable} and {Pausable-_pause}. Requirements: - the caller must have the `PAUSER_ROLE`."
      },
      "paused()": {
        "details": "Returns true if the contract is paused, and false otherwise."
      },
      "pricePerShare(uint256)": {
        "details": "ADDED for gAVAX"
      },
      "renounceRole(bytes32,address)": {
        "details": "Revokes `role` from the calling account. Roles are often managed via {grantRole} and {revokeRole}: this function's purpose is to provide a mechanism for accounts to lose their privileges if they are compromised (such as when a trusted device is misplaced). If the calling account had been revoked `role`, emits a {RoleRevoked} event. Requirements: - the caller must be `account`."
      },
      "revokeRole(bytes32,address)": {
        "details": "Revokes `role` from `account`. If `account` had been granted `role`, emits a {RoleRevoked} event. Requirements: - the caller must have ``role``'s admin role."
      },
      "safeBatchTransferFrom(address,address,uint256[],uint256[],bytes)": {
        "details": "See {IERC1155-safeBatchTransferFrom}."
      },
      "safeTransferFrom(address,address,uint256,uint256,bytes)": {
        "details": "See {IERC1155-safeTransferFrom}.CHANGED for gAVAXinterfaces can move your tokens without asking you.ADDED \"|| isInterface(_msgSender(),id))\""
      },
      "setApprovalForAll(address,bool)": {
        "details": "See {IERC1155-setApprovalForAll}."
      },
      "setInterface(address,uint256,bool)": {
        "details": "ADDED for gAVAX"
      },
      "supportsInterface(bytes4)": {
        "details": "See {IERC165-supportsInterface}."
      },
      "totalSupply(uint256)": {
        "details": "Total amount of tokens in with a given id."
      },
      "unpause()": {
        "details": "Unpauses all token transfers. See {ERC1155Pausable} and {Pausable-_unpause}. Requirements: - the caller must have the `PAUSER_ROLE`."
      },
      "updateMinterPauserOracle(address)": {
        "details": "MinterPauserOracle is basically a superUser, there can be only 1 at a given time, intended as \"Portal\""
      },
      "uri(uint256)": {
        "details": "See {IERC1155MetadataURI-uri}. This implementation returns the same URI for *all* token types. It relies on the token type ID substitution mechanism https://eips.ethereum.org/EIPS/eip-1155#metadata[defined in the EIP]. Clients calling this function must replace the `\\{id\\}` substring with the actual token type ID."
      }
    },
    "stateVariables": {
      "_interfaces": {
        "details": "ADDED for gAVAX"
      },
      "_pricePerShare": {
        "details": "ADDED for gAVAXfreshly assigned ids should return 1e18 since initally 1 AVAX = 1 gAVAX*"
      }
    },
    "title": "Geode Finance geode-avax: gAVAX One of the unique functionalities are the included price logic that tracks the underlaying ratio with staked asset, AVAX. Other and most important change is the implementation of ERC1155Interfaces. This addition effectively result in changes in safeTransferFrom(), burn(), _doSafeTransferAcceptanceCheck() functions, reasoning is in the comments.",
    "version": 1
  },
  "userdoc": {
    "kind": "user",
    "methods": {
      "isInterface(address,uint256)": {
        "notice": "checks if an address is defined as an interface for the given Planet id."
      },
      "setInterface(address,uint256,bool)": {
        "notice": "to be used to set an an address of a contract that will be behaved as an interface by gAVAX contract for a spesific ID"
      },
      "updateMinterPauserOracle(address)": {
        "notice": "updates the authorized party for all crucial operations related to minting, pricing and interfaces."
      }
    },
    "version": 1
  },
  "storageLayout": {
    "storage": [
      {
        "astId": 2264,
        "contract": "contracts/Portal/gAVAX.sol:gAVAX",
        "label": "_roles",
        "offset": 0,
        "slot": "0",
        "type": "t_mapping(t_bytes32,t_struct(RoleData)2259_storage)"
      },
      {
        "astId": 2567,
        "contract": "contracts/Portal/gAVAX.sol:gAVAX",
        "label": "_roleMembers",
        "offset": 0,
        "slot": "1",
        "type": "t_mapping(t_bytes32,t_struct(AddressSet)4569_storage)"
      },
      {
        "astId": 7407,
        "contract": "contracts/Portal/gAVAX.sol:gAVAX",
        "label": "_balances",
        "offset": 0,
        "slot": "2",
        "type": "t_mapping(t_uint256,t_mapping(t_address,t_uint256))"
      },
      {
        "astId": 7413,
        "contract": "contracts/Portal/gAVAX.sol:gAVAX",
        "label": "_operatorApprovals",
        "offset": 0,
        "slot": "3",
        "type": "t_mapping(t_address,t_mapping(t_address,t_bool))"
      },
      {
        "astId": 7415,
        "contract": "contracts/Portal/gAVAX.sol:gAVAX",
        "label": "_uri",
        "offset": 0,
        "slot": "4",
        "type": "t_string_storage"
      },
      {
        "astId": 2974,
        "contract": "contracts/Portal/gAVAX.sol:gAVAX",
        "label": "_paused",
        "offset": 0,
        "slot": "5",
        "type": "t_bool"
      },
      {
        "astId": 8718,
        "contract": "contracts/Portal/gAVAX.sol:gAVAX",
        "label": "_totalSupply",
        "offset": 0,
        "slot": "6",
        "type": "t_mapping(t_uint256,t_uint256)"
      },
      {
        "astId": 6549,
        "contract": "contracts/Portal/gAVAX.sol:gAVAX",
        "label": "_interfaces",
        "offset": 0,
        "slot": "7",
        "type": "t_mapping(t_uint256,t_mapping(t_address,t_bool))"
      },
      {
        "astId": 6554,
        "contract": "contracts/Portal/gAVAX.sol:gAVAX",
        "label": "_pricePerShare",
        "offset": 0,
        "slot": "8",
        "type": "t_mapping(t_uint256,t_uint256)"
      }
    ],
    "types": {
      "t_address": {
        "encoding": "inplace",
        "label": "address",
        "numberOfBytes": "20"
      },
      "t_array(t_bytes32)dyn_storage": {
        "base": "t_bytes32",
        "encoding": "dynamic_array",
        "label": "bytes32[]",
        "numberOfBytes": "32"
      },
      "t_bool": {
        "encoding": "inplace",
        "label": "bool",
        "numberOfBytes": "1"
      },
      "t_bytes32": {
        "encoding": "inplace",
        "label": "bytes32",
        "numberOfBytes": "32"
      },
      "t_mapping(t_address,t_bool)": {
        "encoding": "mapping",
        "key": "t_address",
        "label": "mapping(address => bool)",
        "numberOfBytes": "32",
        "value": "t_bool"
      },
      "t_mapping(t_address,t_mapping(t_address,t_bool))": {
        "encoding": "mapping",
        "key": "t_address",
        "label": "mapping(address => mapping(address => bool))",
        "numberOfBytes": "32",
        "value": "t_mapping(t_address,t_bool)"
      },
      "t_mapping(t_address,t_uint256)": {
        "encoding": "mapping",
        "key": "t_address",
        "label": "mapping(address => uint256)",
        "numberOfBytes": "32",
        "value": "t_uint256"
      },
      "t_mapping(t_bytes32,t_struct(AddressSet)4569_storage)": {
        "encoding": "mapping",
        "key": "t_bytes32",
        "label": "mapping(bytes32 => struct EnumerableSet.AddressSet)",
        "numberOfBytes": "32",
        "value": "t_struct(AddressSet)4569_storage"
      },
      "t_mapping(t_bytes32,t_struct(RoleData)2259_storage)": {
        "encoding": "mapping",
        "key": "t_bytes32",
        "label": "mapping(bytes32 => struct AccessControl.RoleData)",
        "numberOfBytes": "32",
        "value": "t_struct(RoleData)2259_storage"
      },
      "t_mapping(t_bytes32,t_uint256)": {
        "encoding": "mapping",
        "key": "t_bytes32",
        "label": "mapping(bytes32 => uint256)",
        "numberOfBytes": "32",
        "value": "t_uint256"
      },
      "t_mapping(t_uint256,t_mapping(t_address,t_bool))": {
        "encoding": "mapping",
        "key": "t_uint256",
        "label": "mapping(uint256 => mapping(address => bool))",
        "numberOfBytes": "32",
        "value": "t_mapping(t_address,t_bool)"
      },
      "t_mapping(t_uint256,t_mapping(t_address,t_uint256))": {
        "encoding": "mapping",
        "key": "t_uint256",
        "label": "mapping(uint256 => mapping(address => uint256))",
        "numberOfBytes": "32",
        "value": "t_mapping(t_address,t_uint256)"
      },
      "t_mapping(t_uint256,t_uint256)": {
        "encoding": "mapping",
        "key": "t_uint256",
        "label": "mapping(uint256 => uint256)",
        "numberOfBytes": "32",
        "value": "t_uint256"
      },
      "t_string_storage": {
        "encoding": "bytes",
        "label": "string",
        "numberOfBytes": "32"
      },
      "t_struct(AddressSet)4569_storage": {
        "encoding": "inplace",
        "label": "struct EnumerableSet.AddressSet",
        "members": [
          {
            "astId": 4568,
            "contract": "contracts/Portal/gAVAX.sol:gAVAX",
            "label": "_inner",
            "offset": 0,
            "slot": "0",
            "type": "t_struct(Set)4268_storage"
          }
        ],
        "numberOfBytes": "64"
      },
      "t_struct(RoleData)2259_storage": {
        "encoding": "inplace",
        "label": "struct AccessControl.RoleData",
        "members": [
          {
            "astId": 2256,
            "contract": "contracts/Portal/gAVAX.sol:gAVAX",
            "label": "members",
            "offset": 0,
            "slot": "0",
            "type": "t_mapping(t_address,t_bool)"
          },
          {
            "astId": 2258,
            "contract": "contracts/Portal/gAVAX.sol:gAVAX",
            "label": "adminRole",
            "offset": 0,
            "slot": "1",
            "type": "t_bytes32"
          }
        ],
        "numberOfBytes": "64"
      },
      "t_struct(Set)4268_storage": {
        "encoding": "inplace",
        "label": "struct EnumerableSet.Set",
        "members": [
          {
            "astId": 4263,
            "contract": "contracts/Portal/gAVAX.sol:gAVAX",
            "label": "_values",
            "offset": 0,
            "slot": "0",
            "type": "t_array(t_bytes32)dyn_storage"
          },
          {
            "astId": 4267,
            "contract": "contracts/Portal/gAVAX.sol:gAVAX",
            "label": "_indexes",
            "offset": 0,
            "slot": "1",
            "type": "t_mapping(t_bytes32,t_uint256)"
          }
        ],
        "numberOfBytes": "64"
      },
      "t_uint256": {
        "encoding": "inplace",
        "label": "uint256",
        "numberOfBytes": "32"
      }
    }
  }
}