{
  "address": "0xff82Ba61910E5421A5a02145382E3b93118104c0",
  "abi": [
    {
      "anonymous": false,
      "inputs": [
        {
          "indexed": true,
          "internalType": "address",
          "name": "provider",
          "type": "address"
        },
        {
          "indexed": false,
          "internalType": "uint256[]",
          "name": "tokenAmounts",
          "type": "uint256[]"
        },
        {
          "indexed": false,
          "internalType": "uint256[]",
          "name": "fees",
          "type": "uint256[]"
        },
        {
          "indexed": false,
          "internalType": "uint256",
          "name": "invariant",
          "type": "uint256"
        },
        {
          "indexed": false,
          "internalType": "uint256",
          "name": "lpTokenSupply",
          "type": "uint256"
        }
      ],
      "name": "AddLiquidity",
      "type": "event"
    },
    {
      "anonymous": false,
      "inputs": [
        {
          "indexed": false,
          "internalType": "uint256",
          "name": "newAdminFee",
          "type": "uint256"
        }
      ],
      "name": "NewAdminFee",
      "type": "event"
    },
    {
      "anonymous": false,
      "inputs": [
        {
          "indexed": false,
          "internalType": "uint256",
          "name": "newSwapFee",
          "type": "uint256"
        }
      ],
      "name": "NewSwapFee",
      "type": "event"
    },
    {
      "anonymous": false,
      "inputs": [
        {
          "indexed": false,
          "internalType": "uint256",
          "name": "newWithdrawFee",
          "type": "uint256"
        }
      ],
      "name": "NewWithdrawFee",
      "type": "event"
    },
    {
      "anonymous": false,
      "inputs": [
        {
          "indexed": true,
          "internalType": "address",
          "name": "previousOwner",
          "type": "address"
        },
        {
          "indexed": true,
          "internalType": "address",
          "name": "newOwner",
          "type": "address"
        }
      ],
      "name": "OwnershipTransferred",
      "type": "event"
    },
    {
      "anonymous": false,
      "inputs": [
        {
          "indexed": false,
          "internalType": "address",
          "name": "account",
          "type": "address"
        }
      ],
      "name": "Paused",
      "type": "event"
    },
    {
      "anonymous": false,
      "inputs": [
        {
          "indexed": false,
          "internalType": "uint256",
          "name": "oldA",
          "type": "uint256"
        },
        {
          "indexed": false,
          "internalType": "uint256",
          "name": "newA",
          "type": "uint256"
        },
        {
          "indexed": false,
          "internalType": "uint256",
          "name": "initialTime",
          "type": "uint256"
        },
        {
          "indexed": false,
          "internalType": "uint256",
          "name": "futureTime",
          "type": "uint256"
        }
      ],
      "name": "RampA",
      "type": "event"
    },
    {
      "anonymous": false,
      "inputs": [
        {
          "indexed": true,
          "internalType": "address",
          "name": "provider",
          "type": "address"
        },
        {
          "indexed": false,
          "internalType": "uint256[]",
          "name": "tokenAmounts",
          "type": "uint256[]"
        },
        {
          "indexed": false,
          "internalType": "uint256",
          "name": "lpTokenSupply",
          "type": "uint256"
        }
      ],
      "name": "RemoveLiquidity",
      "type": "event"
    },
    {
      "anonymous": false,
      "inputs": [
        {
          "indexed": true,
          "internalType": "address",
          "name": "provider",
          "type": "address"
        },
        {
          "indexed": false,
          "internalType": "uint256[]",
          "name": "tokenAmounts",
          "type": "uint256[]"
        },
        {
          "indexed": false,
          "internalType": "uint256[]",
          "name": "fees",
          "type": "uint256[]"
        },
        {
          "indexed": false,
          "internalType": "uint256",
          "name": "invariant",
          "type": "uint256"
        },
        {
          "indexed": false,
          "internalType": "uint256",
          "name": "lpTokenSupply",
          "type": "uint256"
        }
      ],
      "name": "RemoveLiquidityImbalance",
      "type": "event"
    },
    {
      "anonymous": false,
      "inputs": [
        {
          "indexed": true,
          "internalType": "address",
          "name": "provider",
          "type": "address"
        },
        {
          "indexed": false,
          "internalType": "uint256",
          "name": "lpTokenAmount",
          "type": "uint256"
        },
        {
          "indexed": false,
          "internalType": "uint256",
          "name": "lpTokenSupply",
          "type": "uint256"
        },
        {
          "indexed": false,
          "internalType": "uint256",
          "name": "boughtId",
          "type": "uint256"
        },
        {
          "indexed": false,
          "internalType": "uint256",
          "name": "tokensBought",
          "type": "uint256"
        }
      ],
      "name": "RemoveLiquidityOne",
      "type": "event"
    },
    {
      "anonymous": false,
      "inputs": [
        {
          "indexed": false,
          "internalType": "uint256",
          "name": "currentA",
          "type": "uint256"
        },
        {
          "indexed": false,
          "internalType": "uint256",
          "name": "time",
          "type": "uint256"
        }
      ],
      "name": "StopRampA",
      "type": "event"
    },
    {
      "anonymous": false,
      "inputs": [
        {
          "indexed": true,
          "internalType": "address",
          "name": "buyer",
          "type": "address"
        },
        {
          "indexed": false,
          "internalType": "uint256",
          "name": "tokensSold",
          "type": "uint256"
        },
        {
          "indexed": false,
          "internalType": "uint256",
          "name": "tokensBought",
          "type": "uint256"
        },
        {
          "indexed": false,
          "internalType": "uint128",
          "name": "soldId",
          "type": "uint128"
        },
        {
          "indexed": false,
          "internalType": "uint128",
          "name": "boughtId",
          "type": "uint128"
        }
      ],
      "name": "TokenSwap",
      "type": "event"
    },
    {
      "anonymous": false,
      "inputs": [
        {
          "indexed": false,
          "internalType": "address",
          "name": "account",
          "type": "address"
        }
      ],
      "name": "Unpaused",
      "type": "event"
    },
    {
      "inputs": [
        {
          "internalType": "uint256[]",
          "name": "amounts",
          "type": "uint256[]"
        },
        {
          "internalType": "uint256",
          "name": "minToMint",
          "type": "uint256"
        },
        {
          "internalType": "uint256",
          "name": "deadline",
          "type": "uint256"
        }
      ],
      "name": "addLiquidity",
      "outputs": [
        {
          "internalType": "uint256",
          "name": "",
          "type": "uint256"
        }
      ],
      "stateMutability": "payable",
      "type": "function"
    },
    {
      "inputs": [
        {
          "internalType": "uint256",
          "name": "amount",
          "type": "uint256"
        }
      ],
      "name": "calculateRemoveLiquidity",
      "outputs": [
        {
          "internalType": "uint256[]",
          "name": "",
          "type": "uint256[]"
        }
      ],
      "stateMutability": "view",
      "type": "function"
    },
    {
      "inputs": [
        {
          "internalType": "uint256",
          "name": "tokenAmount",
          "type": "uint256"
        },
        {
          "internalType": "uint8",
          "name": "tokenIndex",
          "type": "uint8"
        }
      ],
      "name": "calculateRemoveLiquidityOneToken",
      "outputs": [
        {
          "internalType": "uint256",
          "name": "availableTokenAmount",
          "type": "uint256"
        }
      ],
      "stateMutability": "view",
      "type": "function"
    },
    {
      "inputs": [
        {
          "internalType": "uint8",
          "name": "tokenIndexFrom",
          "type": "uint8"
        },
        {
          "internalType": "uint8",
          "name": "tokenIndexTo",
          "type": "uint8"
        },
        {
          "internalType": "uint256",
          "name": "dx",
          "type": "uint256"
        }
      ],
      "name": "calculateSwap",
      "outputs": [
        {
          "internalType": "uint256",
          "name": "",
          "type": "uint256"
        }
      ],
      "stateMutability": "view",
      "type": "function"
    },
    {
      "inputs": [
        {
          "internalType": "uint256[]",
          "name": "amounts",
          "type": "uint256[]"
        },
        {
          "internalType": "bool",
          "name": "deposit",
          "type": "bool"
        }
      ],
      "name": "calculateTokenAmount",
      "outputs": [
        {
          "internalType": "uint256",
          "name": "",
          "type": "uint256"
        }
      ],
      "stateMutability": "view",
      "type": "function"
    },
    {
      "inputs": [],
      "name": "getA",
      "outputs": [
        {
          "internalType": "uint256",
          "name": "",
          "type": "uint256"
        }
      ],
      "stateMutability": "view",
      "type": "function"
    },
    {
      "inputs": [],
      "name": "getAPrecise",
      "outputs": [
        {
          "internalType": "uint256",
          "name": "",
          "type": "uint256"
        }
      ],
      "stateMutability": "view",
      "type": "function"
    },
    {
      "inputs": [
        {
          "internalType": "uint256",
          "name": "index",
          "type": "uint256"
        }
      ],
      "name": "getAdminBalance",
      "outputs": [
        {
          "internalType": "uint256",
          "name": "",
          "type": "uint256"
        }
      ],
      "stateMutability": "view",
      "type": "function"
    },
    {
      "inputs": [],
      "name": "getDebt",
      "outputs": [
        {
          "internalType": "uint256",
          "name": "",
          "type": "uint256"
        }
      ],
      "stateMutability": "view",
      "type": "function"
    },
    {
      "inputs": [],
      "name": "getERC1155",
      "outputs": [
        {
          "internalType": "address",
          "name": "",
          "type": "address"
        }
      ],
      "stateMutability": "view",
      "type": "function"
    },
    {
      "inputs": [],
      "name": "getToken",
      "outputs": [
        {
          "internalType": "uint256",
          "name": "",
          "type": "uint256"
        }
      ],
      "stateMutability": "view",
      "type": "function"
    },
    {
      "inputs": [
        {
          "internalType": "uint8",
          "name": "index",
          "type": "uint8"
        }
      ],
      "name": "getTokenBalance",
      "outputs": [
        {
          "internalType": "uint256",
          "name": "",
          "type": "uint256"
        }
      ],
      "stateMutability": "view",
      "type": "function"
    },
    {
      "inputs": [],
      "name": "getVirtualPrice",
      "outputs": [
        {
          "internalType": "uint256",
          "name": "",
          "type": "uint256"
        }
      ],
      "stateMutability": "view",
      "type": "function"
    },
    {
      "inputs": [
        {
          "internalType": "address",
          "name": "_gAvax",
          "type": "address"
        },
        {
          "internalType": "uint256",
          "name": "_pooledTokenId",
          "type": "uint256"
        },
        {
          "internalType": "string",
          "name": "lpTokenName",
          "type": "string"
        },
        {
          "internalType": "string",
          "name": "lpTokenSymbol",
          "type": "string"
        },
        {
          "internalType": "uint256",
          "name": "_a",
          "type": "uint256"
        },
        {
          "internalType": "uint256",
          "name": "_fee",
          "type": "uint256"
        },
        {
          "internalType": "uint256",
          "name": "_adminFee",
          "type": "uint256"
        },
        {
          "internalType": "address",
          "name": "lpTokenTargetAddress",
          "type": "address"
        }
      ],
      "name": "initialize",
      "outputs": [
        {
          "internalType": "address",
          "name": "",
          "type": "address"
        }
      ],
      "stateMutability": "nonpayable",
      "type": "function"
    },
    {
      "inputs": [
        {
          "internalType": "address",
          "name": "",
          "type": "address"
        },
        {
          "internalType": "address",
          "name": "",
          "type": "address"
        },
        {
          "internalType": "uint256[]",
          "name": "",
          "type": "uint256[]"
        },
        {
          "internalType": "uint256[]",
          "name": "",
          "type": "uint256[]"
        },
        {
          "internalType": "bytes",
          "name": "",
          "type": "bytes"
        }
      ],
      "name": "onERC1155BatchReceived",
      "outputs": [
        {
          "internalType": "bytes4",
          "name": "",
          "type": "bytes4"
        }
      ],
      "stateMutability": "nonpayable",
      "type": "function"
    },
    {
      "inputs": [
        {
          "internalType": "address",
          "name": "",
          "type": "address"
        },
        {
          "internalType": "address",
          "name": "",
          "type": "address"
        },
        {
          "internalType": "uint256",
          "name": "",
          "type": "uint256"
        },
        {
          "internalType": "uint256",
          "name": "",
          "type": "uint256"
        },
        {
          "internalType": "bytes",
          "name": "",
          "type": "bytes"
        }
      ],
      "name": "onERC1155Received",
      "outputs": [
        {
          "internalType": "bytes4",
          "name": "",
          "type": "bytes4"
        }
      ],
      "stateMutability": "nonpayable",
      "type": "function"
    },
    {
      "inputs": [],
      "name": "owner",
      "outputs": [
        {
          "internalType": "address",
          "name": "",
          "type": "address"
        }
      ],
      "stateMutability": "view",
      "type": "function"
    },
    {
      "inputs": [],
      "name": "pause",
      "outputs": [],
      "stateMutability": "nonpayable",
      "type": "function"
    },
    {
      "inputs": [],
      "name": "paused",
      "outputs": [
        {
          "internalType": "bool",
          "name": "",
          "type": "bool"
        }
      ],
      "stateMutability": "view",
      "type": "function"
    },
    {
      "inputs": [
        {
          "internalType": "uint256",
          "name": "futureA",
          "type": "uint256"
        },
        {
          "internalType": "uint256",
          "name": "futureTime",
          "type": "uint256"
        }
      ],
      "name": "rampA",
      "outputs": [],
      "stateMutability": "nonpayable",
      "type": "function"
    },
    {
      "inputs": [
        {
          "internalType": "uint256",
          "name": "amount",
          "type": "uint256"
        },
        {
          "internalType": "uint256[]",
          "name": "minAmounts",
          "type": "uint256[]"
        },
        {
          "internalType": "uint256",
          "name": "deadline",
          "type": "uint256"
        }
      ],
      "name": "removeLiquidity",
      "outputs": [
        {
          "internalType": "uint256[]",
          "name": "",
          "type": "uint256[]"
        }
      ],
      "stateMutability": "nonpayable",
      "type": "function"
    },
    {
      "inputs": [
        {
          "internalType": "uint256[]",
          "name": "amounts",
          "type": "uint256[]"
        },
        {
          "internalType": "uint256",
          "name": "maxBurnAmount",
          "type": "uint256"
        },
        {
          "internalType": "uint256",
          "name": "deadline",
          "type": "uint256"
        }
      ],
      "name": "removeLiquidityImbalance",
      "outputs": [
        {
          "internalType": "uint256",
          "name": "",
          "type": "uint256"
        }
      ],
      "stateMutability": "nonpayable",
      "type": "function"
    },
    {
      "inputs": [
        {
          "internalType": "uint256",
          "name": "tokenAmount",
          "type": "uint256"
        },
        {
          "internalType": "uint8",
          "name": "tokenIndex",
          "type": "uint8"
        },
        {
          "internalType": "uint256",
          "name": "minAmount",
          "type": "uint256"
        },
        {
          "internalType": "uint256",
          "name": "deadline",
          "type": "uint256"
        }
      ],
      "name": "removeLiquidityOneToken",
      "outputs": [
        {
          "internalType": "uint256",
          "name": "",
          "type": "uint256"
        }
      ],
      "stateMutability": "nonpayable",
      "type": "function"
    },
    {
      "inputs": [],
      "name": "renounceOwnership",
      "outputs": [],
      "stateMutability": "nonpayable",
      "type": "function"
    },
    {
      "inputs": [
        {
          "internalType": "uint256",
          "name": "newAdminFee",
          "type": "uint256"
        }
      ],
      "name": "setAdminFee",
      "outputs": [],
      "stateMutability": "nonpayable",
      "type": "function"
    },
    {
      "inputs": [
        {
          "internalType": "uint256",
          "name": "newSwapFee",
          "type": "uint256"
        }
      ],
      "name": "setSwapFee",
      "outputs": [],
      "stateMutability": "nonpayable",
      "type": "function"
    },
    {
      "inputs": [],
      "name": "stopRampA",
      "outputs": [],
      "stateMutability": "nonpayable",
      "type": "function"
    },
    {
      "inputs": [
        {
          "internalType": "bytes4",
          "name": "interfaceId",
          "type": "bytes4"
        }
      ],
      "name": "supportsInterface",
      "outputs": [
        {
          "internalType": "bool",
          "name": "",
          "type": "bool"
        }
      ],
      "stateMutability": "view",
      "type": "function"
    },
    {
      "inputs": [
        {
          "internalType": "uint8",
          "name": "tokenIndexFrom",
          "type": "uint8"
        },
        {
          "internalType": "uint8",
          "name": "tokenIndexTo",
          "type": "uint8"
        },
        {
          "internalType": "uint256",
          "name": "dx",
          "type": "uint256"
        },
        {
          "internalType": "uint256",
          "name": "minDy",
          "type": "uint256"
        },
        {
          "internalType": "uint256",
          "name": "deadline",
          "type": "uint256"
        }
      ],
      "name": "swap",
      "outputs": [
        {
          "internalType": "uint256",
          "name": "",
          "type": "uint256"
        }
      ],
      "stateMutability": "payable",
      "type": "function"
    },
    {
      "inputs": [],
      "name": "swapStorage",
      "outputs": [
        {
          "internalType": "uint256",
          "name": "initialA",
          "type": "uint256"
        },
        {
          "internalType": "uint256",
          "name": "futureA",
          "type": "uint256"
        },
        {
          "internalType": "uint256",
          "name": "initialATime",
          "type": "uint256"
        },
        {
          "internalType": "uint256",
          "name": "futureATime",
          "type": "uint256"
        },
        {
          "internalType": "uint256",
          "name": "swapFee",
          "type": "uint256"
        },
        {
          "internalType": "uint256",
          "name": "adminFee",
          "type": "uint256"
        },
        {
          "internalType": "contract LPToken",
          "name": "lpToken",
          "type": "address"
        },
        {
          "internalType": "uint256",
          "name": "pooledTokenId",
          "type": "uint256"
        },
        {
          "internalType": "contract IgAVAX",
          "name": "referenceForPooledTokens",
          "type": "address"
        }
      ],
      "stateMutability": "view",
      "type": "function"
    },
    {
      "inputs": [
        {
          "internalType": "address",
          "name": "newOwner",
          "type": "address"
        }
      ],
      "name": "transferOwnership",
      "outputs": [],
      "stateMutability": "nonpayable",
      "type": "function"
    },
    {
      "inputs": [],
      "name": "unpause",
      "outputs": [],
      "stateMutability": "nonpayable",
      "type": "function"
    },
    {
      "inputs": [],
      "name": "withdrawAdminFees",
      "outputs": [],
      "stateMutability": "nonpayable",
      "type": "function"
    }
  ],
  "transactionHash": "0x1833bce6265f43a01fab2a4126a083a4ac311ece3cce3261e07deab5e77afbb0",
  "args": [],
  "solcInputHash": "492b8174343aef947d9cd2113004784d",
  "bytecode": "0x608060405234801561001057600080fd5b5061252b806100206000396000f3fe6080604052600436106101ee5760003560e01c8063715018a61161010d578063bc197c81116100a0578063e6ab28061161006f578063e6ab2806146105cb578063ef0a712f146105eb578063f23a6e611461060b578063f2fad2b614610637578063f2fde38b1461065757600080fd5b8063bc197c8114610547578063c4db7fa01461058c578063d46300fd146105a1578063e25aa5fa146105b657600080fd5b80638da5cb5b116100dc5780638da5cb5b146104d657806391695586146104f457806391ceb3eb14610507578063a95b089f1461052757600080fd5b8063715018a61461046c5780638456cb591461048157806384cdd9bc146104965780638beb60b6146104b657600080fd5b8063342a87a1116101855780634d49e87d116101545780634d49e87d14610382578063593d132c146103955780635c975abb146103b55780635fd65f0f146103cd57600080fd5b8063342a87a11461030d57806334e199071461032d5780633e3a15601461034d5780633f4ba83a1461036d57600080fd5b806314a6bf0f116101c157806314a6bf0f1461029557806321df0da7146102aa578063303e9bea146102c057806331cd52b0146102e057600080fd5b806301ffc9a7146101f35780630419b45a146102285780630526930c1461023f5780630ba8195914610272575b600080fd5b3480156101ff57600080fd5b5061021361020e366004611fd5565b610677565b60405190151581526020015b60405180910390f35b34801561023457600080fd5b5061023d6106ae565b005b34801561024b57600080fd5b50610167546001600160a01b03165b6040516001600160a01b03909116815260200161021f565b34801561027e57600080fd5b5061028761079c565b60405190815260200161021f565b3480156102a157600080fd5b50610287610829565b3480156102b657600080fd5b5061016654610287565b3480156102cc57600080fd5b5061025a6102db366004611dcc565b610865565b3480156102ec57600080fd5b506103006102fb366004612031565b610c73565b60405161021f9190612234565b34801561031957600080fd5b506102876103283660046120a6565b610d60565b34801561033957600080fd5b5061023d610348366004611fff565b610dfe565b34801561035957600080fd5b506102876103683660046120d2565b610e97565b34801561037957600080fd5b5061023d610fa1565b610287610390366004611ecf565b610fd5565b3480156103a157600080fd5b5061023d6103b0366004612084565b611082565b3480156103c157600080fd5b5060655460ff16610213565b3480156103d957600080fd5b5061015f546101605461016154610162546101635461016454610165546101665461016754610419989796959493926001600160a01b0390811692911689565b60408051998a5260208a0198909852968801959095526060870193909352608086019190915260a08501526001600160a01b0390811660c085015260e0840191909152166101008201526101200161021f565b34801561047857600080fd5b5061023d611122565b34801561048d57600080fd5b5061023d611156565b3480156104a257600080fd5b506102876104b1366004611ecf565b611188565b3480156104c257600080fd5b5061023d6104d1366004611fff565b611235565b3480156104e257600080fd5b506033546001600160a01b031661025a565b610287610502366004612164565b61129f565b34801561051357600080fd5b5061028761052236600461210d565b6113c0565b34801561053357600080fd5b50610287610542366004612128565b61143f565b34801561055357600080fd5b50610573610562366004611cbd565b63bc197c8160e01b95945050505050565b6040516001600160e01b0319909116815260200161021f565b34801561059857600080fd5b5061023d6114e7565b3480156105ad57600080fd5b50610287611577565b3480156105c257600080fd5b506102876115b3565b3480156105d757600080fd5b506102876105e6366004611e78565b6115ef565b3480156105f757600080fd5b50610287610606366004611fff565b611631565b34801561061757600080fd5b50610573610626366004611d67565b63f23a6e6160e01b95945050505050565b34801561064357600080fd5b50610300610652366004611fff565b6116bf565b34801561066357600080fd5b5061023d610672366004611ca2565b611751565b60006001600160e01b03198216630271189760e51b14806106a857506301ffc9a760e01b6001600160e01b03198316145b92915050565b6033546001600160a01b031633146106e15760405162461bcd60e51b81526004016106d8906122d0565b60405180910390fd5b600260975414156107045760405162461bcd60e51b81526004016106d890612380565b600260975573147a5A66414510fD08f7c522f6D03676E2D808E56324c5c75161015f6107386033546001600160a01b031690565b6040516001600160e01b031960e085901b16815260048101929092526001600160a01b0316602482015260440160006040518083038186803b15801561077d57600080fd5b505af4158015610791573d6000803e3d6000fd5b505060016097555050565b60405163c9b64dcb60e01b815261015f600482015260009073dd2d19B816cc83fF841129D144A6a89A4b1fB3499063c9b64dcb906024015b60206040518083038186803b1580156107ec57600080fd5b505af4158015610800573d6000803e3d6000fd5b505050506040513d601f19601f820116820180604052508101906108249190612018565b905090565b60405163550670c360e11b815261015f600482015260009073147a5A66414510fD08f7c522f6D03676E2D808E59063aa0ce186906024016107d4565b60008054610100900460ff166108815760005460ff1615610885565b303b155b6108e85760405162461bcd60e51b815260206004820152602e60248201527f496e697469616c697a61626c653a20636f6e747261637420697320616c72656160448201526d191e481a5b9a5d1a585b1a5e995960921b60648201526084016106d8565b600054610100900460ff1615801561090a576000805461ffff19166101011790555b6109126117ec565b61091a61182b565b61092261185a565b6001600160a01b03831661098b5760405162461bcd60e51b815260206004820152602a60248201527f537761703a206c70546f6b656e546172676574416464726573732063616e206e6044820152696f74206265207a65726f60b01b60648201526084016106d8565b6001600160a01b038a166109e15760405162461bcd60e51b815260206004820152601c60248201527f537761703a205f67417661782063616e206e6f74206265207a65726f0000000060448201526064016106d8565b620f42408610610a335760405162461bcd60e51b815260206004820152601860248201527f537761703a205f612065786365656473206d6178696d756d000000000000000060448201526064016106d8565b6305f5e1008510610a865760405162461bcd60e51b815260206004820152601a60248201527f537761703a205f6665652065786365656473206d6178696d756d00000000000060448201526064016106d8565b6402540be4008410610ada5760405162461bcd60e51b815260206004820152601f60248201527f537761703a205f61646d696e4665652065786365656473206d6178696d756d0060448201526064016106d8565b6000610ae584611881565b60405163266c45bb60e11b81529091506001600160a01b03821690634cd88b7690610b16908c908c90600401612278565b602060405180830381600087803b158015610b3057600080fd5b505af1158015610b44573d6000803e3d6000fd5b505050506040513d601f19601f82011682018060405250810190610b689190611fb8565b610bbf5760405162461bcd60e51b815260206004820152602260248201527f537761703a20636f756c64206e6f7420696e6974206c70546f6b656e20636c6f6044820152616e6560f01b60648201526084016106d8565b61016580546001600160a01b038381166001600160a01b0319928316179092556101678054928e16929091169190911790556101668a9055604080516002808252606082018352909160208301908036833750508151610c2792610168925060200190611aec565b50610c3360648861248e565b61015f55610c4260648861248e565b6101605561016386905561016485905591508015610c66576000805461ff00191690555b5098975050505050505050565b606060026097541415610c985760405162461bcd60e51b81526004016106d890612380565b60026097558142811015610cbe5760405162461bcd60e51b81526004016106d890612350565b6040516339feb59f60e11b815273147a5A66414510fD08f7c522f6D03676E2D808E5906373fd6b3e90610cfd9061015f908a908a908a9060040161240f565b60006040518083038186803b158015610d1557600080fd5b505af4158015610d29573d6000803e3d6000fd5b505050506040513d6000823e601f3d908101601f19168201604052610d519190810190611f20565b60016097559695505050505050565b60405163703493a160e11b815261015f60048201526024810183905260ff8216604482015260009073147a5A66414510fD08f7c522f6D03676E2D808E59063e06927429060640160206040518083038186803b158015610dbf57600080fd5b505af4158015610dd3573d6000803e3d6000fd5b505050506040513d601f19601f82011682018060405250810190610df79190612018565b9392505050565b6033546001600160a01b03163314610e285760405162461bcd60e51b81526004016106d8906122d0565b60405163119f861b60e21b815261015f60048201526024810182905273147a5A66414510fD08f7c522f6D03676E2D808E59063467e186c906044015b60006040518083038186803b158015610e7c57600080fd5b505af4158015610e90573d6000803e3d6000fd5b5050505050565b600060026097541415610ebc5760405162461bcd60e51b81526004016106d890612380565b600260975560655460ff1615610ee45760405162461bcd60e51b81526004016106d8906122a6565b8180421115610f055760405162461bcd60e51b81526004016106d890612350565b60405163e7a4db8160e01b815261015f60048201526024810187905260ff861660448201526064810185905273147a5A66414510fD08f7c522f6D03676E2D808E59063e7a4db81906084015b60206040518083038186803b158015610f6957600080fd5b505af4158015610f7d573d6000803e3d6000fd5b505050506040513d601f19601f82011682018060405250810190610d519190612018565b6033546001600160a01b03163314610fcb5760405162461bcd60e51b81526004016106d8906122d0565b610fd361191e565b565b600060026097541415610ffa5760405162461bcd60e51b81526004016106d890612380565b600260975560655460ff16156110225760405162461bcd60e51b81526004016106d8906122a6565b81804211156110435760405162461bcd60e51b81526004016106d890612350565b6040516340370edf60e01b815273147a5A66414510fD08f7c522f6D03676E2D808E5906340370edf90610f519061015f908a908a908a906004016123e4565b6033546001600160a01b031633146110ac5760405162461bcd60e51b81526004016106d8906122d0565b6040516358fdd79b60e01b815261015f6004820152602481018390526044810182905273dd2d19B816cc83fF841129D144A6a89A4b1fB349906358fdd79b9060640160006040518083038186803b15801561110657600080fd5b505af415801561111a573d6000803e3d6000fd5b505050505050565b6033546001600160a01b0316331461114c5760405162461bcd60e51b81526004016106d8906122d0565b610fd360006119b1565b6033546001600160a01b031633146111805760405162461bcd60e51b81526004016106d8906122d0565b610fd3611a03565b6000600260975414156111ad5760405162461bcd60e51b81526004016106d890612380565b600260975560655460ff16156111d55760405162461bcd60e51b81526004016106d8906122a6565b81804211156111f65760405162461bcd60e51b81526004016106d890612350565b6040516320dc8e1360e11b815273147a5A66414510fD08f7c522f6D03676E2D808E5906341b91c2690610f519061015f908a908a908a906004016123e4565b6033546001600160a01b0316331461125f5760405162461bcd60e51b81526004016106d8906122d0565b604051633823393b60e11b815261015f60048201526024810182905273147a5A66414510fD08f7c522f6D03676E2D808E590637046727690604401610e64565b6000600260975414156112c45760405162461bcd60e51b81526004016106d890612380565b600260975560655460ff16156112ec5760405162461bcd60e51b81526004016106d8906122a6565b818042111561130d5760405162461bcd60e51b81526004016106d890612350565b60405163529cbd9160e11b815261015f600482015260ff808916602483015287166044820152606481018690526084810185905273147a5A66414510fD08f7c522f6D03676E2D808E59063a5397b229060a40160206040518083038186803b15801561137857600080fd5b505af415801561138c573d6000803e3d6000fd5b505050506040513d601f19601f820116820180604052508101906113b09190612018565b6001609755979650505050505050565b600060028260ff16106114155760405162461bcd60e51b815260206004820152601860248201527f537761703a20496e646578206f7574206f662072616e6765000000000000000060448201526064016106d8565b610168805460ff841690811061142d5761142d6124bb565b90600052602060002001549050919050565b6040516312c8d80f60e21b815261015f600482015260ff8085166024830152831660448201526064810182905260009073147a5A66414510fD08f7c522f6D03676E2D808E590634b23603c906084015b60206040518083038186803b1580156114a757600080fd5b505af41580156114bb573d6000803e3d6000fd5b505050506040513d601f19601f820116820180604052508101906114df9190612018565b949350505050565b6033546001600160a01b031633146115115760405162461bcd60e51b81526004016106d8906122d0565b6040516378a7108f60e11b815261015f600482015273dd2d19B816cc83fF841129D144A6a89A4b1fB3499063f14e211e9060240160006040518083038186803b15801561155d57600080fd5b505af4158015611571573d6000803e3d6000fd5b50505050565b604051632c28533f60e21b815261015f600482015260009073dd2d19B816cc83fF841129D144A6a89A4b1fB3499063b0a14cfc906024016107d4565b604051631c641b0b60e21b815261015f600482015260009073147a5A66414510fD08f7c522f6D03676E2D808E5906371906c2c906024016107d4565b604051630834b49160e41b815260009073147a5A66414510fD08f7c522f6D03676E2D808E59063834b49109061148f9061015f908890889088906004016123b7565b6040516303e8240b60e51b815261015f60048201526024810182905260009073147a5A66414510fD08f7c522f6D03676E2D808E590637d0481609060440160206040518083038186803b15801561168757600080fd5b505af415801561169b573d6000803e3d6000fd5b505050506040513d601f19601f820116820180604052508101906106a89190612018565b6040516338381f2560e11b815261015f60048201526024810182905260609073147a5A66414510fD08f7c522f6D03676E2D808E5906370703e4a9060440160006040518083038186803b15801561171557600080fd5b505af4158015611729573d6000803e3d6000fd5b505050506040513d6000823e601f3d908101601f191682016040526106a89190810190611f20565b6033546001600160a01b0316331461177b5760405162461bcd60e51b81526004016106d8906122d0565b6001600160a01b0381166117e05760405162461bcd60e51b815260206004820152602660248201527f4f776e61626c653a206e6577206f776e657220697320746865207a65726f206160448201526564647265737360d01b60648201526084016106d8565b6117e9816119b1565b50565b600054610100900460ff166118135760405162461bcd60e51b81526004016106d890612305565b61181b61185a565b611823611a5b565b610fd3611a8b565b600054610100900460ff166118525760405162461bcd60e51b81526004016106d890612305565b610fd3611abe565b600054610100900460ff16610fd35760405162461bcd60e51b81526004016106d890612305565b6000604051733d602d80600a3d3981f3363d3d373d3d3d363d7360601b81528260601b60148201526e5af43d82803e903d91602b57fd5bf360881b60288201526037816000f09150506001600160a01b0381166119195760405162461bcd60e51b8152602060048201526016602482015275115490cc4c4d8dce8818dc99585d194819985a5b195960521b60448201526064016106d8565b919050565b60655460ff166119675760405162461bcd60e51b815260206004820152601460248201527314185d5cd8589b194e881b9bdd081c185d5cd95960621b60448201526064016106d8565b6065805460ff191690557f5db9ee0a495bf2e6ff9c91a7834c1ba4fdd244a5e8aa4e537bd38aeae4b073aa335b6040516001600160a01b03909116815260200160405180910390a1565b603380546001600160a01b038381166001600160a01b0319831681179093556040519116919082907f8be0079c531659141344cd1fd0a4f28419497f9722a3daafe3b4186f6b6457e090600090a35050565b60655460ff1615611a265760405162461bcd60e51b81526004016106d8906122a6565b6065805460ff191660011790557f62e78cea01bee320cd4e420270b5ea74000d11b0c9f74754ebdbfc544b05a2586119943390565b600054610100900460ff16611a825760405162461bcd60e51b81526004016106d890612305565b610fd3336119b1565b600054610100900460ff16611ab25760405162461bcd60e51b81526004016106d890612305565b6065805460ff19169055565b600054610100900460ff16611ae55760405162461bcd60e51b81526004016106d890612305565b6001609755565b828054828255906000526020600020908101928215611b27579160200282015b82811115611b27578251825591602001919060010190611b0c565b50611b33929150611b37565b5090565b5b80821115611b335760008155600101611b38565b80356001600160a01b038116811461191957600080fd5b60008083601f840112611b7557600080fd5b50813567ffffffffffffffff811115611b8d57600080fd5b6020830191508360208260051b8501011115611ba857600080fd5b9250929050565b600082601f830112611bc057600080fd5b81356020611bd5611bd08361246a565b612439565b80838252828201915082860187848660051b8901011115611bf557600080fd5b60005b85811015611c1457813584529284019290840190600101611bf8565b5090979650505050505050565b600082601f830112611c3257600080fd5b813567ffffffffffffffff811115611c4c57611c4c6124d1565b611c5f601f8201601f1916602001612439565b818152846020838601011115611c7457600080fd5b816020850160208301376000918101602001919091529392505050565b803560ff8116811461191957600080fd5b600060208284031215611cb457600080fd5b610df782611b4c565b600080600080600060a08688031215611cd557600080fd5b611cde86611b4c565b9450611cec60208701611b4c565b9350604086013567ffffffffffffffff80821115611d0957600080fd5b611d1589838a01611baf565b94506060880135915080821115611d2b57600080fd5b611d3789838a01611baf565b93506080880135915080821115611d4d57600080fd5b50611d5a88828901611c21565b9150509295509295909350565b600080600080600060a08688031215611d7f57600080fd5b611d8886611b4c565b9450611d9660208701611b4c565b93506040860135925060608601359150608086013567ffffffffffffffff811115611dc057600080fd5b611d5a88828901611c21565b600080600080600080600080610100898b031215611de957600080fd5b611df289611b4c565b975060208901359650604089013567ffffffffffffffff80821115611e1657600080fd5b611e228c838d01611c21565b975060608b0135915080821115611e3857600080fd5b50611e458b828c01611c21565b9550506080890135935060a0890135925060c08901359150611e6960e08a01611b4c565b90509295985092959890939650565b600080600060408486031215611e8d57600080fd5b833567ffffffffffffffff811115611ea457600080fd5b611eb086828701611b63565b9094509250506020840135611ec4816124e7565b809150509250925092565b60008060008060608587031215611ee557600080fd5b843567ffffffffffffffff811115611efc57600080fd5b611f0887828801611b63565b90989097506020870135966040013595509350505050565b60006020808385031215611f3357600080fd5b825167ffffffffffffffff811115611f4a57600080fd5b8301601f81018513611f5b57600080fd5b8051611f69611bd08261246a565b80828252848201915084840188868560051b8701011115611f8957600080fd5b600094505b83851015611fac578051835260019490940193918501918501611f8e565b50979650505050505050565b600060208284031215611fca57600080fd5b8151610df7816124e7565b600060208284031215611fe757600080fd5b81356001600160e01b031981168114610df757600080fd5b60006020828403121561201157600080fd5b5035919050565b60006020828403121561202a57600080fd5b5051919050565b6000806000806060858703121561204757600080fd5b84359350602085013567ffffffffffffffff81111561206557600080fd5b61207187828801611b63565b9598909750949560400135949350505050565b6000806040838503121561209757600080fd5b50508035926020909101359150565b600080604083850312156120b957600080fd5b823591506120c960208401611c91565b90509250929050565b600080600080608085870312156120e857600080fd5b843593506120f860208601611c91565b93969395505050506040820135916060013590565b60006020828403121561211f57600080fd5b610df782611c91565b60008060006060848603121561213d57600080fd5b61214684611c91565b925061215460208501611c91565b9150604084013590509250925092565b600080600080600060a0868803121561217c57600080fd5b61218586611c91565b945061219360208701611c91565b94979496505050506040830135926060810135926080909101359150565b81835260006001600160fb1b038311156121ca57600080fd5b8260051b8083602087013760009401602001938452509192915050565b6000815180845260005b8181101561220d576020818501810151868301820152016121f1565b8181111561221f576000602083870101525b50601f01601f19169290920160200192915050565b6020808252825182820181905260009190848201906040850190845b8181101561226c57835183529284019291840191600101612250565b50909695505050505050565b60408152600061228b60408301856121e7565b828103602084015261229d81856121e7565b95945050505050565b60208082526010908201526f14185d5cd8589b194e881c185d5cd95960821b604082015260600190565b6020808252818101527f4f776e61626c653a2063616c6c6572206973206e6f7420746865206f776e6572604082015260600190565b6020808252602b908201527f496e697469616c697a61626c653a20636f6e7472616374206973206e6f74206960408201526a6e697469616c697a696e6760a81b606082015260800190565b60208082526016908201527514ddd85c0e88111958591b1a5b99481b9bdd081b595d60521b604082015260600190565b6020808252601f908201527f5265656e7472616e637947756172643a207265656e7472616e742063616c6c00604082015260600190565b8481526060602082015260006123d16060830185876121b1565b9050821515604083015295945050505050565b8481526060602082015260006123fe6060830185876121b1565b905082604083015295945050505050565b84815283602082015260606040820152600061242f6060830184866121b1565b9695505050505050565b604051601f8201601f1916810167ffffffffffffffff81118282101715612462576124626124d1565b604052919050565b600067ffffffffffffffff821115612484576124846124d1565b5060051b60200190565b60008160001904831182151516156124b657634e487b7160e01b600052601160045260246000fd5b500290565b634e487b7160e01b600052603260045260246000fd5b634e487b7160e01b600052604160045260246000fd5b80151581146117e957600080fdfea2646970667358221220159d223cad1f6d4bdcb5b923eb67804637b525b907a883896d7ec4b07004e3f664736f6c63430008070033",
  "deployedBytecode": "0x6080604052600436106101ee5760003560e01c8063715018a61161010d578063bc197c81116100a0578063e6ab28061161006f578063e6ab2806146105cb578063ef0a712f146105eb578063f23a6e611461060b578063f2fad2b614610637578063f2fde38b1461065757600080fd5b8063bc197c8114610547578063c4db7fa01461058c578063d46300fd146105a1578063e25aa5fa146105b657600080fd5b80638da5cb5b116100dc5780638da5cb5b146104d657806391695586146104f457806391ceb3eb14610507578063a95b089f1461052757600080fd5b8063715018a61461046c5780638456cb591461048157806384cdd9bc146104965780638beb60b6146104b657600080fd5b8063342a87a1116101855780634d49e87d116101545780634d49e87d14610382578063593d132c146103955780635c975abb146103b55780635fd65f0f146103cd57600080fd5b8063342a87a11461030d57806334e199071461032d5780633e3a15601461034d5780633f4ba83a1461036d57600080fd5b806314a6bf0f116101c157806314a6bf0f1461029557806321df0da7146102aa578063303e9bea146102c057806331cd52b0146102e057600080fd5b806301ffc9a7146101f35780630419b45a146102285780630526930c1461023f5780630ba8195914610272575b600080fd5b3480156101ff57600080fd5b5061021361020e366004611fd5565b610677565b60405190151581526020015b60405180910390f35b34801561023457600080fd5b5061023d6106ae565b005b34801561024b57600080fd5b50610167546001600160a01b03165b6040516001600160a01b03909116815260200161021f565b34801561027e57600080fd5b5061028761079c565b60405190815260200161021f565b3480156102a157600080fd5b50610287610829565b3480156102b657600080fd5b5061016654610287565b3480156102cc57600080fd5b5061025a6102db366004611dcc565b610865565b3480156102ec57600080fd5b506103006102fb366004612031565b610c73565b60405161021f9190612234565b34801561031957600080fd5b506102876103283660046120a6565b610d60565b34801561033957600080fd5b5061023d610348366004611fff565b610dfe565b34801561035957600080fd5b506102876103683660046120d2565b610e97565b34801561037957600080fd5b5061023d610fa1565b610287610390366004611ecf565b610fd5565b3480156103a157600080fd5b5061023d6103b0366004612084565b611082565b3480156103c157600080fd5b5060655460ff16610213565b3480156103d957600080fd5b5061015f546101605461016154610162546101635461016454610165546101665461016754610419989796959493926001600160a01b0390811692911689565b60408051998a5260208a0198909852968801959095526060870193909352608086019190915260a08501526001600160a01b0390811660c085015260e0840191909152166101008201526101200161021f565b34801561047857600080fd5b5061023d611122565b34801561048d57600080fd5b5061023d611156565b3480156104a257600080fd5b506102876104b1366004611ecf565b611188565b3480156104c257600080fd5b5061023d6104d1366004611fff565b611235565b3480156104e257600080fd5b506033546001600160a01b031661025a565b610287610502366004612164565b61129f565b34801561051357600080fd5b5061028761052236600461210d565b6113c0565b34801561053357600080fd5b50610287610542366004612128565b61143f565b34801561055357600080fd5b50610573610562366004611cbd565b63bc197c8160e01b95945050505050565b6040516001600160e01b0319909116815260200161021f565b34801561059857600080fd5b5061023d6114e7565b3480156105ad57600080fd5b50610287611577565b3480156105c257600080fd5b506102876115b3565b3480156105d757600080fd5b506102876105e6366004611e78565b6115ef565b3480156105f757600080fd5b50610287610606366004611fff565b611631565b34801561061757600080fd5b50610573610626366004611d67565b63f23a6e6160e01b95945050505050565b34801561064357600080fd5b50610300610652366004611fff565b6116bf565b34801561066357600080fd5b5061023d610672366004611ca2565b611751565b60006001600160e01b03198216630271189760e51b14806106a857506301ffc9a760e01b6001600160e01b03198316145b92915050565b6033546001600160a01b031633146106e15760405162461bcd60e51b81526004016106d8906122d0565b60405180910390fd5b600260975414156107045760405162461bcd60e51b81526004016106d890612380565b600260975573__$448d8c99c2b5f0846b4261f659b27b06a5$__6324c5c75161015f6107386033546001600160a01b031690565b6040516001600160e01b031960e085901b16815260048101929092526001600160a01b0316602482015260440160006040518083038186803b15801561077d57600080fd5b505af4158015610791573d6000803e3d6000fd5b505060016097555050565b60405163c9b64dcb60e01b815261015f600482015260009073__$4aa99cb4be417509a27b6ba264f02cc855$__9063c9b64dcb906024015b60206040518083038186803b1580156107ec57600080fd5b505af4158015610800573d6000803e3d6000fd5b505050506040513d601f19601f820116820180604052508101906108249190612018565b905090565b60405163550670c360e11b815261015f600482015260009073__$448d8c99c2b5f0846b4261f659b27b06a5$__9063aa0ce186906024016107d4565b60008054610100900460ff166108815760005460ff1615610885565b303b155b6108e85760405162461bcd60e51b815260206004820152602e60248201527f496e697469616c697a61626c653a20636f6e747261637420697320616c72656160448201526d191e481a5b9a5d1a585b1a5e995960921b60648201526084016106d8565b600054610100900460ff1615801561090a576000805461ffff19166101011790555b6109126117ec565b61091a61182b565b61092261185a565b6001600160a01b03831661098b5760405162461bcd60e51b815260206004820152602a60248201527f537761703a206c70546f6b656e546172676574416464726573732063616e206e6044820152696f74206265207a65726f60b01b60648201526084016106d8565b6001600160a01b038a166109e15760405162461bcd60e51b815260206004820152601c60248201527f537761703a205f67417661782063616e206e6f74206265207a65726f0000000060448201526064016106d8565b620f42408610610a335760405162461bcd60e51b815260206004820152601860248201527f537761703a205f612065786365656473206d6178696d756d000000000000000060448201526064016106d8565b6305f5e1008510610a865760405162461bcd60e51b815260206004820152601a60248201527f537761703a205f6665652065786365656473206d6178696d756d00000000000060448201526064016106d8565b6402540be4008410610ada5760405162461bcd60e51b815260206004820152601f60248201527f537761703a205f61646d696e4665652065786365656473206d6178696d756d0060448201526064016106d8565b6000610ae584611881565b60405163266c45bb60e11b81529091506001600160a01b03821690634cd88b7690610b16908c908c90600401612278565b602060405180830381600087803b158015610b3057600080fd5b505af1158015610b44573d6000803e3d6000fd5b505050506040513d601f19601f82011682018060405250810190610b689190611fb8565b610bbf5760405162461bcd60e51b815260206004820152602260248201527f537761703a20636f756c64206e6f7420696e6974206c70546f6b656e20636c6f6044820152616e6560f01b60648201526084016106d8565b61016580546001600160a01b038381166001600160a01b0319928316179092556101678054928e16929091169190911790556101668a9055604080516002808252606082018352909160208301908036833750508151610c2792610168925060200190611aec565b50610c3360648861248e565b61015f55610c4260648861248e565b6101605561016386905561016485905591508015610c66576000805461ff00191690555b5098975050505050505050565b606060026097541415610c985760405162461bcd60e51b81526004016106d890612380565b60026097558142811015610cbe5760405162461bcd60e51b81526004016106d890612350565b6040516339feb59f60e11b815273__$448d8c99c2b5f0846b4261f659b27b06a5$__906373fd6b3e90610cfd9061015f908a908a908a9060040161240f565b60006040518083038186803b158015610d1557600080fd5b505af4158015610d29573d6000803e3d6000fd5b505050506040513d6000823e601f3d908101601f19168201604052610d519190810190611f20565b60016097559695505050505050565b60405163703493a160e11b815261015f60048201526024810183905260ff8216604482015260009073__$448d8c99c2b5f0846b4261f659b27b06a5$__9063e06927429060640160206040518083038186803b158015610dbf57600080fd5b505af4158015610dd3573d6000803e3d6000fd5b505050506040513d601f19601f82011682018060405250810190610df79190612018565b9392505050565b6033546001600160a01b03163314610e285760405162461bcd60e51b81526004016106d8906122d0565b60405163119f861b60e21b815261015f60048201526024810182905273__$448d8c99c2b5f0846b4261f659b27b06a5$__9063467e186c906044015b60006040518083038186803b158015610e7c57600080fd5b505af4158015610e90573d6000803e3d6000fd5b5050505050565b600060026097541415610ebc5760405162461bcd60e51b81526004016106d890612380565b600260975560655460ff1615610ee45760405162461bcd60e51b81526004016106d8906122a6565b8180421115610f055760405162461bcd60e51b81526004016106d890612350565b60405163e7a4db8160e01b815261015f60048201526024810187905260ff861660448201526064810185905273__$448d8c99c2b5f0846b4261f659b27b06a5$__9063e7a4db81906084015b60206040518083038186803b158015610f6957600080fd5b505af4158015610f7d573d6000803e3d6000fd5b505050506040513d601f19601f82011682018060405250810190610d519190612018565b6033546001600160a01b03163314610fcb5760405162461bcd60e51b81526004016106d8906122d0565b610fd361191e565b565b600060026097541415610ffa5760405162461bcd60e51b81526004016106d890612380565b600260975560655460ff16156110225760405162461bcd60e51b81526004016106d8906122a6565b81804211156110435760405162461bcd60e51b81526004016106d890612350565b6040516340370edf60e01b815273__$448d8c99c2b5f0846b4261f659b27b06a5$__906340370edf90610f519061015f908a908a908a906004016123e4565b6033546001600160a01b031633146110ac5760405162461bcd60e51b81526004016106d8906122d0565b6040516358fdd79b60e01b815261015f6004820152602481018390526044810182905273__$4aa99cb4be417509a27b6ba264f02cc855$__906358fdd79b9060640160006040518083038186803b15801561110657600080fd5b505af415801561111a573d6000803e3d6000fd5b505050505050565b6033546001600160a01b0316331461114c5760405162461bcd60e51b81526004016106d8906122d0565b610fd360006119b1565b6033546001600160a01b031633146111805760405162461bcd60e51b81526004016106d8906122d0565b610fd3611a03565b6000600260975414156111ad5760405162461bcd60e51b81526004016106d890612380565b600260975560655460ff16156111d55760405162461bcd60e51b81526004016106d8906122a6565b81804211156111f65760405162461bcd60e51b81526004016106d890612350565b6040516320dc8e1360e11b815273__$448d8c99c2b5f0846b4261f659b27b06a5$__906341b91c2690610f519061015f908a908a908a906004016123e4565b6033546001600160a01b0316331461125f5760405162461bcd60e51b81526004016106d8906122d0565b604051633823393b60e11b815261015f60048201526024810182905273__$448d8c99c2b5f0846b4261f659b27b06a5$__90637046727690604401610e64565b6000600260975414156112c45760405162461bcd60e51b81526004016106d890612380565b600260975560655460ff16156112ec5760405162461bcd60e51b81526004016106d8906122a6565b818042111561130d5760405162461bcd60e51b81526004016106d890612350565b60405163529cbd9160e11b815261015f600482015260ff808916602483015287166044820152606481018690526084810185905273__$448d8c99c2b5f0846b4261f659b27b06a5$__9063a5397b229060a40160206040518083038186803b15801561137857600080fd5b505af415801561138c573d6000803e3d6000fd5b505050506040513d601f19601f820116820180604052508101906113b09190612018565b6001609755979650505050505050565b600060028260ff16106114155760405162461bcd60e51b815260206004820152601860248201527f537761703a20496e646578206f7574206f662072616e6765000000000000000060448201526064016106d8565b610168805460ff841690811061142d5761142d6124bb565b90600052602060002001549050919050565b6040516312c8d80f60e21b815261015f600482015260ff8085166024830152831660448201526064810182905260009073__$448d8c99c2b5f0846b4261f659b27b06a5$__90634b23603c906084015b60206040518083038186803b1580156114a757600080fd5b505af41580156114bb573d6000803e3d6000fd5b505050506040513d601f19601f820116820180604052508101906114df9190612018565b949350505050565b6033546001600160a01b031633146115115760405162461bcd60e51b81526004016106d8906122d0565b6040516378a7108f60e11b815261015f600482015273__$4aa99cb4be417509a27b6ba264f02cc855$__9063f14e211e9060240160006040518083038186803b15801561155d57600080fd5b505af4158015611571573d6000803e3d6000fd5b50505050565b604051632c28533f60e21b815261015f600482015260009073__$4aa99cb4be417509a27b6ba264f02cc855$__9063b0a14cfc906024016107d4565b604051631c641b0b60e21b815261015f600482015260009073__$448d8c99c2b5f0846b4261f659b27b06a5$__906371906c2c906024016107d4565b604051630834b49160e41b815260009073__$448d8c99c2b5f0846b4261f659b27b06a5$__9063834b49109061148f9061015f908890889088906004016123b7565b6040516303e8240b60e51b815261015f60048201526024810182905260009073__$448d8c99c2b5f0846b4261f659b27b06a5$__90637d0481609060440160206040518083038186803b15801561168757600080fd5b505af415801561169b573d6000803e3d6000fd5b505050506040513d601f19601f820116820180604052508101906106a89190612018565b6040516338381f2560e11b815261015f60048201526024810182905260609073__$448d8c99c2b5f0846b4261f659b27b06a5$__906370703e4a9060440160006040518083038186803b15801561171557600080fd5b505af4158015611729573d6000803e3d6000fd5b505050506040513d6000823e601f3d908101601f191682016040526106a89190810190611f20565b6033546001600160a01b0316331461177b5760405162461bcd60e51b81526004016106d8906122d0565b6001600160a01b0381166117e05760405162461bcd60e51b815260206004820152602660248201527f4f776e61626c653a206e6577206f776e657220697320746865207a65726f206160448201526564647265737360d01b60648201526084016106d8565b6117e9816119b1565b50565b600054610100900460ff166118135760405162461bcd60e51b81526004016106d890612305565b61181b61185a565b611823611a5b565b610fd3611a8b565b600054610100900460ff166118525760405162461bcd60e51b81526004016106d890612305565b610fd3611abe565b600054610100900460ff16610fd35760405162461bcd60e51b81526004016106d890612305565b6000604051733d602d80600a3d3981f3363d3d373d3d3d363d7360601b81528260601b60148201526e5af43d82803e903d91602b57fd5bf360881b60288201526037816000f09150506001600160a01b0381166119195760405162461bcd60e51b8152602060048201526016602482015275115490cc4c4d8dce8818dc99585d194819985a5b195960521b60448201526064016106d8565b919050565b60655460ff166119675760405162461bcd60e51b815260206004820152601460248201527314185d5cd8589b194e881b9bdd081c185d5cd95960621b60448201526064016106d8565b6065805460ff191690557f5db9ee0a495bf2e6ff9c91a7834c1ba4fdd244a5e8aa4e537bd38aeae4b073aa335b6040516001600160a01b03909116815260200160405180910390a1565b603380546001600160a01b038381166001600160a01b0319831681179093556040519116919082907f8be0079c531659141344cd1fd0a4f28419497f9722a3daafe3b4186f6b6457e090600090a35050565b60655460ff1615611a265760405162461bcd60e51b81526004016106d8906122a6565b6065805460ff191660011790557f62e78cea01bee320cd4e420270b5ea74000d11b0c9f74754ebdbfc544b05a2586119943390565b600054610100900460ff16611a825760405162461bcd60e51b81526004016106d890612305565b610fd3336119b1565b600054610100900460ff16611ab25760405162461bcd60e51b81526004016106d890612305565b6065805460ff19169055565b600054610100900460ff16611ae55760405162461bcd60e51b81526004016106d890612305565b6001609755565b828054828255906000526020600020908101928215611b27579160200282015b82811115611b27578251825591602001919060010190611b0c565b50611b33929150611b37565b5090565b5b80821115611b335760008155600101611b38565b80356001600160a01b038116811461191957600080fd5b60008083601f840112611b7557600080fd5b50813567ffffffffffffffff811115611b8d57600080fd5b6020830191508360208260051b8501011115611ba857600080fd5b9250929050565b600082601f830112611bc057600080fd5b81356020611bd5611bd08361246a565b612439565b80838252828201915082860187848660051b8901011115611bf557600080fd5b60005b85811015611c1457813584529284019290840190600101611bf8565b5090979650505050505050565b600082601f830112611c3257600080fd5b813567ffffffffffffffff811115611c4c57611c4c6124d1565b611c5f601f8201601f1916602001612439565b818152846020838601011115611c7457600080fd5b816020850160208301376000918101602001919091529392505050565b803560ff8116811461191957600080fd5b600060208284031215611cb457600080fd5b610df782611b4c565b600080600080600060a08688031215611cd557600080fd5b611cde86611b4c565b9450611cec60208701611b4c565b9350604086013567ffffffffffffffff80821115611d0957600080fd5b611d1589838a01611baf565b94506060880135915080821115611d2b57600080fd5b611d3789838a01611baf565b93506080880135915080821115611d4d57600080fd5b50611d5a88828901611c21565b9150509295509295909350565b600080600080600060a08688031215611d7f57600080fd5b611d8886611b4c565b9450611d9660208701611b4c565b93506040860135925060608601359150608086013567ffffffffffffffff811115611dc057600080fd5b611d5a88828901611c21565b600080600080600080600080610100898b031215611de957600080fd5b611df289611b4c565b975060208901359650604089013567ffffffffffffffff80821115611e1657600080fd5b611e228c838d01611c21565b975060608b0135915080821115611e3857600080fd5b50611e458b828c01611c21565b9550506080890135935060a0890135925060c08901359150611e6960e08a01611b4c565b90509295985092959890939650565b600080600060408486031215611e8d57600080fd5b833567ffffffffffffffff811115611ea457600080fd5b611eb086828701611b63565b9094509250506020840135611ec4816124e7565b809150509250925092565b60008060008060608587031215611ee557600080fd5b843567ffffffffffffffff811115611efc57600080fd5b611f0887828801611b63565b90989097506020870135966040013595509350505050565b60006020808385031215611f3357600080fd5b825167ffffffffffffffff811115611f4a57600080fd5b8301601f81018513611f5b57600080fd5b8051611f69611bd08261246a565b80828252848201915084840188868560051b8701011115611f8957600080fd5b600094505b83851015611fac578051835260019490940193918501918501611f8e565b50979650505050505050565b600060208284031215611fca57600080fd5b8151610df7816124e7565b600060208284031215611fe757600080fd5b81356001600160e01b031981168114610df757600080fd5b60006020828403121561201157600080fd5b5035919050565b60006020828403121561202a57600080fd5b5051919050565b6000806000806060858703121561204757600080fd5b84359350602085013567ffffffffffffffff81111561206557600080fd5b61207187828801611b63565b9598909750949560400135949350505050565b6000806040838503121561209757600080fd5b50508035926020909101359150565b600080604083850312156120b957600080fd5b823591506120c960208401611c91565b90509250929050565b600080600080608085870312156120e857600080fd5b843593506120f860208601611c91565b93969395505050506040820135916060013590565b60006020828403121561211f57600080fd5b610df782611c91565b60008060006060848603121561213d57600080fd5b61214684611c91565b925061215460208501611c91565b9150604084013590509250925092565b600080600080600060a0868803121561217c57600080fd5b61218586611c91565b945061219360208701611c91565b94979496505050506040830135926060810135926080909101359150565b81835260006001600160fb1b038311156121ca57600080fd5b8260051b8083602087013760009401602001938452509192915050565b6000815180845260005b8181101561220d576020818501810151868301820152016121f1565b8181111561221f576000602083870101525b50601f01601f19169290920160200192915050565b6020808252825182820181905260009190848201906040850190845b8181101561226c57835183529284019291840191600101612250565b50909695505050505050565b60408152600061228b60408301856121e7565b828103602084015261229d81856121e7565b95945050505050565b60208082526010908201526f14185d5cd8589b194e881c185d5cd95960821b604082015260600190565b6020808252818101527f4f776e61626c653a2063616c6c6572206973206e6f7420746865206f776e6572604082015260600190565b6020808252602b908201527f496e697469616c697a61626c653a20636f6e7472616374206973206e6f74206960408201526a6e697469616c697a696e6760a81b606082015260800190565b60208082526016908201527514ddd85c0e88111958591b1a5b99481b9bdd081b595d60521b604082015260600190565b6020808252601f908201527f5265656e7472616e637947756172643a207265656e7472616e742063616c6c00604082015260600190565b8481526060602082015260006123d16060830185876121b1565b9050821515604083015295945050505050565b8481526060602082015260006123fe6060830185876121b1565b905082604083015295945050505050565b84815283602082015260606040820152600061242f6060830184866121b1565b9695505050505050565b604051601f8201601f1916810167ffffffffffffffff81118282101715612462576124626124d1565b604052919050565b600067ffffffffffffffff821115612484576124846124d1565b5060051b60200190565b60008160001904831182151516156124b657634e487b7160e01b600052601160045260246000fd5b500290565b634e487b7160e01b600052603260045260246000fd5b634e487b7160e01b600052604160045260246000fd5b80151581146117e957600080fdfea2646970667358221220159d223cad1f6d4bdcb5b923eb67804637b525b907a883896d7ec4b07004e3f664736f6c63430008070033",
  "libraries": {
    "SwapUtils": "0x147a5A66414510fD08f7c522f6D03676E2D808E5",
    "AmplificationUtils": "0xdd2d19B816cc83fF841129D144A6a89A4b1fB349"
  },
  "devdoc": {
    "details": "Most of the logic is stored as a library `SwapUtils` for the sake of reducing contract's deployment size.",
    "kind": "dev",
    "methods": {
      "addLiquidity(uint256[],uint256,uint256)": {
        "params": {
          "amounts": "the amounts of each token to add, in their native precision",
          "deadline": "latest timestamp to accept this transaction",
          "minToMint": "the minimum LP tokens adding this amount of liquidity should mint, otherwise revert. Handy for front-running mitigation"
        },
        "returns": {
          "_0": "amount of LP token user minted and received"
        }
      },
      "calculateRemoveLiquidity(uint256)": {
        "params": {
          "amount": "the amount of LP tokens that would be burned on withdrawal"
        },
        "returns": {
          "_0": "array of token balances that the user will receive"
        }
      },
      "calculateRemoveLiquidityOneToken(uint256,uint8)": {
        "params": {
          "tokenAmount": "the amount of LP token to burn",
          "tokenIndex": "index of which token will be withdrawn"
        },
        "returns": {
          "availableTokenAmount": "calculated amount of underlying token available to withdraw"
        }
      },
      "calculateSwap(uint8,uint8,uint256)": {
        "params": {
          "dx": "the amount of tokens the user wants to sell. If the token charges a fee on transfers, use the amount that gets transferred after the fee.",
          "tokenIndexFrom": "the token the user wants to sell",
          "tokenIndexTo": "the token the user wants to buy"
        },
        "returns": {
          "_0": "amount of tokens the user will receive"
        }
      },
      "calculateTokenAmount(uint256[],bool)": {
        "details": "This shouldn't be used outside frontends for user estimates.",
        "params": {
          "amounts": "an array of token amounts to deposit or withdrawal, corresponding to pooledTokens. The amount should be in each pooled token's native precision. If a token charges a fee on transfers, use the amount that gets transferred after the fee.",
          "deposit": "whether this is a deposit or a withdrawal"
        },
        "returns": {
          "_0": "token amount the user will receive"
        }
      },
      "getA()": {
        "details": "See the StableSwap paper for details",
        "returns": {
          "_0": "A parameter"
        }
      },
      "getAPrecise()": {
        "details": "See the StableSwap paper for details",
        "returns": {
          "_0": "A parameter in its raw precision form"
        }
      },
      "getAdminBalance(uint256)": {
        "params": {
          "index": "Index of the pooled token"
        },
        "returns": {
          "_0": "admin's token balance in the token's precision"
        }
      },
      "getDebt()": {
        "returns": {
          "_0": "debt the half of the D StableSwap invariant when debt is needed to be payed."
        }
      },
      "getToken()": {
        "returns": {
          "_0": "id of the pooled gAvax token"
        }
      },
      "getTokenBalance(uint8)": {
        "params": {
          "index": "the index of the token"
        },
        "returns": {
          "_0": "current balance of the pooled token at given index with token's native precision"
        }
      },
      "getVirtualPrice()": {
        "returns": {
          "_0": "the virtual price, scaled to the POOL_PRECISION_DECIMALS"
        }
      },
      "initialize(address,uint256,string,string,uint256,uint256,uint256,address)": {
        "params": {
          "_a": "the amplification coefficient * n * (n - 1). See the StableSwap paper for details",
          "_adminFee": "default adminFee to be initialized with",
          "_fee": "default swap fee to be initialized with",
          "_gAvax": "reference of the wETH2 ERC1155 contract",
          "_pooledTokenId": "gAvax ID that the Pool is operating with",
          "lpTokenName": "the long-form name of the token to be deployed",
          "lpTokenSymbol": "the short symbol for the token to be deployed",
          "lpTokenTargetAddress": "the address of an existing LPToken contract to use as a target"
        }
      },
      "owner()": {
        "details": "Returns the address of the current owner."
      },
      "paused()": {
        "details": "Returns true if the contract is paused, and false otherwise."
      },
      "rampA(uint256,uint256)": {
        "params": {
          "futureA": "the new A to ramp towards",
          "futureTime": "timestamp when the new A should be reached"
        }
      },
      "removeLiquidity(uint256,uint256[],uint256)": {
        "details": "Liquidity can always be removed, even when the pool is paused.",
        "params": {
          "amount": "the amount of LP tokens to burn",
          "deadline": "latest timestamp to accept this transaction",
          "minAmounts": "the minimum amounts of each token in the pool        acceptable for this burn. Useful as a front-running mitigation"
        },
        "returns": {
          "_0": "amounts of tokens user received"
        }
      },
      "removeLiquidityImbalance(uint256[],uint256,uint256)": {
        "params": {
          "amounts": "how much of each token to withdraw",
          "deadline": "latest timestamp to accept this transaction",
          "maxBurnAmount": "the max LP token provider is willing to pay to remove liquidity. Useful as a front-running mitigation."
        },
        "returns": {
          "_0": "amount of LP tokens burned"
        }
      },
      "removeLiquidityOneToken(uint256,uint8,uint256,uint256)": {
        "params": {
          "deadline": "latest timestamp to accept this transaction",
          "minAmount": "the minimum amount to withdraw, otherwise revert",
          "tokenAmount": "the amount of the token you want to receive",
          "tokenIndex": "the index of the token you want to receive"
        },
        "returns": {
          "_0": "amount of chosen token user received"
        }
      },
      "renounceOwnership()": {
        "details": "Leaves the contract without owner. It will not be possible to call `onlyOwner` functions anymore. Can only be called by the current owner. NOTE: Renouncing ownership will leave the contract without an owner, thereby removing any functionality that is only available to the owner."
      },
      "setAdminFee(uint256)": {
        "params": {
          "newAdminFee": "new admin fee to be applied on future transactions"
        }
      },
      "setSwapFee(uint256)": {
        "params": {
          "newSwapFee": "new swap fee to be applied on future transactions"
        }
      },
      "supportsInterface(bytes4)": {
        "details": "See {IERC165-supportsInterface}."
      },
      "swap(uint8,uint8,uint256,uint256,uint256)": {
        "params": {
          "deadline": "latest timestamp to accept this transaction",
          "dx": "the amount of tokens the user wants to swap from",
          "minDy": "the min amount the user would like to receive, or revert.",
          "tokenIndexFrom": "the token the user wants to swap from",
          "tokenIndexTo": "the token the user wants to swap to"
        }
      },
      "transferOwnership(address)": {
        "details": "Transfers ownership of the contract to a new account (`newOwner`). Can only be called by the current owner."
      }
    },
    "title": "Swap - A StableSwap implementation in solidity.",
    "version": 1
  },
  "userdoc": {
    "kind": "user",
    "methods": {
      "addLiquidity(uint256[],uint256,uint256)": {
        "notice": "Add liquidity to the pool with the given amounts of tokens"
      },
      "calculateRemoveLiquidity(uint256)": {
        "notice": "A simple method to calculate amount of each underlying tokens that is returned upon burning given amount of LP tokens"
      },
      "calculateRemoveLiquidityOneToken(uint256,uint8)": {
        "notice": "Calculate the amount of underlying token available to withdraw when withdrawing via only single token"
      },
      "calculateSwap(uint8,uint8,uint256)": {
        "notice": "Calculate amount of tokens you receive on swap"
      },
      "calculateTokenAmount(uint256[],bool)": {
        "notice": "A simple method to calculate prices from deposits or withdrawals, excluding fees but including slippage. This is helpful as an input into the various \"min\" parameters on calls to fight front-running"
      },
      "getA()": {
        "notice": "Return A, the amplification coefficient * n * (n - 1)"
      },
      "getAPrecise()": {
        "notice": "Return A in its raw precision form"
      },
      "getAdminBalance(uint256)": {
        "notice": "This function reads the accumulated amount of admin fees of the token with given index"
      },
      "getDebt()": {
        "notice": "Get Debt, The amount of buyback for stable pricing (1=1)."
      },
      "getToken()": {
        "notice": "Return id of the pooled token"
      },
      "getTokenBalance(uint8)": {
        "notice": "Return current balance of the pooled token at given index"
      },
      "getVirtualPrice()": {
        "notice": "Get the virtual price, to help calculate profit"
      },
      "initialize(address,uint256,string,string,uint256,uint256,uint256,address)": {
        "notice": "Initializes this Swap contract with the given parameters. This will also clone a LPToken contract that represents users' LP positions. The owner of LPToken will be this contract - which means only this contract is allowed to mint/burn tokens."
      },
      "pause()": {
        "notice": "Pause the contract. Revert if already paused."
      },
      "rampA(uint256,uint256)": {
        "notice": "Start ramping up or down A parameter towards given futureA and futureTime Checks if the change is too rapid, and commits the new A value only when it falls under the limit range."
      },
      "removeLiquidity(uint256,uint256[],uint256)": {
        "notice": "Burn LP tokens to remove liquidity from the pool."
      },
      "removeLiquidityImbalance(uint256[],uint256,uint256)": {
        "notice": "Remove liquidity from the pool, weighted differently than the pool's current balances."
      },
      "removeLiquidityOneToken(uint256,uint8,uint256,uint256)": {
        "notice": "Remove liquidity from the pool all in one token."
      },
      "setAdminFee(uint256)": {
        "notice": "Update the admin fee. Admin fee takes portion of the swap fee."
      },
      "setSwapFee(uint256)": {
        "notice": "Update the swap fee to be applied on swaps"
      },
      "stopRampA()": {
        "notice": "Stop ramping A immediately. Reverts if ramp A is already stopped."
      },
      "swap(uint8,uint8,uint256,uint256,uint256)": {
        "notice": "Swap two tokens using this pool"
      },
      "unpause()": {
        "notice": "Unpause the contract. Revert if already unpaused."
      },
      "withdrawAdminFees()": {
        "notice": "Withdraw all admin fees to the contract owner"
      }
    },
    "notice": "This contract is responsible for custody of closely pegged assets (eg. group of stablecoins) and automatic market making system. Users become an LP (Liquidity Provider) by depositing their tokens in desired ratios for an exchange of the pool token that represents their share of the pool. Users can burn pool tokens and withdraw their share of token(s). Each time a swap between the pooled tokens happens, a set fee incurs which effectively gets distributed to the LPs. In case of emergencies, admin can pause additional deposits, swaps, or single-asset withdraws - which stops the ratio of the tokens in the pool from changing. Users can always withdraw their tokens via multi-asset withdraws.",
    "version": 1
  },
  "storageLayout": {
    "storage": [
      {
        "astId": 519,
        "contract": "contracts/WithdrawalPool/Swap.sol:Swap",
        "label": "_initialized",
        "offset": 0,
        "slot": "0",
        "type": "t_bool"
      },
      {
        "astId": 522,
        "contract": "contracts/WithdrawalPool/Swap.sol:Swap",
        "label": "_initializing",
        "offset": 1,
        "slot": "0",
        "type": "t_bool"
      },
      {
        "astId": 2122,
        "contract": "contracts/WithdrawalPool/Swap.sol:Swap",
        "label": "__gap",
        "offset": 0,
        "slot": "1",
        "type": "t_array(t_uint256)50_storage"
      },
      {
        "astId": 10,
        "contract": "contracts/WithdrawalPool/Swap.sol:Swap",
        "label": "_owner",
        "offset": 0,
        "slot": "51",
        "type": "t_address"
      },
      {
        "astId": 122,
        "contract": "contracts/WithdrawalPool/Swap.sol:Swap",
        "label": "__gap",
        "offset": 0,
        "slot": "52",
        "type": "t_array(t_uint256)49_storage"
      },
      {
        "astId": 743,
        "contract": "contracts/WithdrawalPool/Swap.sol:Swap",
        "label": "_paused",
        "offset": 0,
        "slot": "101",
        "type": "t_bool"
      },
      {
        "astId": 832,
        "contract": "contracts/WithdrawalPool/Swap.sol:Swap",
        "label": "__gap",
        "offset": 0,
        "slot": "102",
        "type": "t_array(t_uint256)49_storage"
      },
      {
        "astId": 847,
        "contract": "contracts/WithdrawalPool/Swap.sol:Swap",
        "label": "_status",
        "offset": 0,
        "slot": "151",
        "type": "t_uint256"
      },
      {
        "astId": 891,
        "contract": "contracts/WithdrawalPool/Swap.sol:Swap",
        "label": "__gap",
        "offset": 0,
        "slot": "152",
        "type": "t_array(t_uint256)49_storage"
      },
      {
        "astId": 2226,
        "contract": "contracts/WithdrawalPool/Swap.sol:Swap",
        "label": "__gap",
        "offset": 0,
        "slot": "201",
        "type": "t_array(t_uint256)50_storage"
      },
      {
        "astId": 1057,
        "contract": "contracts/WithdrawalPool/Swap.sol:Swap",
        "label": "__gap",
        "offset": 0,
        "slot": "251",
        "type": "t_array(t_uint256)50_storage"
      },
      {
        "astId": 1003,
        "contract": "contracts/WithdrawalPool/Swap.sol:Swap",
        "label": "__gap",
        "offset": 0,
        "slot": "301",
        "type": "t_array(t_uint256)50_storage"
      },
      {
        "astId": 13589,
        "contract": "contracts/WithdrawalPool/Swap.sol:Swap",
        "label": "swapStorage",
        "offset": 0,
        "slot": "351",
        "type": "t_struct(Swap)15384_storage"
      }
    ],
    "types": {
      "t_address": {
        "encoding": "inplace",
        "label": "address",
        "numberOfBytes": "20"
      },
      "t_array(t_uint256)49_storage": {
        "base": "t_uint256",
        "encoding": "inplace",
        "label": "uint256[49]",
        "numberOfBytes": "1568"
      },
      "t_array(t_uint256)50_storage": {
        "base": "t_uint256",
        "encoding": "inplace",
        "label": "uint256[50]",
        "numberOfBytes": "1600"
      },
      "t_array(t_uint256)dyn_storage": {
        "base": "t_uint256",
        "encoding": "dynamic_array",
        "label": "uint256[]",
        "numberOfBytes": "32"
      },
      "t_bool": {
        "encoding": "inplace",
        "label": "bool",
        "numberOfBytes": "1"
      },
      "t_contract(IgAVAX)19193": {
        "encoding": "inplace",
        "label": "contract IgAVAX",
        "numberOfBytes": "20"
      },
      "t_contract(LPToken)13559": {
        "encoding": "inplace",
        "label": "contract LPToken",
        "numberOfBytes": "20"
      },
      "t_struct(Swap)15384_storage": {
        "encoding": "inplace",
        "label": "struct SwapUtils.Swap",
        "members": [
          {
            "astId": 15362,
            "contract": "contracts/WithdrawalPool/Swap.sol:Swap",
            "label": "initialA",
            "offset": 0,
            "slot": "0",
            "type": "t_uint256"
          },
          {
            "astId": 15364,
            "contract": "contracts/WithdrawalPool/Swap.sol:Swap",
            "label": "futureA",
            "offset": 0,
            "slot": "1",
            "type": "t_uint256"
          },
          {
            "astId": 15366,
            "contract": "contracts/WithdrawalPool/Swap.sol:Swap",
            "label": "initialATime",
            "offset": 0,
            "slot": "2",
            "type": "t_uint256"
          },
          {
            "astId": 15368,
            "contract": "contracts/WithdrawalPool/Swap.sol:Swap",
            "label": "futureATime",
            "offset": 0,
            "slot": "3",
            "type": "t_uint256"
          },
          {
            "astId": 15370,
            "contract": "contracts/WithdrawalPool/Swap.sol:Swap",
            "label": "swapFee",
            "offset": 0,
            "slot": "4",
            "type": "t_uint256"
          },
          {
            "astId": 15372,
            "contract": "contracts/WithdrawalPool/Swap.sol:Swap",
            "label": "adminFee",
            "offset": 0,
            "slot": "5",
            "type": "t_uint256"
          },
          {
            "astId": 15375,
            "contract": "contracts/WithdrawalPool/Swap.sol:Swap",
            "label": "lpToken",
            "offset": 0,
            "slot": "6",
            "type": "t_contract(LPToken)13559"
          },
          {
            "astId": 15377,
            "contract": "contracts/WithdrawalPool/Swap.sol:Swap",
            "label": "pooledTokenId",
            "offset": 0,
            "slot": "7",
            "type": "t_uint256"
          },
          {
            "astId": 15380,
            "contract": "contracts/WithdrawalPool/Swap.sol:Swap",
            "label": "referenceForPooledTokens",
            "offset": 0,
            "slot": "8",
            "type": "t_contract(IgAVAX)19193"
          },
          {
            "astId": 15383,
            "contract": "contracts/WithdrawalPool/Swap.sol:Swap",
            "label": "balances",
            "offset": 0,
            "slot": "9",
            "type": "t_array(t_uint256)dyn_storage"
          }
        ],
        "numberOfBytes": "320"
      },
      "t_uint256": {
        "encoding": "inplace",
        "label": "uint256",
        "numberOfBytes": "32"
      }
    }
  }
}