{
  "address": "0xB72E3Bacac35Eb5B7d04675945B028cc0A2b85B9",
  "abi": [
    {
      "anonymous": false,
      "inputs": [
        {
          "indexed": false,
          "internalType": "uint256",
          "name": "id",
          "type": "uint256"
        },
        {
          "indexed": false,
          "internalType": "address",
          "name": "newCONTROLLER",
          "type": "address"
        }
      ],
      "name": "ControllerChanged",
      "type": "event"
    },
    {
      "anonymous": false,
      "inputs": [
        {
          "indexed": false,
          "internalType": "uint256",
          "name": "newMaxFee",
          "type": "uint256"
        }
      ],
      "name": "MaxOperationFeeUpdated",
      "type": "event"
    },
    {
      "anonymous": false,
      "inputs": [
        {
          "indexed": false,
          "internalType": "uint256",
          "name": "_type",
          "type": "uint256"
        }
      ],
      "name": "NewElectorType",
      "type": "event"
    },
    {
      "anonymous": false,
      "inputs": [
        {
          "indexed": false,
          "internalType": "address",
          "name": "senate",
          "type": "address"
        },
        {
          "indexed": false,
          "internalType": "uint256",
          "name": "senate_expire_timestamp",
          "type": "uint256"
        }
      ],
      "name": "NewSenate",
      "type": "event"
    },
    {
      "anonymous": false,
      "inputs": [
        {
          "indexed": false,
          "internalType": "uint256",
          "name": "newFee",
          "type": "uint256"
        }
      ],
      "name": "OperationFeeUpdated",
      "type": "event"
    },
    {
      "anonymous": false,
      "inputs": [
        {
          "indexed": false,
          "internalType": "uint256",
          "name": "id",
          "type": "uint256"
        }
      ],
      "name": "ProposalApproved",
      "type": "event"
    },
    {
      "anonymous": false,
      "inputs": [
        {
          "indexed": false,
          "internalType": "uint256",
          "name": "id",
          "type": "uint256"
        },
        {
          "indexed": false,
          "internalType": "address",
          "name": "_CONTROLLER",
          "type": "address"
        },
        {
          "indexed": false,
          "internalType": "uint256",
          "name": "_type",
          "type": "uint256"
        },
        {
          "indexed": false,
          "internalType": "uint256",
          "name": "_duration",
          "type": "uint256"
        }
      ],
      "name": "Proposed",
      "type": "event"
    },
    {
      "anonymous": false,
      "inputs": [
        {
          "indexed": false,
          "internalType": "uint256",
          "name": "proposalId",
          "type": "uint256"
        },
        {
          "indexed": false,
          "internalType": "uint256",
          "name": "electorId",
          "type": "uint256"
        }
      ],
      "name": "Vote",
      "type": "event"
    },
    {
      "inputs": [],
      "name": "MAX_PROPOSAL_DURATION",
      "outputs": [
        {
          "internalType": "uint32",
          "name": "",
          "type": "uint32"
        }
      ],
      "stateMutability": "view",
      "type": "function"
    },
    {
      "inputs": [],
      "name": "MAX_SENATE_PERIOD",
      "outputs": [
        {
          "internalType": "uint32",
          "name": "",
          "type": "uint32"
        }
      ],
      "stateMutability": "view",
      "type": "function"
    },
    {
      "inputs": [],
      "name": "MIN_PROPOSAL_DURATION",
      "outputs": [
        {
          "internalType": "uint32",
          "name": "",
          "type": "uint32"
        }
      ],
      "stateMutability": "view",
      "type": "function"
    }
  ],
  "transactionHash": "0x926dca680ef3a20218c41f0d700eccb14094bbbbf88877cf1137f1ad0cbb5704",
  "args": [],
  "solcInputHash": "8ba34613adb3f6fcaf5e28a313a8aca8",
  "bytecode": "0x611e5361003a600b82828239805160001a60731461002d57634e487b7160e01b600052600060045260246000fd5b30600052607381538281f3fe73000000000000000000000000000000000000000030146080604052600436106101155760003560e01c806353803de4116100ac578063b21f21881161007b578063b21f2188146102a1578063bd968216146102ac578063d115f195146102b6578063f00d779d146102d6578063fe70c9aa146102f457600080fd5b806353803de41461023a5780635fff75171461024f578063833520141461026f578063944ee22d1461028257600080fd5b80633c197afe116100e85780633c197afe146101a457806343dbfc05146101c75780634b61f9fe146101e75780634e9130821461020757600080fd5b80630bf249b81461011a5780630bf8c88e1461013c578063105835b01461015c5780633680b4071461017c575b600080fd5b81801561012657600080fd5b5061013a6101353660046119b8565b610314565b005b81801561014857600080fd5b5061013a610157366004611a3a565b610534565b81801561016857600080fd5b5061013a610177366004611b07565b6107b3565b61018f61018a366004611a0a565b61097a565b60405190151581526020015b60405180910390f35b6101b96101b23660046119f1565b6003015490565b60405190815260200161019b565b8180156101d357600080fd5b5061018f6101e2366004611b7f565b6109af565b8180156101f357600080fd5b5061013a610202366004611adb565b610af8565b6102226102153660046119f1565b546001600160a01b031690565b6040516001600160a01b03909116815260200161019b565b6101b96102483660046119f1565b6005015490565b81801561025b57600080fd5b5061013a61026a366004611b4d565b610faa565b6101b961027d3660046119f1565b61172b565b61028c6201518081565b60405163ffffffff909116815260200161019b565b61028c6303c2670081565b61028c62093a8081565b6102c96102c4366004611b7f565b611752565b60405161019b9190611cc1565b6102226102e43660046119f1565b600101546001600160a01b031690565b81801561030057600080fd5b5061018f61030f366004611b7f565b611869565b6001600160a01b03811661037e5760405162461bcd60e51b815260206004820152602660248201527f47656f64655574696c733a20434f4e54524f4c4c45522063616e206e6f74206260448201526565207a65726f60d01b60648201526084015b60405180910390fd5b604051630143c90b60e71b815260048101849052602481018390526921a7a72a2927a62622a960b11b6044820152339073c7332D9AbEF755C42b4dF9d9db09BEEf15F8f9Fb9063a1e485809060640160206040518083038186803b1580156103e557600080fd5b505af41580156103f9573d6000803e3d6000fd5b505050506040513d601f19601f8201168201806040525081019061041d919061199b565b6001600160a01b0316146104825760405162461bcd60e51b815260206004820152602660248201527f47656f64655574696c733a206e6f7420434f4e54524f4c4c4552206f662067696044820152651d995b881a5960d21b6064820152608401610375565b60405163dff34ff160e01b815273c7332D9AbEF755C42b4dF9d9db09BEEf15F8f9Fb9063dff34ff1906104bd90869086908690600401611c8f565b60006040518083038186803b1580156104d557600080fd5b505af41580156104e9573d6000803e3d6000fd5b5050604080518581526001600160a01b03851660208201527ff0d0c255199b45799d6fd3623dce5e99a7cb09d662754eff92d8d0e73a537f0a935001905060405180910390a1505050565b620151808310156105a45760405162461bcd60e51b815260206004820152603460248201527f47656f64655574696c733a206475726174696f6e2073686f756c6420626520686044820152736967686572207468616e206d696e2076616c756560601b6064820152608401610375565b62093a808311156105f75760405162461bcd60e51b815260206004820152601c60248201527f47656f64655574696c733a206475726174696f6e2065786365656473000000006044820152606401610375565b6000828260405160200161060c929190611bba565b60408051601f198184030181529181528151602092830120600081815260098b0190935291206002015490915042116106915760405162461bcd60e51b815260206004820152602160248201527f47656f64655574696c733a206e616d6520616c72656164792070726f706f73656044820152601960fa1b6064820152608401610375565b6040518060800160405280876001600160a01b0316815260200186815260200185426106bd9190611d44565b815260200184848080601f016020809104026020016040519081016040528093929190818152602001838380828437600092018290525093909452505083815260098a016020908152604091829020845181546001600160a01b0319166001600160a01b03909116178155848201516001820155918401516002830155606084015180519293506107579260038501929190910190611902565b5050604080518381526001600160a01b0389166020820152908101879052606081018690527fb56e333cd6082a862942820ad6871b5a17d922a7506ff536fc0830784a46b2c6915060800160405180910390a150505050505050565b600082815260088501602052604090205460ff16151581151514156108265760405162461bcd60e51b815260206004820152602360248201527f47656f64655574696c733a207479706520616c7265616479205f6973456c65636044820152623a37b960e91b6064820152608401610375565b8115801590610836575081600114155b8015610843575081600214155b8015610850575081600314155b6108c25760405162461bcd60e51b815260206004820152603d60248201527f47656f64655574696c733a20302c2053656e6174652c20557067726164652c2060448201527f50726f787941646d696e2063616e6e6f7420626520656c6563746f72210000006064820152608401610375565b60008281526008850160205260409020805460ff19168215801591909117909155610916576000828152602084905260408120546007860180549192909161090b908490611d44565b909155506109409050565b6000828152602084905260408120546007860180549192909161093a908490611d9d565b90915550505b6040518281527f0f38b759dc57634790a94ef0592a9330e1e884cab0d4b6427e8c9bc6beabad90906020015b60405180910390a150505050565b60068201546000906001600160a01b0316158015906109a8575060068301546001600160a01b038381169116145b9392505050565b815460009083906001600160a01b03163314610a0d5760405162461bcd60e51b815260206004820152601e60248201527f47656f64655574696c733a2053454e41544520726f6c65206e656564656400006044820152606401610375565b80600501544210610a605760405162461bcd60e51b815260206004820152601d60248201527f47656f64655574696c733a2053454e415445206e6f74206163746976650000006044820152606401610375565b8360040154831115610ab45760405162461bcd60e51b815260206004820152601e60248201527f47656f64655574696c733a20666565206d6f7265207468616e203130302500006044820152606401610375565b600384018390556040518381527f6375dc670be4b258879f3cfb65ade243a534088c4b7474f291ed54499edacb819060200160405180910390a15060019392505050565b825483906001600160a01b03163314610b535760405162461bcd60e51b815260206004820152601e60248201527f47656f64655574696c733a2053454e41544520726f6c65206e656564656400006044820152606401610375565b80600501544210610ba65760405162461bcd60e51b815260206004820152601d60248201527f47656f64655574696c733a2053454e415445206e6f74206163746976650000006044820152606401610375565b60008281526009850160205260409020600201544210610c085760405162461bcd60e51b815260206004820152601c60248201527f47656f64655574696c733a2070726f706f73616c2065787069726564000000006044820152606401610375565b600082815260098501602052604090206001908101541415610c875760405162461bcd60e51b815260206004820152603260248201527f47656f64655574696c733a2053656e6174652063616e206e6f7420617070726f6044820152711d994814d95b985d1948141c9bdc1bdcd85b60721b6064820152608401610375565b6000828152600985016020526040908190209051630eee4dd960e41b815273c7332D9AbEF755C42b4dF9d9db09BEEf15F8f9Fb9163eee4dd9091610cd5918791879160030190600401611bca565b60006040518083038186803b158015610ced57600080fd5b505af4158015610d01573d6000803e3d6000fd5b50505060008381526009860160205260409081902054905163dff34ff160e01b815273c7332D9AbEF755C42b4dF9d9db09BEEf15F8f9Fb925063dff34ff191610d5c91879187916001600160a01b0390911690600401611c8f565b60006040518083038186803b158015610d7457600080fd5b505af4158015610d88573d6000803e3d6000fd5b5050506000838152600986016020526040908190206001015490516223bfa960ea1b81526004810186905260248101859052635459504560e01b6044820152606481019190915273c7332D9AbEF755C42b4dF9d9db09BEEf15F8f9Fb9150638efea4009060840160006040518083038186803b158015610e0757600080fd5b505af4158015610e1b573d6000803e3d6000fd5b5050506000838152600986016020818152604080842060019081018054865289845291852080549182018155855282852001879055928690525254600214159050610e935760008281526009850160205260409020546006850180546001600160a01b0319166001600160a01b039092169190911790555b6000828152600985016020526040808220426002909101555163f237bab360e01b81526004810185905260248101849052635459504560e01b604482015260088601919073c7332D9AbEF755C42b4dF9d9db09BEEf15F8f9Fb9063f237bab39060640160206040518083038186803b158015610f0e57600080fd5b505af4158015610f22573d6000803e3d6000fd5b505050506040513d601f19601f82011682018060405250810190610f469190611ba1565b815260208101919091526040016000205460ff1615610f7a576001846007016000828254610f749190611d44565b90915550505b6040518281527f28ec9e38ba73636ceb2f6c1574136f83bd46284a3c74734b711bf45e12f8d9299060200161096c565b600082815260098501602052604090206001908101541461100d5760405162461bcd60e51b815260206004820152601f60248201527f47656f64655574696c733a204e4f542053656e6174652050726f706f73616c006044820152606401610375565b60008281526009850160205260409020600201544211156110705760405162461bcd60e51b815260206004820152601c60248201527f47656f64655574696c733a2070726f706f73616c2065787069726564000000006044820152606401610375565b604051630143c90b60e71b815260048101849052602481018290526921a7a72a2927a62622a960b11b6044820152339073c7332D9AbEF755C42b4dF9d9db09BEEf15F8f9Fb9063a1e485809060640160206040518083038186803b1580156110d757600080fd5b505af41580156110eb573d6000803e3d6000fd5b505050506040513d601f19601f8201168201806040525081019061110f919061199b565b6001600160a01b03161461118b5760405162461bcd60e51b815260206004820152603f60248201527f47656f64655574696c733a206d73672e73656e6465722073686f756c6420626560448201527f20434f4e54524f4c4c4552206f6620676976656e20656c6563746f72496421006064820152608401610375565b60405163f237bab360e01b81526004810184905260248101829052635459504560e01b6044820152600885019060009073c7332D9AbEF755C42b4dF9d9db09BEEf15F8f9Fb9063f237bab39060640160206040518083038186803b1580156111f257600080fd5b505af4158015611206573d6000803e3d6000fd5b505050506040513d601f19601f8201168201806040525081019061122a9190611ba1565b815260208101919091526040016000205460ff1661128a5760405162461bcd60e51b815260206004820152601a60248201527f47656f64655574696c733a204e4f5420616e20656c6563746f720000000000006044820152606401610375565b8273c7332D9AbEF755C42b4dF9d9db09BEEf15F8f9Fb63f237bab3909184846040516020016112c9918152641d9bdd195960da1b602082015260250190565b604051602081830303815290604052805190602001206040518463ffffffff1660e01b815260040161130e939291909283526020830191909152604082015260600190565b60206040518083038186803b15801561132657600080fd5b505af415801561133a573d6000803e3d6000fd5b505050506040513d601f19601f8201168201806040525081019061135e9190611ba1565b156113ab5760405162461bcd60e51b815260206004820152601d60248201527f2047656f64655574696c733a20616c726561647920617070726f7665640000006044820152606401610375565b8273c7332D9AbEF755C42b4dF9d9db09BEEf15F8f9Fb638efea400909184846040516020016113ea918152641d9bdd195960da1b602082015260250190565b6040516020818303038152906040528051906020012060016040518563ffffffff1660e01b8152600401611437949392919093845260208401929092526040830152606082015260800190565b60006040518083038186803b15801561144f57600080fd5b505af4158015611463573d6000803e3d6000fd5b505060408051858152602081018590527f33952ef907843fd2ddd118a92dd935debf65b72965a557a364ea08deffca032f935001905060405180910390a160405163f237bab360e01b815260048101849052602481018390526c185c1c1c9bdd985b10dbdd5b9d609a1b604482015273c7332D9AbEF755C42b4dF9d9db09BEEf15F8f9Fb90638efea4009085908590849063f237bab39060640160206040518083038186803b15801561151557600080fd5b505af4158015611529573d6000803e3d6000fd5b505050506040513d601f19601f8201168201806040525081019061154d9190611ba1565b611558906001611d44565b6040516001600160e01b031960e086901b168152600481019390935260248301919091526c185c1c1c9bdd985b10dbdd5b9d609a1b6044830152606482015260840160006040518083038186803b1580156115b257600080fd5b505af41580156115c6573d6000803e3d6000fd5b505050506003846007015460016115dd9190611d44565b6115e8906002611d7e565b6115f29190611d5c565b60405163f237bab360e01b815260048101859052602481018490526c185c1c1c9bdd985b10dbdd5b9d609a1b604482015273c7332D9AbEF755C42b4dF9d9db09BEEf15F8f9Fb9063f237bab39060640160206040518083038186803b15801561165a57600080fd5b505af415801561166e573d6000803e3d6000fd5b505050506040513d601f19601f820116820180604052508101906116929190611ba1565b106117255760008281526009850160205260409020805485546001600160a01b0319166001600160a01b039091161785554260029091018190556116db906303c2670090611d44565b600585018190558454604080516001600160a01b03909216825260208201929092527f3f34afe456fb5b36c04b5d1e2ef0750086747ac542262fbf14a0b1aae5fd7ee8910161096c565b50505050565b6000816003015482600201541161174657816002015461174c565b81600301545b92915050565b611786604051806080016040528060006001600160a01b031681526020016000815260200160008152602001606081525090565b6000828152600984016020908152604091829020825160808101845281546001600160a01b031681526001820154928101929092526002810154928201929092526003820180549192916060840191906117df90611db4565b80601f016020809104026020016040519081016040528092919081815260200182805461180b90611db4565b80156118585780601f1061182d57610100808354040283529160200191611858565b820191906000526020600020905b81548152906001019060200180831161183b57829003601f168201915b505050505081525050905092915050565b600082600301548211156118bf5760405162461bcd60e51b815260206004820152601d60248201527f47656f64655574696c733a20666565206d6f7265207468616e204d41580000006044820152606401610375565b600283018290556040518281527fdc0a11b3afd9d2b87730bfe9e9101cd69a837b27ae7237f688776960dcb609d29060200160405180910390a150600192915050565b82805461190e90611db4565b90600052602060002090601f0160209004810192826119305760008555611976565b82601f1061194957805160ff1916838001178555611976565b82800160010185558215611976579182015b8281111561197657825182559160200191906001019061195b565b50611982929150611986565b5090565b5b808211156119825760008155600101611987565b6000602082840312156119ad57600080fd5b81516109a881611e05565b6000806000606084860312156119cd57600080fd5b833592506020840135915060408401356119e681611e05565b809150509250925092565b600060208284031215611a0357600080fd5b5035919050565b60008060408385031215611a1d57600080fd5b823591506020830135611a2f81611e05565b809150509250929050565b60008060008060008060a08789031215611a5357600080fd5b863595506020870135611a6581611e05565b94506040870135935060608701359250608087013567ffffffffffffffff80821115611a9057600080fd5b818901915089601f830112611aa457600080fd5b813581811115611ab357600080fd5b8a6020828501011115611ac557600080fd5b6020830194508093505050509295509295509295565b600080600060608486031215611af057600080fd5b505081359360208301359350604090920135919050565b60008060008060808587031215611b1d57600080fd5b84359350602085013592506040850135915060608501358015158114611b4257600080fd5b939692955090935050565b60008060008060808587031215611b6357600080fd5b5050823594602084013594506040840135936060013592509050565b60008060408385031215611b9257600080fd5b50508035926020909101359150565b600060208284031215611bb357600080fd5b5051919050565b8183823760009101908152919050565b838152600060208481840152636e616d6560e01b6040840152608060608401526000845481600182811c915080831680611c0557607f831692505b858310811415611c2357634e487b7160e01b85526022600452602485fd5b6080880183905260a08801818015611c425760018114611c5357611c7e565b60ff19861682528782019650611c7e565b60008b81526020902060005b86811015611c7857815484820152908501908901611c5f565b83019750505b50949b9a5050505050505050505050565b92835260208301919091526921a7a72a2927a62622a960b11b60408301526001600160a01b0316606082015260800190565b6000602080835260018060a01b038451168184015280840151604084015260408401516060840152606084015160808085015280518060a086015260005b81811015611d1b5782810184015186820160c001528301611cff565b81811115611d2d57600060c083880101525b50601f01601f19169390930160c001949350505050565b60008219821115611d5757611d57611def565b500190565b600082611d7957634e487b7160e01b600052601260045260246000fd5b500490565b6000816000190483118215151615611d9857611d98611def565b500290565b600082821015611daf57611daf611def565b500390565b600181811c90821680611dc857607f821691505b60208210811415611de957634e487b7160e01b600052602260045260246000fd5b50919050565b634e487b7160e01b600052601160045260246000fd5b6001600160a01b0381168114611e1a57600080fd5b5056fea264697066735822122001927a56348a2feb56b3928f8f088312922d9f9fbc9d463c0eb32baabd02429a64736f6c63430008070033",
  "deployedBytecode": "0x73000000000000000000000000000000000000000030146080604052600436106101155760003560e01c806353803de4116100ac578063b21f21881161007b578063b21f2188146102a1578063bd968216146102ac578063d115f195146102b6578063f00d779d146102d6578063fe70c9aa146102f457600080fd5b806353803de41461023a5780635fff75171461024f578063833520141461026f578063944ee22d1461028257600080fd5b80633c197afe116100e85780633c197afe146101a457806343dbfc05146101c75780634b61f9fe146101e75780634e9130821461020757600080fd5b80630bf249b81461011a5780630bf8c88e1461013c578063105835b01461015c5780633680b4071461017c575b600080fd5b81801561012657600080fd5b5061013a6101353660046119b8565b610314565b005b81801561014857600080fd5b5061013a610157366004611a3a565b610534565b81801561016857600080fd5b5061013a610177366004611b07565b6107b3565b61018f61018a366004611a0a565b61097a565b60405190151581526020015b60405180910390f35b6101b96101b23660046119f1565b6003015490565b60405190815260200161019b565b8180156101d357600080fd5b5061018f6101e2366004611b7f565b6109af565b8180156101f357600080fd5b5061013a610202366004611adb565b610af8565b6102226102153660046119f1565b546001600160a01b031690565b6040516001600160a01b03909116815260200161019b565b6101b96102483660046119f1565b6005015490565b81801561025b57600080fd5b5061013a61026a366004611b4d565b610faa565b6101b961027d3660046119f1565b61172b565b61028c6201518081565b60405163ffffffff909116815260200161019b565b61028c6303c2670081565b61028c62093a8081565b6102c96102c4366004611b7f565b611752565b60405161019b9190611cc1565b6102226102e43660046119f1565b600101546001600160a01b031690565b81801561030057600080fd5b5061018f61030f366004611b7f565b611869565b6001600160a01b03811661037e5760405162461bcd60e51b815260206004820152602660248201527f47656f64655574696c733a20434f4e54524f4c4c45522063616e206e6f74206260448201526565207a65726f60d01b60648201526084015b60405180910390fd5b604051630143c90b60e71b815260048101849052602481018390526921a7a72a2927a62622a960b11b6044820152339073__$71e976e6d346a5055cfd7fe2380e485d9d$__9063a1e485809060640160206040518083038186803b1580156103e557600080fd5b505af41580156103f9573d6000803e3d6000fd5b505050506040513d601f19601f8201168201806040525081019061041d919061199b565b6001600160a01b0316146104825760405162461bcd60e51b815260206004820152602660248201527f47656f64655574696c733a206e6f7420434f4e54524f4c4c4552206f662067696044820152651d995b881a5960d21b6064820152608401610375565b60405163dff34ff160e01b815273__$71e976e6d346a5055cfd7fe2380e485d9d$__9063dff34ff1906104bd90869086908690600401611c8f565b60006040518083038186803b1580156104d557600080fd5b505af41580156104e9573d6000803e3d6000fd5b5050604080518581526001600160a01b03851660208201527ff0d0c255199b45799d6fd3623dce5e99a7cb09d662754eff92d8d0e73a537f0a935001905060405180910390a1505050565b620151808310156105a45760405162461bcd60e51b815260206004820152603460248201527f47656f64655574696c733a206475726174696f6e2073686f756c6420626520686044820152736967686572207468616e206d696e2076616c756560601b6064820152608401610375565b62093a808311156105f75760405162461bcd60e51b815260206004820152601c60248201527f47656f64655574696c733a206475726174696f6e2065786365656473000000006044820152606401610375565b6000828260405160200161060c929190611bba565b60408051601f198184030181529181528151602092830120600081815260098b0190935291206002015490915042116106915760405162461bcd60e51b815260206004820152602160248201527f47656f64655574696c733a206e616d6520616c72656164792070726f706f73656044820152601960fa1b6064820152608401610375565b6040518060800160405280876001600160a01b0316815260200186815260200185426106bd9190611d44565b815260200184848080601f016020809104026020016040519081016040528093929190818152602001838380828437600092018290525093909452505083815260098a016020908152604091829020845181546001600160a01b0319166001600160a01b03909116178155848201516001820155918401516002830155606084015180519293506107579260038501929190910190611902565b5050604080518381526001600160a01b0389166020820152908101879052606081018690527fb56e333cd6082a862942820ad6871b5a17d922a7506ff536fc0830784a46b2c6915060800160405180910390a150505050505050565b600082815260088501602052604090205460ff16151581151514156108265760405162461bcd60e51b815260206004820152602360248201527f47656f64655574696c733a207479706520616c7265616479205f6973456c65636044820152623a37b960e91b6064820152608401610375565b8115801590610836575081600114155b8015610843575081600214155b8015610850575081600314155b6108c25760405162461bcd60e51b815260206004820152603d60248201527f47656f64655574696c733a20302c2053656e6174652c20557067726164652c2060448201527f50726f787941646d696e2063616e6e6f7420626520656c6563746f72210000006064820152608401610375565b60008281526008850160205260409020805460ff19168215801591909117909155610916576000828152602084905260408120546007860180549192909161090b908490611d44565b909155506109409050565b6000828152602084905260408120546007860180549192909161093a908490611d9d565b90915550505b6040518281527f0f38b759dc57634790a94ef0592a9330e1e884cab0d4b6427e8c9bc6beabad90906020015b60405180910390a150505050565b60068201546000906001600160a01b0316158015906109a8575060068301546001600160a01b038381169116145b9392505050565b815460009083906001600160a01b03163314610a0d5760405162461bcd60e51b815260206004820152601e60248201527f47656f64655574696c733a2053454e41544520726f6c65206e656564656400006044820152606401610375565b80600501544210610a605760405162461bcd60e51b815260206004820152601d60248201527f47656f64655574696c733a2053454e415445206e6f74206163746976650000006044820152606401610375565b8360040154831115610ab45760405162461bcd60e51b815260206004820152601e60248201527f47656f64655574696c733a20666565206d6f7265207468616e203130302500006044820152606401610375565b600384018390556040518381527f6375dc670be4b258879f3cfb65ade243a534088c4b7474f291ed54499edacb819060200160405180910390a15060019392505050565b825483906001600160a01b03163314610b535760405162461bcd60e51b815260206004820152601e60248201527f47656f64655574696c733a2053454e41544520726f6c65206e656564656400006044820152606401610375565b80600501544210610ba65760405162461bcd60e51b815260206004820152601d60248201527f47656f64655574696c733a2053454e415445206e6f74206163746976650000006044820152606401610375565b60008281526009850160205260409020600201544210610c085760405162461bcd60e51b815260206004820152601c60248201527f47656f64655574696c733a2070726f706f73616c2065787069726564000000006044820152606401610375565b600082815260098501602052604090206001908101541415610c875760405162461bcd60e51b815260206004820152603260248201527f47656f64655574696c733a2053656e6174652063616e206e6f7420617070726f6044820152711d994814d95b985d1948141c9bdc1bdcd85b60721b6064820152608401610375565b6000828152600985016020526040908190209051630eee4dd960e41b815273__$71e976e6d346a5055cfd7fe2380e485d9d$__9163eee4dd9091610cd5918791879160030190600401611bca565b60006040518083038186803b158015610ced57600080fd5b505af4158015610d01573d6000803e3d6000fd5b50505060008381526009860160205260409081902054905163dff34ff160e01b815273__$71e976e6d346a5055cfd7fe2380e485d9d$__925063dff34ff191610d5c91879187916001600160a01b0390911690600401611c8f565b60006040518083038186803b158015610d7457600080fd5b505af4158015610d88573d6000803e3d6000fd5b5050506000838152600986016020526040908190206001015490516223bfa960ea1b81526004810186905260248101859052635459504560e01b6044820152606481019190915273__$71e976e6d346a5055cfd7fe2380e485d9d$__9150638efea4009060840160006040518083038186803b158015610e0757600080fd5b505af4158015610e1b573d6000803e3d6000fd5b5050506000838152600986016020818152604080842060019081018054865289845291852080549182018155855282852001879055928690525254600214159050610e935760008281526009850160205260409020546006850180546001600160a01b0319166001600160a01b039092169190911790555b6000828152600985016020526040808220426002909101555163f237bab360e01b81526004810185905260248101849052635459504560e01b604482015260088601919073__$71e976e6d346a5055cfd7fe2380e485d9d$__9063f237bab39060640160206040518083038186803b158015610f0e57600080fd5b505af4158015610f22573d6000803e3d6000fd5b505050506040513d601f19601f82011682018060405250810190610f469190611ba1565b815260208101919091526040016000205460ff1615610f7a576001846007016000828254610f749190611d44565b90915550505b6040518281527f28ec9e38ba73636ceb2f6c1574136f83bd46284a3c74734b711bf45e12f8d9299060200161096c565b600082815260098501602052604090206001908101541461100d5760405162461bcd60e51b815260206004820152601f60248201527f47656f64655574696c733a204e4f542053656e6174652050726f706f73616c006044820152606401610375565b60008281526009850160205260409020600201544211156110705760405162461bcd60e51b815260206004820152601c60248201527f47656f64655574696c733a2070726f706f73616c2065787069726564000000006044820152606401610375565b604051630143c90b60e71b815260048101849052602481018290526921a7a72a2927a62622a960b11b6044820152339073__$71e976e6d346a5055cfd7fe2380e485d9d$__9063a1e485809060640160206040518083038186803b1580156110d757600080fd5b505af41580156110eb573d6000803e3d6000fd5b505050506040513d601f19601f8201168201806040525081019061110f919061199b565b6001600160a01b03161461118b5760405162461bcd60e51b815260206004820152603f60248201527f47656f64655574696c733a206d73672e73656e6465722073686f756c6420626560448201527f20434f4e54524f4c4c4552206f6620676976656e20656c6563746f72496421006064820152608401610375565b60405163f237bab360e01b81526004810184905260248101829052635459504560e01b6044820152600885019060009073__$71e976e6d346a5055cfd7fe2380e485d9d$__9063f237bab39060640160206040518083038186803b1580156111f257600080fd5b505af4158015611206573d6000803e3d6000fd5b505050506040513d601f19601f8201168201806040525081019061122a9190611ba1565b815260208101919091526040016000205460ff1661128a5760405162461bcd60e51b815260206004820152601a60248201527f47656f64655574696c733a204e4f5420616e20656c6563746f720000000000006044820152606401610375565b8273__$71e976e6d346a5055cfd7fe2380e485d9d$__63f237bab3909184846040516020016112c9918152641d9bdd195960da1b602082015260250190565b604051602081830303815290604052805190602001206040518463ffffffff1660e01b815260040161130e939291909283526020830191909152604082015260600190565b60206040518083038186803b15801561132657600080fd5b505af415801561133a573d6000803e3d6000fd5b505050506040513d601f19601f8201168201806040525081019061135e9190611ba1565b156113ab5760405162461bcd60e51b815260206004820152601d60248201527f2047656f64655574696c733a20616c726561647920617070726f7665640000006044820152606401610375565b8273__$71e976e6d346a5055cfd7fe2380e485d9d$__638efea400909184846040516020016113ea918152641d9bdd195960da1b602082015260250190565b6040516020818303038152906040528051906020012060016040518563ffffffff1660e01b8152600401611437949392919093845260208401929092526040830152606082015260800190565b60006040518083038186803b15801561144f57600080fd5b505af4158015611463573d6000803e3d6000fd5b505060408051858152602081018590527f33952ef907843fd2ddd118a92dd935debf65b72965a557a364ea08deffca032f935001905060405180910390a160405163f237bab360e01b815260048101849052602481018390526c185c1c1c9bdd985b10dbdd5b9d609a1b604482015273__$71e976e6d346a5055cfd7fe2380e485d9d$__90638efea4009085908590849063f237bab39060640160206040518083038186803b15801561151557600080fd5b505af4158015611529573d6000803e3d6000fd5b505050506040513d601f19601f8201168201806040525081019061154d9190611ba1565b611558906001611d44565b6040516001600160e01b031960e086901b168152600481019390935260248301919091526c185c1c1c9bdd985b10dbdd5b9d609a1b6044830152606482015260840160006040518083038186803b1580156115b257600080fd5b505af41580156115c6573d6000803e3d6000fd5b505050506003846007015460016115dd9190611d44565b6115e8906002611d7e565b6115f29190611d5c565b60405163f237bab360e01b815260048101859052602481018490526c185c1c1c9bdd985b10dbdd5b9d609a1b604482015273__$71e976e6d346a5055cfd7fe2380e485d9d$__9063f237bab39060640160206040518083038186803b15801561165a57600080fd5b505af415801561166e573d6000803e3d6000fd5b505050506040513d601f19601f820116820180604052508101906116929190611ba1565b106117255760008281526009850160205260409020805485546001600160a01b0319166001600160a01b039091161785554260029091018190556116db906303c2670090611d44565b600585018190558454604080516001600160a01b03909216825260208201929092527f3f34afe456fb5b36c04b5d1e2ef0750086747ac542262fbf14a0b1aae5fd7ee8910161096c565b50505050565b6000816003015482600201541161174657816002015461174c565b81600301545b92915050565b611786604051806080016040528060006001600160a01b031681526020016000815260200160008152602001606081525090565b6000828152600984016020908152604091829020825160808101845281546001600160a01b031681526001820154928101929092526002810154928201929092526003820180549192916060840191906117df90611db4565b80601f016020809104026020016040519081016040528092919081815260200182805461180b90611db4565b80156118585780601f1061182d57610100808354040283529160200191611858565b820191906000526020600020905b81548152906001019060200180831161183b57829003601f168201915b505050505081525050905092915050565b600082600301548211156118bf5760405162461bcd60e51b815260206004820152601d60248201527f47656f64655574696c733a20666565206d6f7265207468616e204d41580000006044820152606401610375565b600283018290556040518281527fdc0a11b3afd9d2b87730bfe9e9101cd69a837b27ae7237f688776960dcb609d29060200160405180910390a150600192915050565b82805461190e90611db4565b90600052602060002090601f0160209004810192826119305760008555611976565b82601f1061194957805160ff1916838001178555611976565b82800160010185558215611976579182015b8281111561197657825182559160200191906001019061195b565b50611982929150611986565b5090565b5b808211156119825760008155600101611987565b6000602082840312156119ad57600080fd5b81516109a881611e05565b6000806000606084860312156119cd57600080fd5b833592506020840135915060408401356119e681611e05565b809150509250925092565b600060208284031215611a0357600080fd5b5035919050565b60008060408385031215611a1d57600080fd5b823591506020830135611a2f81611e05565b809150509250929050565b60008060008060008060a08789031215611a5357600080fd5b863595506020870135611a6581611e05565b94506040870135935060608701359250608087013567ffffffffffffffff80821115611a9057600080fd5b818901915089601f830112611aa457600080fd5b813581811115611ab357600080fd5b8a6020828501011115611ac557600080fd5b6020830194508093505050509295509295509295565b600080600060608486031215611af057600080fd5b505081359360208301359350604090920135919050565b60008060008060808587031215611b1d57600080fd5b84359350602085013592506040850135915060608501358015158114611b4257600080fd5b939692955090935050565b60008060008060808587031215611b6357600080fd5b5050823594602084013594506040840135936060013592509050565b60008060408385031215611b9257600080fd5b50508035926020909101359150565b600060208284031215611bb357600080fd5b5051919050565b8183823760009101908152919050565b838152600060208481840152636e616d6560e01b6040840152608060608401526000845481600182811c915080831680611c0557607f831692505b858310811415611c2357634e487b7160e01b85526022600452602485fd5b6080880183905260a08801818015611c425760018114611c5357611c7e565b60ff19861682528782019650611c7e565b60008b81526020902060005b86811015611c7857815484820152908501908901611c5f565b83019750505b50949b9a5050505050505050505050565b92835260208301919091526921a7a72a2927a62622a960b11b60408301526001600160a01b0316606082015260800190565b6000602080835260018060a01b038451168184015280840151604084015260408401516060840152606084015160808085015280518060a086015260005b81811015611d1b5782810184015186820160c001528301611cff565b81811115611d2d57600060c083880101525b50601f01601f19169390930160c001949350505050565b60008219821115611d5757611d57611def565b500190565b600082611d7957634e487b7160e01b600052601260045260246000fd5b500490565b6000816000190483118215151615611d9857611d98611def565b500290565b600082821015611daf57611daf611def565b500390565b600181811c90821680611dc857607f821691505b60208210811415611de957634e487b7160e01b600052602260045260246000fd5b50919050565b634e487b7160e01b600052601160045260246000fd5b6001600160a01b0381168114611e1a57600080fd5b5056fea264697066735822122001927a56348a2feb56b3928f8f088312922d9f9fbc9d463c0eb32baabd02429a64736f6c63430008070033",
  "libraries": {
    "DataStoreUtils": "0xc7332D9AbEF755C42b4dF9d9db09BEEf15F8f9Fb"
  },
  "devdoc": {
    "details": "Contracts relying on this library must initialize GeodeUtils.UniverseALL \"fee\" variables are limited by FEE_DENOMINATOR = 100%Admin functions are already protected. Note that this library contains both functions called by users(ID) and admins(GOVERNANCE, SENATE ) Note refer to DataStoreUtils before reviewing",
    "kind": "dev",
    "methods": {
      "approveProposal(GeodeUtils.Universe storage,DataStoreUtils.DataStore storage,uint256)": {
        "details": "Senate should not be able to approve expired proposalsSenate should not be able to approve SENATE proposals :)",
        "params": {
          "id": "given ID proposal that has been approved by Senate"
        }
      },
      "approveSenate(GeodeUtils.Universe storage,DataStoreUtils.DataStore storage,uint256,uint256)": {
        "details": "pins id as \"voted\" when approvedincreases \"approvalCount\" of proposalId by 1 when approved",
        "params": {
          "electorId": "should have the voting rights, msg.sender should be the CONTROLLER of given ID"
        }
      },
      "changeIdCONTROLLER(DataStoreUtils.DataStore storage,uint256,address)": {
        "details": "this operation can not be reverted by old CONTROLLERin case the current controller wants to remove the  need to upgrade to NO Controller they should provide smt like 0x0..dead"
      },
      "getGovernance(GeodeUtils.Universe storage)": {
        "returns": {
          "_0": "the address of GOVERNANCE"
        }
      },
      "getMaxOperationFee(GeodeUtils.Universe storage)": {
        "returns": {
          "_0": "MAX_OPERATION_FEE"
        }
      },
      "getOperationFee(GeodeUtils.Universe storage)": {
        "returns": {
          "_0": "active OPERATION_FEE; limited by MAX_OPERATION_FEE"
        }
      },
      "getSenate(GeodeUtils.Universe storage)": {
        "returns": {
          "_0": "the address of SENATE"
        }
      },
      "getSenateExpireTimestamp(GeodeUtils.Universe storage)": {
        "returns": {
          "_0": "the expiration date of current SENATE as a timestamp"
        }
      },
      "isUpgradeAllowed(GeodeUtils.Universe storage,address)": {
        "details": "address(0) should return false*",
        "returns": {
          "_0": "True if it is allowed by senate and false if not."
        }
      },
      "newProposal(GeodeUtils.Universe storage,address,uint256,uint256,bytes)": {
        "details": "refer to structure of Proposal for explanations of params"
      },
      "setElectorType(GeodeUtils.Universe storage,DataStoreUtils.DataStore storage,uint256,bool)": {
        "details": "can not set with the same value again, preventing double increment/decrements",
        "params": {
          "_isElector": "true if selected _type can vote for senate from now on",
          "_type": "selected type"
        }
      },
      "setMaxOperationFee(GeodeUtils.Universe storage,uint256)": {
        "details": "can not set a fee more than FEE_DENOMINATOR (100%)",
        "returns": {
          "_0": "true if the operation was succesful"
        }
      },
      "setOperationFee(GeodeUtils.Universe storage,uint256)": {
        "details": "can not set a fee more than MAXno need to check FEE_DENOMINATOR",
        "returns": {
          "_0": "true if the operation was succesful, might be helpful when governance rights are distributed"
        }
      }
    },
    "title": "GeodeUtils library",
    "version": 1
  },
  "userdoc": {
    "kind": "user",
    "methods": {
      "approveProposal(GeodeUtils.Universe storage,DataStoreUtils.DataStore storage,uint256)": {
        "notice": "type specific changes for reserved_types(1,2,3) are implemented here,  any other addition should take place in Portal, as not related"
      },
      "approveSenate(GeodeUtils.Universe storage,DataStoreUtils.DataStore storage,uint256,uint256)": {
        "notice": "Proposed CONTROLLER is the new Senate after 2/3 of the electors are approved NOTE mathematically, min 4 elector is needed for (c+1)*2/3 to work properlyid can not vote if: - approved already - not its type is not elector - not proposal is expired - not senate proposal"
      },
      "changeIdCONTROLLER(DataStoreUtils.DataStore storage,uint256,address)": {
        "notice": "only the current CONTROLLER can change"
      },
      "getOperationFee(GeodeUtils.Universe storage)": {
        "notice": "MAX_OPERATION_FEE must limit OPERATION_FEE even if MAX is changed"
      },
      "getProposal(GeodeUtils.Universe storage,uint256)": {
        "notice": "CONTROLLER Proposals"
      },
      "isUpgradeAllowed(GeodeUtils.Universe storage,address)": {
        "notice": "Get if it is allowed to change a specific contract with the current version."
      },
      "newProposal(GeodeUtils.Universe storage,address,uint256,uint256,bytes)": {
        "notice": "to ensure the flexibility of Governance-less upgrades in the future, Anyone can create a Proposal.a proposal can be overriden if: expired OR approved. DATASTORE(id) will not be overriden until the proposal is approved."
      },
      "setElectorType(GeodeUtils.Universe storage,DataStoreUtils.DataStore storage,uint256,bool)": {
        "notice": "only selected types can vote for senate"
      }
    },
    "notice": "Exclusively contains functions responsible for administration of Geode Portal, including functions related to \"limited upgradability\" with Senate & proposals.",
    "version": 1
  },
  "storageLayout": {
    "storage": [],
    "types": null
  }
}