{
  "address": "0x4fe8C658f268842445Ae8f95D4D6D8Cfd356a8C8",
  "abi": [
    {
      "anonymous": false,
      "inputs": [
        {
          "indexed": false,
          "internalType": "address",
          "name": "previousAdmin",
          "type": "address"
        },
        {
          "indexed": false,
          "internalType": "address",
          "name": "newAdmin",
          "type": "address"
        }
      ],
      "name": "AdminChanged",
      "type": "event"
    },
    {
      "anonymous": false,
      "inputs": [
        {
          "indexed": true,
          "internalType": "address",
          "name": "beacon",
          "type": "address"
        }
      ],
      "name": "BeaconUpgraded",
      "type": "event"
    },
    {
      "anonymous": false,
      "inputs": [
        {
          "indexed": false,
          "internalType": "uint256",
          "name": "version",
          "type": "uint256"
        }
      ],
      "name": "ContractVersionSet",
      "type": "event"
    },
    {
      "anonymous": false,
      "inputs": [
        {
          "indexed": false,
          "internalType": "uint256",
          "name": "id",
          "type": "uint256"
        },
        {
          "indexed": false,
          "internalType": "address",
          "name": "newCONTROLLER",
          "type": "address"
        }
      ],
      "name": "ControllerChanged",
      "type": "event"
    },
    {
      "anonymous": false,
      "inputs": [
        {
          "indexed": false,
          "internalType": "address",
          "name": "DefaultInterface",
          "type": "address"
        }
      ],
      "name": "DefaultInterfaceSet",
      "type": "event"
    },
    {
      "anonymous": false,
      "inputs": [
        {
          "indexed": false,
          "internalType": "uint256",
          "name": "id",
          "type": "uint256"
        },
        {
          "indexed": false,
          "internalType": "uint256",
          "name": "claimerId",
          "type": "uint256"
        },
        {
          "indexed": false,
          "internalType": "uint256",
          "name": "newSurplus",
          "type": "uint256"
        }
      ],
      "name": "FeeClaimed",
      "type": "event"
    },
    {
      "anonymous": false,
      "inputs": [
        {
          "indexed": false,
          "internalType": "uint256",
          "name": "id",
          "type": "uint256"
        },
        {
          "indexed": false,
          "internalType": "uint256",
          "name": "fee",
          "type": "uint256"
        }
      ],
      "name": "MaintainerFeeUpdated",
      "type": "event"
    },
    {
      "anonymous": false,
      "inputs": [
        {
          "indexed": false,
          "internalType": "uint256",
          "name": "newMaxFee",
          "type": "uint256"
        }
      ],
      "name": "MaxMaintainerFeeUpdated",
      "type": "event"
    },
    {
      "anonymous": false,
      "inputs": [
        {
          "indexed": false,
          "internalType": "uint256",
          "name": "newMaxFee",
          "type": "uint256"
        }
      ],
      "name": "MaxOperationFeeUpdated",
      "type": "event"
    },
    {
      "anonymous": false,
      "inputs": [
        {
          "indexed": false,
          "internalType": "uint256",
          "name": "_type",
          "type": "uint256"
        }
      ],
      "name": "NewElectorType",
      "type": "event"
    },
    {
      "anonymous": false,
      "inputs": [
        {
          "indexed": false,
          "internalType": "address",
          "name": "senate",
          "type": "address"
        },
        {
          "indexed": false,
          "internalType": "uint256",
          "name": "senate_expire_timestamp",
          "type": "uint256"
        }
      ],
      "name": "NewSenate",
      "type": "event"
    },
    {
      "anonymous": false,
      "inputs": [
        {
          "indexed": false,
          "internalType": "uint256",
          "name": "newFee",
          "type": "uint256"
        }
      ],
      "name": "OperationFeeUpdated",
      "type": "event"
    },
    {
      "anonymous": false,
      "inputs": [
        {
          "indexed": false,
          "internalType": "uint256",
          "name": "id",
          "type": "uint256"
        },
        {
          "indexed": false,
          "internalType": "uint256",
          "name": "activeOperator",
          "type": "uint256"
        }
      ],
      "name": "OperatorActivated",
      "type": "event"
    },
    {
      "anonymous": false,
      "inputs": [
        {
          "indexed": false,
          "internalType": "uint256",
          "name": "id",
          "type": "uint256"
        },
        {
          "indexed": false,
          "internalType": "uint256",
          "name": "deactiveOperator",
          "type": "uint256"
        }
      ],
      "name": "OperatorDeactivated",
      "type": "event"
    },
    {
      "anonymous": false,
      "inputs": [
        {
          "indexed": false,
          "internalType": "uint256",
          "name": "id",
          "type": "uint256"
        },
        {
          "indexed": false,
          "internalType": "uint256",
          "name": "price",
          "type": "uint256"
        },
        {
          "indexed": false,
          "internalType": "uint256",
          "name": "newPBalance",
          "type": "uint256"
        },
        {
          "indexed": false,
          "internalType": "uint256",
          "name": "distributedFeeTotal",
          "type": "uint256"
        },
        {
          "indexed": false,
          "internalType": "uint256",
          "name": "updateTimeStamp",
          "type": "uint256"
        }
      ],
      "name": "OracleUpdate",
      "type": "event"
    },
    {
      "anonymous": false,
      "inputs": [
        {
          "indexed": false,
          "internalType": "address",
          "name": "account",
          "type": "address"
        }
      ],
      "name": "Paused",
      "type": "event"
    },
    {
      "anonymous": false,
      "inputs": [
        {
          "indexed": false,
          "internalType": "uint256",
          "name": "id",
          "type": "uint256"
        }
      ],
      "name": "PausedPool",
      "type": "event"
    },
    {
      "anonymous": false,
      "inputs": [
        {
          "indexed": false,
          "internalType": "uint256",
          "name": "id",
          "type": "uint256"
        },
        {
          "indexed": false,
          "internalType": "uint256",
          "name": "pricePerShare",
          "type": "uint256"
        }
      ],
      "name": "PriceChanged",
      "type": "event"
    },
    {
      "anonymous": false,
      "inputs": [
        {
          "indexed": false,
          "internalType": "uint256",
          "name": "id",
          "type": "uint256"
        }
      ],
      "name": "ProposalApproved",
      "type": "event"
    },
    {
      "anonymous": false,
      "inputs": [
        {
          "indexed": false,
          "internalType": "uint256",
          "name": "id",
          "type": "uint256"
        },
        {
          "indexed": false,
          "internalType": "address",
          "name": "_CONTROLLER",
          "type": "address"
        },
        {
          "indexed": false,
          "internalType": "uint256",
          "name": "_type",
          "type": "uint256"
        },
        {
          "indexed": false,
          "internalType": "uint256",
          "name": "_duration",
          "type": "uint256"
        }
      ],
      "name": "Proposed",
      "type": "event"
    },
    {
      "anonymous": false,
      "inputs": [
        {
          "indexed": false,
          "internalType": "uint256",
          "name": "id",
          "type": "uint256"
        },
        {
          "indexed": false,
          "internalType": "uint256",
          "name": "newSurplus",
          "type": "uint256"
        }
      ],
      "name": "SurplusClaimed",
      "type": "event"
    },
    {
      "anonymous": false,
      "inputs": [
        {
          "indexed": false,
          "internalType": "address",
          "name": "account",
          "type": "address"
        }
      ],
      "name": "Unpaused",
      "type": "event"
    },
    {
      "anonymous": false,
      "inputs": [
        {
          "indexed": false,
          "internalType": "uint256",
          "name": "id",
          "type": "uint256"
        }
      ],
      "name": "UnpausedPool",
      "type": "event"
    },
    {
      "anonymous": false,
      "inputs": [
        {
          "indexed": true,
          "internalType": "address",
          "name": "implementation",
          "type": "address"
        }
      ],
      "name": "Upgraded",
      "type": "event"
    },
    {
      "anonymous": false,
      "inputs": [
        {
          "indexed": false,
          "internalType": "uint256",
          "name": "proposalId",
          "type": "uint256"
        },
        {
          "indexed": false,
          "internalType": "uint256",
          "name": "electorId",
          "type": "uint256"
        }
      ],
      "name": "Vote",
      "type": "event"
    },
    {
      "anonymous": false,
      "inputs": [
        {
          "indexed": false,
          "internalType": "uint256",
          "name": "id",
          "type": "uint256"
        },
        {
          "indexed": false,
          "internalType": "uint256",
          "name": "operatorId",
          "type": "uint256"
        },
        {
          "indexed": false,
          "internalType": "uint256",
          "name": "paidDebt",
          "type": "uint256"
        }
      ],
      "name": "debtPaid",
      "type": "event"
    },
    {
      "anonymous": false,
      "inputs": [
        {
          "indexed": false,
          "internalType": "uint256",
          "name": "operatorId",
          "type": "uint256"
        },
        {
          "indexed": false,
          "internalType": "uint256",
          "name": "planetId",
          "type": "uint256"
        },
        {
          "indexed": false,
          "internalType": "bytes",
          "name": "pBank",
          "type": "bytes"
        }
      ],
      "name": "pBankSet",
      "type": "event"
    },
    {
      "inputs": [],
      "name": "CONTRACT_VERSION",
      "outputs": [
        {
          "internalType": "uint256",
          "name": "",
          "type": "uint256"
        }
      ],
      "stateMutability": "view",
      "type": "function"
    },
    {
      "inputs": [],
      "name": "DEFAULT_INTERFACE",
      "outputs": [
        {
          "internalType": "address",
          "name": "",
          "type": "address"
        }
      ],
      "stateMutability": "view",
      "type": "function"
    },
    {
      "inputs": [
        {
          "internalType": "uint256",
          "name": "planetId",
          "type": "uint256"
        },
        {
          "internalType": "uint256",
          "name": "claimerId",
          "type": "uint256"
        }
      ],
      "name": "accumulatedFee",
      "outputs": [
        {
          "internalType": "uint256",
          "name": "",
          "type": "uint256"
        }
      ],
      "stateMutability": "view",
      "type": "function"
    },
    {
      "inputs": [
        {
          "internalType": "uint256",
          "name": "_id",
          "type": "uint256"
        },
        {
          "internalType": "uint256",
          "name": "_activeId",
          "type": "uint256"
        }
      ],
      "name": "activateOperator",
      "outputs": [
        {
          "internalType": "bool",
          "name": "",
          "type": "bool"
        }
      ],
      "stateMutability": "nonpayable",
      "type": "function"
    },
    {
      "inputs": [
        {
          "internalType": "uint256",
          "name": "_id",
          "type": "uint256"
        }
      ],
      "name": "approveProposal",
      "outputs": [],
      "stateMutability": "nonpayable",
      "type": "function"
    },
    {
      "inputs": [
        {
          "internalType": "uint256",
          "name": "proposalId",
          "type": "uint256"
        },
        {
          "internalType": "uint256",
          "name": "electorId",
          "type": "uint256"
        }
      ],
      "name": "approveSenate",
      "outputs": [],
      "stateMutability": "nonpayable",
      "type": "function"
    },
    {
      "inputs": [
        {
          "internalType": "uint256",
          "name": "_id",
          "type": "uint256"
        },
        {
          "internalType": "address",
          "name": "_newCONTROLLER",
          "type": "address"
        }
      ],
      "name": "changeIdCONTROLLER",
      "outputs": [],
      "stateMutability": "nonpayable",
      "type": "function"
    },
    {
      "inputs": [
        {
          "internalType": "uint256",
          "name": "_id",
          "type": "uint256"
        },
        {
          "internalType": "address",
          "name": "_newMaintainer",
          "type": "address"
        }
      ],
      "name": "changeIdMaintainer",
      "outputs": [],
      "stateMutability": "nonpayable",
      "type": "function"
    },
    {
      "inputs": [
        {
          "internalType": "uint256",
          "name": "planetId",
          "type": "uint256"
        },
        {
          "internalType": "uint256",
          "name": "claimerId",
          "type": "uint256"
        }
      ],
      "name": "claimFee",
      "outputs": [
        {
          "internalType": "uint256",
          "name": "feeSent",
          "type": "uint256"
        }
      ],
      "stateMutability": "nonpayable",
      "type": "function"
    },
    {
      "inputs": [
        {
          "internalType": "uint256",
          "name": "planetId",
          "type": "uint256"
        }
      ],
      "name": "claimSurplus",
      "outputs": [
        {
          "internalType": "bool",
          "name": "success",
          "type": "bool"
        }
      ],
      "stateMutability": "nonpayable",
      "type": "function"
    },
    {
      "inputs": [
        {
          "internalType": "uint256",
          "name": "_id",
          "type": "uint256"
        },
        {
          "internalType": "uint256",
          "name": "_deactivedId",
          "type": "uint256"
        }
      ],
      "name": "deactivateOperator",
      "outputs": [
        {
          "internalType": "bool",
          "name": "",
          "type": "bool"
        }
      ],
      "stateMutability": "nonpayable",
      "type": "function"
    },
    {
      "inputs": [],
      "name": "gAVAX",
      "outputs": [
        {
          "internalType": "address",
          "name": "",
          "type": "address"
        }
      ],
      "stateMutability": "view",
      "type": "function"
    },
    {
      "inputs": [
        {
          "internalType": "uint256",
          "name": "_id",
          "type": "uint256"
        }
      ],
      "name": "getCONTROLLERFromId",
      "outputs": [
        {
          "internalType": "address",
          "name": "",
          "type": "address"
        }
      ],
      "stateMutability": "view",
      "type": "function"
    },
    {
      "inputs": [],
      "name": "getFeeDenominator",
      "outputs": [
        {
          "internalType": "uint256",
          "name": "",
          "type": "uint256"
        }
      ],
      "stateMutability": "view",
      "type": "function"
    },
    {
      "inputs": [],
      "name": "getGovernance",
      "outputs": [
        {
          "internalType": "address",
          "name": "",
          "type": "address"
        }
      ],
      "stateMutability": "view",
      "type": "function"
    },
    {
      "inputs": [
        {
          "internalType": "string",
          "name": "_name",
          "type": "string"
        }
      ],
      "name": "getIdFromName",
      "outputs": [
        {
          "internalType": "uint256",
          "name": "_id",
          "type": "uint256"
        }
      ],
      "stateMutability": "pure",
      "type": "function"
    },
    {
      "inputs": [
        {
          "internalType": "uint256",
          "name": "_type",
          "type": "uint256"
        }
      ],
      "name": "getIdsByType",
      "outputs": [
        {
          "internalType": "uint256[]",
          "name": "",
          "type": "uint256[]"
        }
      ],
      "stateMutability": "view",
      "type": "function"
    },
    {
      "inputs": [
        {
          "internalType": "uint256",
          "name": "_id",
          "type": "uint256"
        }
      ],
      "name": "getMaintainerFeeFromId",
      "outputs": [
        {
          "internalType": "uint256",
          "name": "",
          "type": "uint256"
        }
      ],
      "stateMutability": "view",
      "type": "function"
    },
    {
      "inputs": [
        {
          "internalType": "uint256",
          "name": "_id",
          "type": "uint256"
        }
      ],
      "name": "getMaintainerFromId",
      "outputs": [
        {
          "internalType": "address",
          "name": "",
          "type": "address"
        }
      ],
      "stateMutability": "view",
      "type": "function"
    },
    {
      "inputs": [],
      "name": "getMaxOperationFee",
      "outputs": [
        {
          "internalType": "uint256",
          "name": "",
          "type": "uint256"
        }
      ],
      "stateMutability": "view",
      "type": "function"
    },
    {
      "inputs": [
        {
          "internalType": "uint256",
          "name": "_id",
          "type": "uint256"
        }
      ],
      "name": "getNameFromId",
      "outputs": [
        {
          "internalType": "bytes",
          "name": "",
          "type": "bytes"
        }
      ],
      "stateMutability": "view",
      "type": "function"
    },
    {
      "inputs": [],
      "name": "getOperationFee",
      "outputs": [
        {
          "internalType": "uint256",
          "name": "",
          "type": "uint256"
        }
      ],
      "stateMutability": "view",
      "type": "function"
    },
    {
      "inputs": [
        {
          "internalType": "uint256",
          "name": "operatorId",
          "type": "uint256"
        },
        {
          "internalType": "uint256",
          "name": "planetId",
          "type": "uint256"
        }
      ],
      "name": "getPBank",
      "outputs": [
        {
          "internalType": "bytes",
          "name": "",
          "type": "bytes"
        }
      ],
      "stateMutability": "view",
      "type": "function"
    },
    {
      "inputs": [
        {
          "internalType": "uint256",
          "name": "id",
          "type": "uint256"
        }
      ],
      "name": "getProposal",
      "outputs": [
        {
          "components": [
            {
              "internalType": "address",
              "name": "CONTROLLER",
              "type": "address"
            },
            {
              "internalType": "uint256",
              "name": "TYPE",
              "type": "uint256"
            },
            {
              "internalType": "uint256",
              "name": "deadline",
              "type": "uint256"
            },
            {
              "internalType": "bytes",
              "name": "name",
              "type": "bytes"
            }
          ],
          "internalType": "struct GeodeUtils.Proposal",
          "name": "",
          "type": "tuple"
        }
      ],
      "stateMutability": "view",
      "type": "function"
    },
    {
      "inputs": [],
      "name": "getSenate",
      "outputs": [
        {
          "internalType": "address",
          "name": "",
          "type": "address"
        }
      ],
      "stateMutability": "view",
      "type": "function"
    },
    {
      "inputs": [],
      "name": "getSenateExpireTimestamp",
      "outputs": [
        {
          "internalType": "uint256",
          "name": "",
          "type": "uint256"
        }
      ],
      "stateMutability": "view",
      "type": "function"
    },
    {
      "inputs": [],
      "name": "getStakePoolParams",
      "outputs": [
        {
          "components": [
            {
              "internalType": "address",
              "name": "gAVAX",
              "type": "address"
            },
            {
              "internalType": "address",
              "name": "DEFAULT_SWAP_POOL",
              "type": "address"
            },
            {
              "internalType": "address",
              "name": "DEFAULT_LP_TOKEN",
              "type": "address"
            },
            {
              "internalType": "address",
              "name": "ORACLE",
              "type": "address"
            },
            {
              "internalType": "uint256",
              "name": "DEFAULT_A",
              "type": "uint256"
            },
            {
              "internalType": "uint256",
              "name": "DEFAULT_FEE",
              "type": "uint256"
            },
            {
              "internalType": "uint256",
              "name": "DEFAULT_ADMIN_FEE",
              "type": "uint256"
            },
            {
              "internalType": "uint256",
              "name": "FEE_DENOMINATOR",
              "type": "uint256"
            },
            {
              "internalType": "uint256",
              "name": "PERIOD_PRICE_INCREASE_LIMIT",
              "type": "uint256"
            },
            {
              "internalType": "uint256",
              "name": "MAX_MAINTAINER_FEE",
              "type": "uint256"
            }
          ],
          "internalType": "struct StakeUtils.StakePool",
          "name": "",
          "type": "tuple"
        }
      ],
      "stateMutability": "view",
      "type": "function"
    },
    {
      "inputs": [],
      "name": "getVersion",
      "outputs": [
        {
          "internalType": "uint256",
          "name": "",
          "type": "uint256"
        }
      ],
      "stateMutability": "view",
      "type": "function"
    },
    {
      "inputs": [
        {
          "internalType": "address",
          "name": "_GOVERNANCE",
          "type": "address"
        },
        {
          "internalType": "address",
          "name": "_ORACLE",
          "type": "address"
        },
        {
          "internalType": "address",
          "name": "_gAVAX",
          "type": "address"
        },
        {
          "internalType": "address",
          "name": "_DEFAULT_SWAP_POOL",
          "type": "address"
        },
        {
          "internalType": "address",
          "name": "_DEFAULT_INTERFACE",
          "type": "address"
        },
        {
          "internalType": "address",
          "name": "_DEFAULT_LP_TOKEN",
          "type": "address"
        }
      ],
      "name": "initialize",
      "outputs": [],
      "stateMutability": "nonpayable",
      "type": "function"
    },
    {
      "inputs": [
        {
          "internalType": "uint256",
          "name": "_planetId",
          "type": "uint256"
        }
      ],
      "name": "isOracleActive",
      "outputs": [
        {
          "internalType": "bool",
          "name": "",
          "type": "bool"
        }
      ],
      "stateMutability": "view",
      "type": "function"
    },
    {
      "inputs": [
        {
          "internalType": "uint256",
          "name": "_id",
          "type": "uint256"
        }
      ],
      "name": "isStakingPausedForPool",
      "outputs": [
        {
          "internalType": "bool",
          "name": "",
          "type": "bool"
        }
      ],
      "stateMutability": "view",
      "type": "function"
    },
    {
      "inputs": [
        {
          "internalType": "address",
          "name": "_CONTROLLER",
          "type": "address"
        },
        {
          "internalType": "uint256",
          "name": "_type",
          "type": "uint256"
        },
        {
          "internalType": "uint256",
          "name": "_proposalDuration",
          "type": "uint256"
        },
        {
          "internalType": "bytes",
          "name": "_name",
          "type": "bytes"
        }
      ],
      "name": "newProposal",
      "outputs": [],
      "stateMutability": "nonpayable",
      "type": "function"
    },
    {
      "inputs": [
        {
          "internalType": "address",
          "name": "",
          "type": "address"
        },
        {
          "internalType": "address",
          "name": "",
          "type": "address"
        },
        {
          "internalType": "uint256[]",
          "name": "",
          "type": "uint256[]"
        },
        {
          "internalType": "uint256[]",
          "name": "",
          "type": "uint256[]"
        },
        {
          "internalType": "bytes",
          "name": "",
          "type": "bytes"
        }
      ],
      "name": "onERC1155BatchReceived",
      "outputs": [
        {
          "internalType": "bytes4",
          "name": "",
          "type": "bytes4"
        }
      ],
      "stateMutability": "nonpayable",
      "type": "function"
    },
    {
      "inputs": [
        {
          "internalType": "address",
          "name": "",
          "type": "address"
        },
        {
          "internalType": "address",
          "name": "",
          "type": "address"
        },
        {
          "internalType": "uint256",
          "name": "",
          "type": "uint256"
        },
        {
          "internalType": "uint256",
          "name": "",
          "type": "uint256"
        },
        {
          "internalType": "bytes",
          "name": "",
          "type": "bytes"
        }
      ],
      "name": "onERC1155Received",
      "outputs": [
        {
          "internalType": "bytes4",
          "name": "",
          "type": "bytes4"
        }
      ],
      "stateMutability": "nonpayable",
      "type": "function"
    },
    {
      "inputs": [
        {
          "internalType": "uint256",
          "name": "planetId",
          "type": "uint256"
        },
        {
          "internalType": "uint256",
          "name": "operatorId",
          "type": "uint256"
        }
      ],
      "name": "operatorActivationExpiration",
      "outputs": [
        {
          "internalType": "uint256",
          "name": "",
          "type": "uint256"
        }
      ],
      "stateMutability": "view",
      "type": "function"
    },
    {
      "inputs": [],
      "name": "pause",
      "outputs": [],
      "stateMutability": "nonpayable",
      "type": "function"
    },
    {
      "inputs": [
        {
          "internalType": "uint256",
          "name": "_id",
          "type": "uint256"
        }
      ],
      "name": "pauseStakingForPool",
      "outputs": [],
      "stateMutability": "nonpayable",
      "type": "function"
    },
    {
      "inputs": [],
      "name": "paused",
      "outputs": [
        {
          "internalType": "bool",
          "name": "",
          "type": "bool"
        }
      ],
      "stateMutability": "view",
      "type": "function"
    },
    {
      "inputs": [
        {
          "internalType": "uint256",
          "name": "planetId",
          "type": "uint256"
        },
        {
          "internalType": "uint256",
          "name": "operatorId",
          "type": "uint256"
        }
      ],
      "name": "payDebt",
      "outputs": [],
      "stateMutability": "payable",
      "type": "function"
    },
    {
      "inputs": [
        {
          "internalType": "uint256",
          "name": "_id",
          "type": "uint256"
        }
      ],
      "name": "planetActiveOperator",
      "outputs": [
        {
          "internalType": "uint256",
          "name": "",
          "type": "uint256"
        }
      ],
      "stateMutability": "view",
      "type": "function"
    },
    {
      "inputs": [
        {
          "internalType": "uint256",
          "name": "planetId",
          "type": "uint256"
        }
      ],
      "name": "planetClaimableSurplus",
      "outputs": [
        {
          "internalType": "uint256",
          "name": "",
          "type": "uint256"
        }
      ],
      "stateMutability": "view",
      "type": "function"
    },
    {
      "inputs": [
        {
          "internalType": "uint256",
          "name": "_id",
          "type": "uint256"
        }
      ],
      "name": "planetCurrentInterface",
      "outputs": [
        {
          "internalType": "address",
          "name": "",
          "type": "address"
        }
      ],
      "stateMutability": "view",
      "type": "function"
    },
    {
      "inputs": [
        {
          "internalType": "uint256",
          "name": "planetId",
          "type": "uint256"
        }
      ],
      "name": "planetDebt",
      "outputs": [
        {
          "internalType": "uint256",
          "name": "debtInAvax",
          "type": "uint256"
        }
      ],
      "stateMutability": "view",
      "type": "function"
    },
    {
      "inputs": [
        {
          "internalType": "uint256",
          "name": "_id",
          "type": "uint256"
        }
      ],
      "name": "planetLPToken",
      "outputs": [
        {
          "internalType": "address",
          "name": "",
          "type": "address"
        }
      ],
      "stateMutability": "view",
      "type": "function"
    },
    {
      "inputs": [
        {
          "internalType": "uint256",
          "name": "_id",
          "type": "uint256"
        }
      ],
      "name": "planetOraclePrice",
      "outputs": [
        {
          "internalType": "uint256",
          "name": "_pricePershare",
          "type": "uint256"
        }
      ],
      "stateMutability": "view",
      "type": "function"
    },
    {
      "inputs": [
        {
          "internalType": "uint256",
          "name": "planetId",
          "type": "uint256"
        }
      ],
      "name": "planetPBalance",
      "outputs": [
        {
          "internalType": "uint256",
          "name": "",
          "type": "uint256"
        }
      ],
      "stateMutability": "view",
      "type": "function"
    },
    {
      "inputs": [
        {
          "internalType": "uint256",
          "name": "planetId",
          "type": "uint256"
        }
      ],
      "name": "planetSurplus",
      "outputs": [
        {
          "internalType": "uint256",
          "name": "",
          "type": "uint256"
        }
      ],
      "stateMutability": "view",
      "type": "function"
    },
    {
      "inputs": [
        {
          "internalType": "uint256",
          "name": "_id",
          "type": "uint256"
        }
      ],
      "name": "planetWithdrawalPool",
      "outputs": [
        {
          "internalType": "address",
          "name": "",
          "type": "address"
        }
      ],
      "stateMutability": "view",
      "type": "function"
    },
    {
      "inputs": [],
      "name": "proxiableUUID",
      "outputs": [
        {
          "internalType": "bytes32",
          "name": "",
          "type": "bytes32"
        }
      ],
      "stateMutability": "view",
      "type": "function"
    },
    {
      "inputs": [
        {
          "internalType": "uint256",
          "name": "_reportedTimeStamp",
          "type": "uint256"
        },
        {
          "internalType": "uint256",
          "name": "_planetId",
          "type": "uint256"
        },
        {
          "internalType": "uint256[]",
          "name": "_opIds",
          "type": "uint256[]"
        },
        {
          "internalType": "uint256[]",
          "name": "_pBalanceIncreases",
          "type": "uint256[]"
        }
      ],
      "name": "reportOracle",
      "outputs": [
        {
          "internalType": "uint256",
          "name": "price",
          "type": "uint256"
        }
      ],
      "stateMutability": "nonpayable",
      "type": "function"
    },
    {
      "inputs": [
        {
          "internalType": "address",
          "name": "_newDefault",
          "type": "address"
        }
      ],
      "name": "setDefaultInterface",
      "outputs": [],
      "stateMutability": "nonpayable",
      "type": "function"
    },
    {
      "inputs": [
        {
          "internalType": "uint256",
          "name": "_id",
          "type": "uint256"
        },
        {
          "internalType": "uint256",
          "name": "_newFee",
          "type": "uint256"
        }
      ],
      "name": "setMaintainerFee",
      "outputs": [],
      "stateMutability": "nonpayable",
      "type": "function"
    },
    {
      "inputs": [
        {
          "internalType": "uint256",
          "name": "_newMaxFee",
          "type": "uint256"
        }
      ],
      "name": "setMaxMaintainerFee",
      "outputs": [],
      "stateMutability": "nonpayable",
      "type": "function"
    },
    {
      "inputs": [
        {
          "internalType": "uint256",
          "name": "_newFee",
          "type": "uint256"
        }
      ],
      "name": "setMaxOperationFee",
      "outputs": [
        {
          "internalType": "bool",
          "name": "success",
          "type": "bool"
        }
      ],
      "stateMutability": "nonpayable",
      "type": "function"
    },
    {
      "inputs": [
        {
          "internalType": "uint256",
          "name": "_newFee",
          "type": "uint256"
        }
      ],
      "name": "setOperationFee",
      "outputs": [
        {
          "internalType": "bool",
          "name": "success",
          "type": "bool"
        }
      ],
      "stateMutability": "nonpayable",
      "type": "function"
    },
    {
      "inputs": [
        {
          "internalType": "uint256",
          "name": "operatorId",
          "type": "uint256"
        },
        {
          "internalType": "uint256",
          "name": "planetId",
          "type": "uint256"
        },
        {
          "internalType": "bytes",
          "name": "pBank",
          "type": "bytes"
        }
      ],
      "name": "setPBank",
      "outputs": [],
      "stateMutability": "nonpayable",
      "type": "function"
    },
    {
      "inputs": [
        {
          "internalType": "uint256",
          "name": "_id",
          "type": "uint256"
        },
        {
          "internalType": "address",
          "name": "_Interface",
          "type": "address"
        },
        {
          "internalType": "bool",
          "name": "isSet",
          "type": "bool"
        }
      ],
      "name": "setPlanetInterface",
      "outputs": [],
      "stateMutability": "nonpayable",
      "type": "function"
    },
    {
      "inputs": [
        {
          "internalType": "uint256",
          "name": "planetId",
          "type": "uint256"
        },
        {
          "internalType": "uint256",
          "name": "minGavax",
          "type": "uint256"
        },
        {
          "internalType": "uint256",
          "name": "deadline",
          "type": "uint256"
        }
      ],
      "name": "stake",
      "outputs": [
        {
          "internalType": "uint256",
          "name": "totalgAvax",
          "type": "uint256"
        }
      ],
      "stateMutability": "payable",
      "type": "function"
    },
    {
      "inputs": [
        {
          "internalType": "bytes4",
          "name": "interfaceId",
          "type": "bytes4"
        }
      ],
      "name": "supportsInterface",
      "outputs": [
        {
          "internalType": "bool",
          "name": "",
          "type": "bool"
        }
      ],
      "stateMutability": "view",
      "type": "function"
    },
    {
      "inputs": [
        {
          "internalType": "uint256",
          "name": "planetId",
          "type": "uint256"
        }
      ],
      "name": "unclaimedFees",
      "outputs": [
        {
          "internalType": "uint256",
          "name": "fee",
          "type": "uint256"
        }
      ],
      "stateMutability": "view",
      "type": "function"
    },
    {
      "inputs": [],
      "name": "unpause",
      "outputs": [],
      "stateMutability": "nonpayable",
      "type": "function"
    },
    {
      "inputs": [
        {
          "internalType": "uint256",
          "name": "_id",
          "type": "uint256"
        }
      ],
      "name": "unpauseStakingForPool",
      "outputs": [],
      "stateMutability": "nonpayable",
      "type": "function"
    },
    {
      "inputs": [
        {
          "internalType": "address",
          "name": "newImplementation",
          "type": "address"
        }
      ],
      "name": "upgradeTo",
      "outputs": [],
      "stateMutability": "nonpayable",
      "type": "function"
    },
    {
      "inputs": [
        {
          "internalType": "address",
          "name": "newImplementation",
          "type": "address"
        },
        {
          "internalType": "bytes",
          "name": "data",
          "type": "bytes"
        }
      ],
      "name": "upgradeToAndCall",
      "outputs": [],
      "stateMutability": "payable",
      "type": "function"
    }
  ],
  "solcInputHash": "492b8174343aef947d9cd2113004784d",
  "bytecode": "0x60a06040523060601b60805234801561001757600080fd5b5060805160601c61536861005260003960008181611384015281816113c4015281816115e901528181611629015261177601526153686000f3fe6080604052600436106103b85760003560e01c80636f2bbcc7116101f2578063b3f227271161010d578063e402a5e2116100a0578063ec2c65c11161006f578063ec2c65c114610b0b578063ed500faa14610b20578063f23a6e6114610b40578063f4e1fc4114610b6c57600080fd5b8063e402a5e214610a7e578063e6277b7314610a9e578063e683016414610abe578063eb21b9d414610ade57600080fd5b8063c7f758a8116100dc578063c7f758a8146109ef578063cc2a9a5b14610a1c578063da8c9ddb14610a3c578063dfa4b5c614610a5e57600080fd5b8063b3f2272714610955578063bc197c811461096a578063c400b849146109af578063c50daead146109cf57600080fd5b80639419c8ef116101855780639a5fefda116101545780639a5fefda146108e2578063a638f2e214610902578063a9a05dbb14610915578063adfdc8ee1461093557600080fd5b80639419c8ef1461086257806396c71db41461088257806398951b56146108a257806399ed1f91146108c257600080fd5b80638456cb59116101c15780638456cb59146107ed5780638896d8ae146108025780639198a89714610822578063939b02fc1461084257600080fd5b80636f2bbcc71461076b57806373e91a0e146107805780637b5de0c4146107ad578063839a2d9a146107cd57600080fd5b8063475cff14116102e25780635c975abb11610275578063689338761161024457806368933876146106f65780636c8b02f7146107165780636d07e404146107365780636d18c8fb1461075657600080fd5b80635c975abb1461068b5780636065164c146106a357806362cc01e7146106c35780636655f6df146106d657600080fd5b806352900774116102b1578063529007741461061557806352d1902d1461063557806355522a3b1461064a578063572197a81461066a57600080fd5b8063475cff14146105a25780634b4184d1146105c25780634f1ef286146105e257806350aa72f0146105f557600080fd5b8063289b3c0d1161035a5780633802779811610329578063380277981461054157806338b90333146105615780633f4ba83a14610578578063413133ce1461058d57600080fd5b8063289b3c0d146104b457806328a00fff146104e15780633197a82d146105015780633659cfe61461052157600080fd5b80630fee1deb116103965780630fee1deb146104345780631b2522bc146104545780631cc8f3de1461047457806323b18ad21461049457600080fd5b806301ffc9a7146103bd57806307a462ca146103f25780630d8e6e2c14610414575b600080fd5b3480156103c957600080fd5b506103dd6103d836600461490d565b610b82565b60405190151581526020015b60405180910390f35b3480156103fe57600080fd5b5061041261040d366004614a70565b610bb9565b005b34801561042057600080fd5b506101aa545b6040519081526020016103e9565b34801561044057600080fd5b5061042661044f366004614b06565b610c64565b34801561046057600080fd5b506103dd61046f366004614a57565b610d03565b34801561048057600080fd5b506103dd61048f366004614b06565b610eed565b3480156104a057600080fd5b506104266104af366004614b06565b610f8a565b3480156104c057600080fd5b506104c9611071565b6040516001600160a01b0390911681526020016103e9565b3480156104ed57600080fd5b506104126104fc366004614b9e565b6110fe565b34801561050d57600080fd5b5061042661051c366004614a57565b6112eb565b34801561052d57600080fd5b5061041261053c36600461464e565b611379565b34801561054d57600080fd5b5061042661055c366004614a57565b611459565b34801561056d57600080fd5b506104266101aa5481565b34801561058457600080fd5b506104126114a4565b34801561059957600080fd5b506104c96114d9565b3480156105ae57600080fd5b506104266105bd366004614a57565b611515565b3480156105ce57600080fd5b506104126105dd366004614a57565b61156f565b6104126105f036600461481f565b6115de565b34801561060157600080fd5b50610412610610366004614b06565b6116af565b34801561062157600080fd5b50610412610630366004614a57565b6116fe565b34801561064157600080fd5b50610426611769565b34801561065657600080fd5b506104c9610665366004614a57565b61181c565b34801561067657600080fd5b506101a9546104c9906001600160a01b031681565b34801561069757600080fd5b5060655460ff166103dd565b3480156106af57600080fd5b506104c96106be366004614a57565b6118aa565b6104126106d1366004614b06565b6118e8565b3480156106e257600080fd5b506104126106f1366004614b06565b6119b5565b34801561070257600080fd5b50610412610711366004614a57565b611a27565b34801561072257600080fd5b506104c9610731366004614a57565b611a67565b34801561074257600080fd5b50610412610751366004614a70565b611aaa565b34801561076257600080fd5b50610426611b1c565b34801561077757600080fd5b50610426611ba4565b34801561078c57600080fd5b506107a061079b366004614b06565b611be0565b6040516103e99190614cf0565b3480156107b957600080fd5b506104266107c8366004614b06565b611ce5565b3480156107d957600080fd5b506104266107e8366004614a57565b611dd4565b3480156107f957600080fd5b50610412612129565b34801561080e57600080fd5b5061042661081d36600461496b565b61215c565b34801561082e57600080fd5b506107a061083d366004614a57565b612190565b34801561084e57600080fd5b5061041261085d366004614aa0565b612222565b34801561086e57600080fd5b506103dd61087d366004614a57565b612338565b34801561088e57600080fd5b506103dd61089d366004614a57565b6123f2565b3480156108ae57600080fd5b506104126108bd366004614a57565b612435565b3480156108ce57600080fd5b506104126108dd36600461464e565b612ab8565b3480156108ee57600080fd5b506104266108fd366004614b28565b612b5b565b610426610910366004614bed565b612c4a565b34801561092157600080fd5b506103dd610930366004614a57565b612d90565b34801561094157600080fd5b506103dd610950366004614b06565b612d9e565b34801561096157600080fd5b506104c9612e10565b34801561097657600080fd5b5061099661098536600461470a565b63bc197c8160e01b95945050505050565b6040516001600160e01b031990911681526020016103e9565b3480156109bb57600080fd5b506104266109ca366004614a57565b612e4c565b3480156109db57600080fd5b506104c96109ea366004614a57565b612e8f565b3480156109fb57600080fd5b50610a0f610a0a366004614a57565b612eeb565b6040516103e99190614fb6565b348015610a2857600080fd5b50610412610a37366004614688565b612fae565b348015610a4857600080fd5b50610a516134a9565b6040516103e99190614ff7565b348015610a6a57600080fd5b506103dd610a79366004614a57565b61359f565b348015610a8a57600080fd5b50610412610a9936600461486e565b6135e2565b348015610aaa57600080fd5b50610426610ab9366004614a57565b6137b5565b348015610aca57600080fd5b50610426610ad9366004614a57565b6139fc565b348015610aea57600080fd5b50610afe610af9366004614a57565b613a50565b6040516103e99190614cac565b348015610b1757600080fd5b50610426613ab3565b348015610b2c57600080fd5b506104c9610b3b366004614a57565b613aef565b348015610b4c57600080fd5b50610996610b5b3660046147b7565b63f23a6e6160e01b95945050505050565b348015610b7857600080fd5b5061019954610426565b60006001600160e01b03198216630271189760e51b1480610bb357506301ffc9a760e01b6001600160e01b03198316145b92915050565b60655460ff1615610be55760405162461bcd60e51b8152600401610bdc90614d9b565b60405180910390fd5b6040516355e66bad60e01b81526101916004820152602481018390526001600160a01b038216604482015273__$3203ba5584f3f9d3a0d8e6013dbecad587$__906355e66bad906064015b60006040518083038186803b158015610c4857600080fd5b505af4158015610c5c573d6000803e3d6000fd5b505050505050565b60405163d965692d60e01b815261019160048201526024810183905260448101829052600090819073__$3203ba5584f3f9d3a0d8e6013dbecad587$__9063d965692d90606401604080518083038186803b158015610cc257600080fd5b505af4158015610cd6573d6000803e3d6000fd5b505050506040513d601f19601f82011682018060405250810190610cfa9190614ae2565b50949350505050565b6000610d1160655460ff1690565b15610d2e5760405162461bcd60e51b8152600401610bdc90614d9b565b60026001541415610d515760405162461bcd60e51b8152600401610bdc90614e47565b600260015560405163f237bab360e01b815261019160048201819052602482018490526d30b1ba34bb32a7b832b930ba37b960911b604483015273__$3203ba5584f3f9d3a0d8e6013dbecad587$__91632f11d0029190859073__$71e976e6d346a5055cfd7fe2380e485d9d$__9063f237bab39060640160206040518083038186803b158015610de157600080fd5b505af4158015610df5573d6000803e3d6000fd5b505050506040513d601f19601f82011682018060405250810190610e1991906148f4565b6040516001600160e01b031960e086901b16815260048101939093526024830191909152604482015260640160206040518083038186803b158015610e5d57600080fd5b505af4158015610e71573d6000803e3d6000fd5b505050506040513d601f19601f82011682018060405250810190610e9591906148d7565b905080610ee45760405162461bcd60e51b815260206004820152601e60248201527f506f7274616c3a204661696c656420746f2073656e6420737572706c757300006044820152606401610bdc565b60018055919050565b60405163e7345b6960e01b81526101916004820152602481018390526044810182905260009073__$3203ba5584f3f9d3a0d8e6013dbecad587$__9063e7345b69906064015b60206040518083038186803b158015610f4b57600080fd5b505af4158015610f5f573d6000803e3d6000fd5b505050506040513d601f19601f82011682018060405250810190610f8391906148d7565b9392505050565b600061019173__$71e976e6d346a5055cfd7fe2380e485d9d$__63f237bab390918585604051602001610fdc9181527330b1ba34bb30ba34b7b722bc3834b930ba34b7b760611b602082015260340190565b604051602081830303815290604052805190602001206040518463ffffffff1660e01b8152600401611021939291909283526020830191909152604082015260600190565b60206040518083038186803b15801561103957600080fd5b505af415801561104d573d6000803e3d6000fd5b505050506040513d601f19601f82011682018060405250810190610f8391906148f4565b60405163f00d779d60e01b8152610195600482015260009073__$470c7289acb57212a69b34ceb5289ef95c$__9063f00d779d906024015b60206040518083038186803b1580156110c157600080fd5b505af41580156110d5573d6000803e3d6000fd5b505050506040513d601f19601f820116820180604052508101906110f9919061466b565b905090565b60655460ff16156111215760405162461bcd60e51b8152600401610bdc90614d9b565b604051630143c90b60e71b8152339073__$71e976e6d346a5055cfd7fe2380e485d9d$__9063a1e485809061115e90610191908890600401614f0d565b60206040518083038186803b15801561117657600080fd5b505af415801561118a573d6000803e3d6000fd5b505050506040513d601f19601f820116820180604052508101906111ae919061466b565b6001600160a01b0316146112045760405162461bcd60e51b815260206004820152601d60248201527f506f7274616c3a2073656e646572206e6f74206d61696e7461696e65720000006044820152606401610bdc565b61019173__$71e976e6d346a5055cfd7fe2380e485d9d$__63eee4dd9090918585604051602001611245918152647042616e6b60d81b602082015260250190565b60405160208183030381529060405280519060200120856040518563ffffffff1660e01b815260040161127b9493929190614e7e565b60006040518083038186803b15801561129357600080fd5b505af41580156112a7573d6000803e3d6000fd5b505050507f3bc88bbd3a9c32c3ce5d01fb3f092508c56205e51eb07a9f231f76224f78e9088383836040516112de9392919061516e565b60405180910390a1505050565b60405163f237bab360e01b815260009073__$71e976e6d346a5055cfd7fe2380e485d9d$__9063f237bab39061132990610191908690600401614f98565b60206040518083038186803b15801561134157600080fd5b505af4158015611355573d6000803e3d6000fd5b505050506040513d601f19601f82011682018060405250810190610bb391906148f4565b306001600160a01b037f00000000000000000000000000000000000000000000000000000000000000001614156113c25760405162461bcd60e51b8152600401610bdc90614d03565b7f00000000000000000000000000000000000000000000000000000000000000006001600160a01b031661140b6000805160206152ec833981519152546001600160a01b031690565b6001600160a01b0316146114315760405162461bcd60e51b8152600401610bdc90614d4f565b61143a81613b32565b6040805160008082526020820190925261145691839190613c2e565b50565b6040516368b1fc4d60e11b815261019f600482015261019160248201526044810182905260009073__$3203ba5584f3f9d3a0d8e6013dbecad587$__9063d163f89a90606401611329565b610196546001600160a01b031633146114cf5760405162461bcd60e51b8152600401610bdc90614dc5565b6114d7613da8565b565b604051631fa66e6d60e11b815261019f600482015260009073__$3203ba5584f3f9d3a0d8e6013dbecad587$__90633f4cdcda906024016110a9565b60405163f237bab360e01b81526101916004820152602481018290526d30b1ba34bb32a7b832b930ba37b960911b604482015260009073__$71e976e6d346a5055cfd7fe2380e485d9d$__9063f237bab390606401611329565b604051632b49c8db60e11b815261019160048201526024810182905273__$3203ba5584f3f9d3a0d8e6013dbecad587$__9063569391b6906044015b60006040518083038186803b1580156115c357600080fd5b505af41580156115d7573d6000803e3d6000fd5b5050505050565b306001600160a01b037f00000000000000000000000000000000000000000000000000000000000000001614156116275760405162461bcd60e51b8152600401610bdc90614d03565b7f00000000000000000000000000000000000000000000000000000000000000006001600160a01b03166116706000805160206152ec833981519152546001600160a01b031690565b6001600160a01b0316146116965760405162461bcd60e51b8152600401610bdc90614d4f565b61169f82613b32565b6116ab82826001613c2e565b5050565b604051637efa2a7d60e11b815261019f60048201526101916024820152604481018390526064810182905273__$3203ba5584f3f9d3a0d8e6013dbecad587$__9063fdf454fa90608401610c30565b610196546001600160a01b031633146117295760405162461bcd60e51b8152600401610bdc90614dc5565b604051630700d74b60e01b815261019f60048201526024810182905273__$3203ba5584f3f9d3a0d8e6013dbecad587$__90630700d74b906044016115ab565b6000306001600160a01b037f000000000000000000000000000000000000000000000000000000000000000016146118095760405162461bcd60e51b815260206004820152603860248201527f555550535570677261646561626c653a206d757374206e6f742062652063616c60448201527f6c6564207468726f7567682064656c656761746563616c6c00000000000000006064820152608401610bdc565b506000805160206152ec83398151915290565b604051630143c90b60e71b815260009073__$71e976e6d346a5055cfd7fe2380e485d9d$__9063a1e485809061185a90610191908690600401614f0d565b60206040518083038186803b15801561187257600080fd5b505af4158015611886573d6000803e3d6000fd5b505050506040513d601f19601f82011682018060405250810190610bb3919061466b565b604051630143c90b60e71b815260009073__$71e976e6d346a5055cfd7fe2380e485d9d$__9063a1e485809061185a90610191908690600401614ec8565b6002600154141561190b5760405162461bcd60e51b8152600401610bdc90614e47565b600260015560655460ff16156119335760405162461bcd60e51b8152600401610bdc90614d9b565b6040516386a51db560e01b815261019f60048201526101916024820152604481018390526064810182905273__$3203ba5584f3f9d3a0d8e6013dbecad587$__906386a51db59060840160006040518083038186803b15801561199557600080fd5b505af41580156119a9573d6000803e3d6000fd5b50506001805550505050565b60655460ff16156119d85760405162461bcd60e51b8152600401610bdc90614d9b565b604051635fff751760e01b815261019560048201526101916024820152604481018390526064810182905273__$470c7289acb57212a69b34ceb5289ef95c$__90635fff751790608401610c30565b604051639e8c228360e01b815261019160048201526024810182905273__$3203ba5584f3f9d3a0d8e6013dbecad587$__90639e8c2283906044016115ab565b6040516303f4d30760e61b815261019160048201526024810182905260009073__$3203ba5584f3f9d3a0d8e6013dbecad587$__9063fd34c1c09060440161185a565b60655460ff1615611acd5760405162461bcd60e51b8152600401610bdc90614d9b565b60405163017e493760e31b81526101916004820152602481018390526001600160a01b038216604482015273__$470c7289acb57212a69b34ceb5289ef95c$__90630bf249b890606401610c30565b6040516314e00f7960e21b8152610195600482015260009073__$470c7289acb57212a69b34ceb5289ef95c$__906353803de4906024015b60206040518083038186803b158015611b6c57600080fd5b505af4158015611b80573d6000803e3d6000fd5b505050506040513d601f19601f820116820180604052508101906110f991906148f4565b604051631e0cbd7f60e11b8152610195600482015260009073__$470c7289acb57212a69b34ceb5289ef95c$__90633c197afe90602401611b54565b6060611bee60655460ff1690565b15611c0b5760405162461bcd60e51b8152600401610bdc90614d9b565b61019173__$71e976e6d346a5055cfd7fe2380e485d9d$__63035ca11690918585604051602001611c4c918152647042616e6b60d81b602082015260250190565b604051602081830303815290604052805190602001206040518463ffffffff1660e01b8152600401611c91939291909283526020830191909152604082015260600190565b60006040518083038186803b158015611ca957600080fd5b505af4158015611cbd573d6000803e3d6000fd5b505050506040513d6000823e601f3d908101601f19168201604052610f839190810190614937565b6000611cf360655460ff1690565b15611d105760405162461bcd60e51b8152600401610bdc90614d9b565b60026001541415611d335760405162461bcd60e51b8152600401610bdc90614e47565b6002600155604051624ffb0760e61b81526101916004820152602481018490526044810183905273__$3203ba5584f3f9d3a0d8e6013dbecad587$__906313fec1c09060640160206040518083038186803b158015611d9157600080fd5b505af4158015611da5573d6000803e3d6000fd5b505050506040513d601f19601f82011682018060405250810190611dc991906148f4565b600180559392505050565b6040516303f4d30760e61b815261019160048201526024810182905260009073__$3203ba5584f3f9d3a0d8e6013dbecad587$__9063fd34c1c09060440160206040518083038186803b158015611e2a57600080fd5b505af4158015611e3e573d6000803e3d6000fd5b505050506040513d601f19601f82011682018060405250810190611e62919061466b565b6001600160a01b03166314a6bf0f6040518163ffffffff1660e01b815260040160206040518083038186803b158015611e9a57600080fd5b505afa158015611eae573d6000803e3d6000fd5b505050506040513d601f19601f82011682018060405250810190611ed291906148f4565b60405163f237bab360e01b815290915073__$71e976e6d346a5055cfd7fe2380e485d9d$__9063f237bab390611f1090610191908690600401614f98565b60206040518083038186803b158015611f2857600080fd5b505af4158015611f3c573d6000803e3d6000fd5b505050506040513d601f19601f82011682018060405250810190611f6091906148f4565b60405163f237bab360e01b815273__$71e976e6d346a5055cfd7fe2380e485d9d$__9063f237bab390611f9b90610191908790600401614ee9565b60206040518083038186803b158015611fb357600080fd5b505af4158015611fc7573d6000803e3d6000fd5b505050506040513d601f19601f82011682018060405250810190611feb91906148f4565b11156121245760405163f237bab360e01b815260009073__$71e976e6d346a5055cfd7fe2380e485d9d$__9063f237bab39061202f90610191908790600401614f98565b60206040518083038186803b15801561204757600080fd5b505af415801561205b573d6000803e3d6000fd5b505050506040513d601f19601f8201168201806040525081019061207f91906148f4565b60405163f237bab360e01b815273__$71e976e6d346a5055cfd7fe2380e485d9d$__9063f237bab3906120ba90610191908890600401614ee9565b60206040518083038186803b1580156120d257600080fd5b505af41580156120e6573d6000803e3d6000fd5b505050506040513d601f19601f8201168201806040525081019061210a91906148f4565b612114919061522f565b905061212081836151e4565b9150505b919050565b610196546001600160a01b031633146121545760405162461bcd60e51b8152600401610bdc90614dc5565b6114d7613e3b565b60008282604051602001612171929190614c80565b60408051601f1981840301815291905280516020909101209392505050565b6040516301ae508b60e11b815260609073__$71e976e6d346a5055cfd7fe2380e485d9d$__9063035ca116906121ce90610191908690600401614ead565b60006040518083038186803b1580156121e657600080fd5b505af41580156121fa573d6000803e3d6000fd5b505050506040513d6000823e601f3d908101601f19168201604052610bb39190810190614937565b60655460ff16156122455760405162461bcd60e51b8152600401610bdc90614d9b565b604051630143c90b60e71b8152339073__$71e976e6d346a5055cfd7fe2380e485d9d$__9063a1e485809061228290610191908890600401614f0d565b60206040518083038186803b15801561229a57600080fd5b505af41580156122ae573d6000803e3d6000fd5b505050506040513d601f19601f820116820180604052508101906122d2919061466b565b6001600160a01b0316146123285760405162461bcd60e51b815260206004820152601d60248201527f506f7274616c3a2073656e646572206e6f74206d61696e7461696e65720000006044820152606401610bdc565b612333838383613e93565b505050565b610196546000906001600160a01b031633146123665760405162461bcd60e51b8152600401610bdc90614dc5565b604051637f3864d560e11b815261019560048201526024810183905273__$470c7289acb57212a69b34ceb5289ef95c$__9063fe70c9aa906044015b60206040518083038186803b1580156123ba57600080fd5b505af41580156123ce573d6000803e3d6000fd5b505050506040513d601f19601f82011682018060405250810190610bb391906148d7565b6040516385c56cc560e01b815261019160048201526024810182905260009073__$3203ba5584f3f9d3a0d8e6013dbecad587$__906385c56cc5906044016123a2565b60655460ff16156124585760405162461bcd60e51b8152600401610bdc90614d9b565b6040516325b0fcff60e11b8152610195600482015261019160248201526044810182905273__$470c7289acb57212a69b34ceb5289ef95c$__90634b61f9fe9060640160006040518083038186803b1580156124b357600080fd5b505af41580156124c7573d6000803e3d6000fd5b505060405163f237bab360e01b8152610191600482015260248101849052635459504560e01b604482015273__$71e976e6d346a5055cfd7fe2380e485d9d$__925063f237bab3915060640160206040518083038186803b15801561252b57600080fd5b505af415801561253f573d6000803e3d6000fd5b505050506040513d601f19601f8201168201806040525081019061256391906148f4565b6004141561262057604051630143c90b60e71b815273__$71e976e6d346a5055cfd7fe2380e485d9d$__9063dff34ff190610191908490849063a1e48580906125b29085908590600401614ec8565b60206040518083038186803b1580156125ca57600080fd5b505af41580156125de573d6000803e3d6000fd5b505050506040513d601f19601f82011682018060405250810190612602919061466b565b6040518463ffffffff1660e01b81526004016115ab93929190614f2e565b60405163f237bab360e01b8152610191600482015260248101829052635459504560e01b604482015273__$71e976e6d346a5055cfd7fe2380e485d9d$__9063f237bab39060640160206040518083038186803b15801561268057600080fd5b505af4158015612694573d6000803e3d6000fd5b505050506040513d601f19601f820116820180604052508101906126b891906148f4565b6005141561145657604051630143c90b60e71b815273__$71e976e6d346a5055cfd7fe2380e485d9d$__9063dff34ff190610191908490849063a1e48580906127079085908590600401614ec8565b60206040518083038186803b15801561271f57600080fd5b505af4158015612733573d6000803e3d6000fd5b505050506040513d601f19601f82011682018060405250810190612757919061466b565b6040518463ffffffff1660e01b815260040161277593929190614f2e565b60006040518083038186803b15801561278d57600080fd5b505af41580156127a1573d6000803e3d6000fd5b50506101a9546040516334e8609360e01b81526001600160a01b0390911660048201526000925073__$3203ba5584f3f9d3a0d8e6013dbecad587$__91506334e860939060240160206040518083038186803b15801561280057600080fd5b505af4158015612814573d6000803e3d6000fd5b505050506040513d601f19601f82011682018060405250810190612838919061466b565b9050806001600160a01b0316631d9a9ea28361019173__$71e976e6d346a5055cfd7fe2380e485d9d$__63035ca1169091876040518363ffffffff1660e01b8152600401612887929190614ead565b60006040518083038186803b15801561289f57600080fd5b505af41580156128b3573d6000803e3d6000fd5b505050506040513d6000823e601f3d908101601f191682016040526128db9190810190614937565b604051631fa66e6d60e11b815261019f600482015273__$3203ba5584f3f9d3a0d8e6013dbecad587$__90633f4cdcda9060240160206040518083038186803b15801561292757600080fd5b505af415801561293b573d6000803e3d6000fd5b505050506040513d601f19601f8201168201806040525081019061295f919061466b565b6040518463ffffffff1660e01b815260040161297d9392919061513d565b600060405180830381600087803b15801561299757600080fd5b505af11580156129ab573d6000803e3d6000fd5b505050506129bb82826001613e93565b604051636b4a768560e01b815261019f600482015261019160248201526044810183905260009073__$3203ba5584f3f9d3a0d8e6013dbecad587$__90636b4a76859060640160206040518083038186803b158015612a1957600080fd5b505af4158015612a2d573d6000803e3d6000fd5b505050506040513d601f19601f82011682018060405250810190612a51919061466b565b6101965460405163f2fde38b60e01b81526001600160a01b03918216600482015291925082169063f2fde38b90602401600060405180830381600087803b158015612a9b57600080fd5b505af1158015612aaf573d6000803e3d6000fd5b50505050505050565b60655460ff1615612adb5760405162461bcd60e51b8152600401610bdc90614d9b565b610196546001600160a01b03163314612b065760405162461bcd60e51b8152600401610bdc90614dc5565b6101a980546001600160a01b0319166001600160a01b0383169081179091556040519081527fe6846a8621a1ef6311f1292f92a0097c76a6ede02a8b870077a8941bb095a2369060200160405180910390a150565b600060026001541415612b805760405162461bcd60e51b8152600401610bdc90614e47565b600260015560655460ff1615612ba85760405162461bcd60e51b8152600401610bdc90614d9b565b604051635c3557c160e11b815273__$3203ba5584f3f9d3a0d8e6013dbecad587$__9063b86aaf8290612bed9061019f90610191908a908a908a908a906004016150a0565b60206040518083038186803b158015612c0557600080fd5b505af4158015612c19573d6000803e3d6000fd5b505050506040513d601f19601f82011682018060405250810190612c3d91906148f4565b6001805595945050505050565b6000612c5860655460ff1690565b15612c755760405162461bcd60e51b8152600401610bdc90614d9b565b60026001541415612c985760405162461bcd60e51b8152600401610bdc90614e47565b600260015560405163029dac9760e11b815261019f6004820152610191602482015260448101859052606481018490526084810183905273__$3203ba5584f3f9d3a0d8e6013dbecad587$__9063053b592e9060a40160206040518083038186803b158015612d0657600080fd5b505af4158015612d1a573d6000803e3d6000fd5b505050506040513d601f19601f82011682018060405250810190612d3e91906148f4565b905060008111611dc95760405162461bcd60e51b815260206004820152601b60248201527f506f7274616c3a20756e73756363657366756c206465706f73697400000000006044820152606401610bdc565b6000610bb3610191836140ee565b6000612dac60655460ff1690565b15612dc95760405162461bcd60e51b8152600401610bdc90614d9b565b604051636ecc896560e01b81526101916004820152602481018490526044810183905273__$3203ba5584f3f9d3a0d8e6013dbecad587$__90636ecc896590606401610f33565b604051632748984160e11b8152610195600482015260009073__$470c7289acb57212a69b34ceb5289ef95c$__90634e913082906024016110a9565b60405163538b984f60e01b815261019f60048201526024810182905260009073__$3203ba5584f3f9d3a0d8e6013dbecad587$__9063538b984f90604401611329565b604051630143c90b60e71b81526101916004820152602481018290526f63757272656e74496e7465726661636560801b604482015260009073__$71e976e6d346a5055cfd7fe2380e485d9d$__9063a1e485809060640161185a565b612f1f604051806080016040528060006001600160a01b031681526020016000815260200160008152602001606081525090565b60405163d115f19560e01b815261019560048201526024810183905273__$470c7289acb57212a69b34ceb5289ef95c$__9063d115f1959060440160006040518083038186803b158015612f7257600080fd5b505af4158015612f86573d6000803e3d6000fd5b505050506040513d6000823e601f3d908101601f19168201604052610bb391908101906149ac565b600054610100900460ff16612fc95760005460ff1615612fcd565b303b155b6130305760405162461bcd60e51b815260206004820152602e60248201527f496e697469616c697a61626c653a20636f6e747261637420697320616c72656160448201526d191e481a5b9a5d1a585b1a5e995960921b6064820152608401610bdc565b600054610100900460ff16158015613052576000805461ffff19166101011790555b61305a6141c5565b6130626141f4565b61306a614223565b613072614223565b6001600160a01b0387166130d45760405162461bcd60e51b815260206004820152602360248201527f506f7274616c3a205f474f5645524e414e43452063616e206e6f74206265207a60448201526265726f60e81b6064820152608401610bdc565b6001600160a01b03861661312a5760405162461bcd60e51b815260206004820152601f60248201527f506f7274616c3a205f4f5241434c452063616e206e6f74206265207a65726f006044820152606401610bdc565b6001600160a01b0385166131805760405162461bcd60e51b815260206004820152601e60248201527f506f7274616c3a205f67415641582063616e206e6f74206265207a65726f00006044820152606401610bdc565b6001600160a01b0384166131e95760405162461bcd60e51b815260206004820152602a60248201527f506f7274616c3a205f44454641554c545f535741505f504f4f4c2063616e206e6044820152696f74206265207a65726f60b01b6064820152608401610bdc565b6001600160a01b0383166132525760405162461bcd60e51b815260206004820152602a60248201527f506f7274616c3a205f44454641554c545f494e544552464143452063616e206e6044820152696f74206265207a65726f60b01b6064820152608401610bdc565b6001600160a01b0382166132ba5760405162461bcd60e51b815260206004820152602960248201527f506f7274616c3a205f44454641554c545f4c505f544f4b454e2063616e206e6f60448201526874206265207a65726f60b81b6064820152608401610bdc565b61019680546001600160a01b0389166001600160a01b03199182168117909255610195805490911690911790556132f56303c26700426151e4565b61019a556000610197819055610198556402540be40061019955604051630105835b60e41b815261019560048201526101916024820152600560448201526001606482015273__$470c7289acb57212a69b34ceb5289ef95c$__9063105835b09060840160006040518083038186803b15801561337157600080fd5b505af4158015613385573d6000803e3d6000fd5b50506101a980546001600160a01b03199081166001600160a01b0388811691909117909255610199546101a681905561019f805483168b85161790556101a2805483168c85161790556101a0805483168a85161790556101a18054909216928716929092179055603c6101a355623d09006101a45564012a05f2006101a5556103e8925061341591506002615210565b61341f91906151fc565b6101a7556101995460649061343590600a615210565b61343f91906151fc565b6101a85561019b80546001600160a01b031916905560016101aa8190556040519081527ffddcded6b4f4730c226821172046b48372d3cd963c159701ae1b7c3bcac541bb9060200160405180910390a18015612aaf576000805461ff001916905550505050505050565b61352360405180610140016040528060006001600160a01b0316815260200160006001600160a01b0316815260200160006001600160a01b0316815260200160006001600160a01b031681526020016000815260200160008152602001600081526020016000815260200160008152602001600081525090565b50604080516101408101825261019f546001600160a01b0390811682526101a054811660208301526101a1548116928201929092526101a25490911660608201526101a35460808201526101a45460a08201526101a55460c08201526101a65460e08201526101a7546101008201526101a85461012082015290565b6040516343dbfc0560e01b815261019560048201526024810182905260009073__$470c7289acb57212a69b34ceb5289ef95c$__906343dbfc05906044016123a2565b60655460ff16156136055760405162461bcd60e51b8152600401610bdc90614d9b565b610196546001600160a01b031633146136305760405162461bcd60e51b8152600401610bdc90614dc5565b61019173__$71e976e6d346a5055cfd7fe2380e485d9d$__63035ca11690918484604051602001613662929190614c80565b60408051601f198184030181529082905280516020909101206001600160e01b031960e085901b1682526136999291600401614ead565b60006040518083038186803b1580156136b157600080fd5b505af41580156136c5573d6000803e3d6000fd5b505050506040513d6000823e601f3d908101601f191682016040526136ed9190810190614937565b511561373b5760405162461bcd60e51b815260206004820152601c60248201527f504f5254414c3a206e616d6520616c726561647920636c61696d6564000000006044820152606401610bdc565b6040516305fc644760e11b815273__$470c7289acb57212a69b34ceb5289ef95c$__90630bf8c88e9061377e9061019590899089908990899089906004016150ea565b60006040518083038186803b15801561379657600080fd5b505af41580156137aa573d6000803e3d6000fd5b505050505050505050565b60405163f237bab360e01b815260009073__$71e976e6d346a5055cfd7fe2380e485d9d$__9063f237bab3906137f390610191908690600401614ee9565b60206040518083038186803b15801561380b57600080fd5b505af415801561381f573d6000803e3d6000fd5b505050506040513d601f19601f8201168201806040525081019061384391906148f4565b60405163f237bab360e01b815273__$71e976e6d346a5055cfd7fe2380e485d9d$__9063f237bab39061387e90610191908790600401614f98565b60206040518083038186803b15801561389657600080fd5b505af41580156138aa573d6000803e3d6000fd5b505050506040513d601f19601f820116820180604052508101906138ce91906148f4565b11156139f45760405163f237bab360e01b815273__$71e976e6d346a5055cfd7fe2380e485d9d$__9063f237bab39061390f90610191908690600401614ee9565b60206040518083038186803b15801561392757600080fd5b505af415801561393b573d6000803e3d6000fd5b505050506040513d601f19601f8201168201806040525081019061395f91906148f4565b60405163f237bab360e01b815273__$71e976e6d346a5055cfd7fe2380e485d9d$__9063f237bab39061399a90610191908790600401614f98565b60206040518083038186803b1580156139b257600080fd5b505af41580156139c6573d6000803e3d6000fd5b505050506040513d601f19601f820116820180604052508101906139ea91906148f4565b610bb3919061522f565b506000919050565b60405163f237bab360e01b8152610191600482015260248101829052677042616c616e636560c01b604482015260009073__$71e976e6d346a5055cfd7fe2380e485d9d$__9063f237bab390606401611329565b60008181526101916020908152604091829020805483518184028101840190945280845260609392830182828015613aa757602002820191906000526020600020905b815481526020019060010190808311613a93575b50505050509050919050565b6040516320cd480560e21b8152610195600482015260009073__$470c7289acb57212a69b34ceb5289ef95c$__90638335201490602401611b54565b604051630f272bc760e21b815261019160048201526024810182905260009073__$3203ba5584f3f9d3a0d8e6013dbecad587$__90633c9caf1c9060440161185a565b6001600160a01b038116613b4557600080fd5b604051633680b40760e01b815261019560048201526001600160a01b038216602482015273__$470c7289acb57212a69b34ceb5289ef95c$__90633680b4079060440160206040518083038186803b158015613ba057600080fd5b505af4158015613bb4573d6000803e3d6000fd5b505050506040513d601f19601f82011682018060405250810190613bd891906148d7565b6114565760405162461bcd60e51b815260206004820152602160248201527f506f7274616c3a206973206e6f7420616c6c6f77656420746f207570677261646044820152606560f81b6064820152608401610bdc565b7f4910fdfa16fed3260ed0e7147f7cc6da11a60208b5b9406d12a635614ffd91435460ff1615613c61576123338361424a565b826001600160a01b03166352d1902d6040518163ffffffff1660e01b815260040160206040518083038186803b158015613c9a57600080fd5b505afa925050508015613cca575060408051601f3d908101601f19168201909252613cc7918101906148f4565b60015b613d2d5760405162461bcd60e51b815260206004820152602e60248201527f45524331393637557067726164653a206e657720696d706c656d656e7461746960448201526d6f6e206973206e6f74205555505360901b6064820152608401610bdc565b6000805160206152ec8339815191528114613d9c5760405162461bcd60e51b815260206004820152602960248201527f45524331393637557067726164653a20756e737570706f727465642070726f786044820152681a58589b195555525160ba1b6064820152608401610bdc565b506123338383836142e6565b60655460ff16613df15760405162461bcd60e51b815260206004820152601460248201527314185d5cd8589b194e881b9bdd081c185d5cd95960621b6044820152606401610bdc565b6065805460ff191690557f5db9ee0a495bf2e6ff9c91a7834c1ba4fdd244a5e8aa4e537bd38aeae4b073aa335b6040516001600160a01b03909116815260200160405180910390a1565b60655460ff1615613e5e5760405162461bcd60e51b8152600401610bdc90614d9b565b6065805460ff191660011790557f62e78cea01bee320cd4e420270b5ea74000d11b0c9f74754ebdbfc544b05a258613e1e3390565b604051631fa66e6d60e11b815261019f600482015273__$3203ba5584f3f9d3a0d8e6013dbecad587$__90633f4cdcda9060240160206040518083038186803b158015613edf57600080fd5b505af4158015613ef3573d6000803e3d6000fd5b505050506040513d601f19601f82011682018060405250810190613f17919061466b565b6040516327b03e0160e21b81526001600160a01b0384811660048301526024820186905283151560448301529190911690639ec0f80490606401600060405180830381600087803b158015613f6b57600080fd5b505af1158015613f7f573d6000803e3d6000fd5b505050508015613ff25760405163dff34ff160e01b815273__$71e976e6d346a5055cfd7fe2380e485d9d$__9063dff34ff190613fc6906101919087908790600401614f60565b60006040518083038186803b158015613fde57600080fd5b505af4158015612aaf573d6000803e3d6000fd5b604051630143c90b60e71b81526101916004820152602481018490526f63757272656e74496e7465726661636560801b60448201526001600160a01b0383169073__$71e976e6d346a5055cfd7fe2380e485d9d$__9063a1e485809060640160206040518083038186803b15801561406957600080fd5b505af415801561407d573d6000803e3d6000fd5b505050506040513d601f19601f820116820180604052508101906140a1919061466b565b6001600160a01b031614156123335760405163dff34ff160e01b815273__$71e976e6d346a5055cfd7fe2380e485d9d$__9063dff34ff190613fc690610191908790600090600401614f60565b60006107086141006201518042615272565b11158015610f8357506141156107084261522f565b60405163f237bab360e01b815260048101859052602481018490527406f7261636c6555706461746554696d655374616d7605c1b604482015273__$71e976e6d346a5055cfd7fe2380e485d9d$__9063f237bab39060640160206040518083038186803b15801561418557600080fd5b505af4158015614199573d6000803e3d6000fd5b505050506040513d601f19601f820116820180604052508101906141bd91906148f4565b109392505050565b600054610100900460ff166141ec5760405162461bcd60e51b8152600401610bdc90614dfc565b6114d7614311565b600054610100900460ff1661421b5760405162461bcd60e51b8152600401610bdc90614dfc565b6114d761433e565b600054610100900460ff166114d75760405162461bcd60e51b8152600401610bdc90614dfc565b6001600160a01b0381163b6142b75760405162461bcd60e51b815260206004820152602d60248201527f455243313936373a206e657720696d706c656d656e746174696f6e206973206e60448201526c1bdd08184818dbdb9d1c9858dd609a1b6064820152608401610bdc565b6000805160206152ec83398151915280546001600160a01b0319166001600160a01b0392909216919091179055565b6142ef83614371565b6000825111806142fc5750805b156123335761430b83836143b1565b50505050565b600054610100900460ff166143385760405162461bcd60e51b8152600401610bdc90614dfc565b60018055565b600054610100900460ff166143655760405162461bcd60e51b8152600401610bdc90614dfc565b6065805460ff19169055565b61437a8161424a565b6040516001600160a01b038216907fbc7cd75a20ee27fd9adebab32041f755214dbc6bffa90cc0225b39da2e5c2d3b90600090a250565b60606001600160a01b0383163b6144195760405162461bcd60e51b815260206004820152602660248201527f416464726573733a2064656c65676174652063616c6c20746f206e6f6e2d636f6044820152651b9d1c9858dd60d21b6064820152608401610bdc565b600080846001600160a01b0316846040516144349190614c90565b600060405180830381855af49150503d806000811461446f576040519150601f19603f3d011682016040523d82523d6000602084013e614474565b606091505b509150915061449c828260405180606001604052806027815260200161530c602791396144a5565b95945050505050565b606083156144b4575081610f83565b8251156144c45782518084602001fd5b8160405162461bcd60e51b8152600401610bdc9190614cf0565b600082601f8301126144ef57600080fd5b813560206001600160401b0382111561450a5761450a6152b2565b8160051b61451982820161518d565b83815282810190868401838801850189101561453457600080fd5b600093505b85841015614557578035835260019390930192918401918401614539565b50979650505050505050565b60008083601f84011261457557600080fd5b5081356001600160401b0381111561458c57600080fd5b6020830191508360208285010111156145a457600080fd5b9250929050565b600082601f8301126145bc57600080fd5b81356145cf6145ca826151bd565b61518d565b8181528460208386010111156145e457600080fd5b816020850160208301376000918101602001919091529392505050565b600082601f83011261461257600080fd5b81516146206145ca826151bd565b81815284602083860101111561463557600080fd5b614646826020830160208701615246565b949350505050565b60006020828403121561466057600080fd5b8135610f83816152c8565b60006020828403121561467d57600080fd5b8151610f83816152c8565b60008060008060008060c087890312156146a157600080fd5b86356146ac816152c8565b955060208701356146bc816152c8565b945060408701356146cc816152c8565b935060608701356146dc816152c8565b925060808701356146ec816152c8565b915060a08701356146fc816152c8565b809150509295509295509295565b600080600080600060a0868803121561472257600080fd5b853561472d816152c8565b9450602086013561473d816152c8565b935060408601356001600160401b038082111561475957600080fd5b61476589838a016144de565b9450606088013591508082111561477b57600080fd5b61478789838a016144de565b9350608088013591508082111561479d57600080fd5b506147aa888289016145ab565b9150509295509295909350565b600080600080600060a086880312156147cf57600080fd5b85356147da816152c8565b945060208601356147ea816152c8565b9350604086013592506060860135915060808601356001600160401b0381111561481357600080fd5b6147aa888289016145ab565b6000806040838503121561483257600080fd5b823561483d816152c8565b915060208301356001600160401b0381111561485857600080fd5b614864858286016145ab565b9150509250929050565b60008060008060006080868803121561488657600080fd5b8535614891816152c8565b9450602086013593506040860135925060608601356001600160401b038111156148ba57600080fd5b6148c688828901614563565b969995985093965092949392505050565b6000602082840312156148e957600080fd5b8151610f83816152dd565b60006020828403121561490657600080fd5b5051919050565b60006020828403121561491f57600080fd5b81356001600160e01b031981168114610f8357600080fd5b60006020828403121561494957600080fd5b81516001600160401b0381111561495f57600080fd5b61464684828501614601565b6000806020838503121561497e57600080fd5b82356001600160401b0381111561499457600080fd5b6149a085828601614563565b90969095509350505050565b6000602082840312156149be57600080fd5b81516001600160401b03808211156149d557600080fd5b90830190608082860312156149e957600080fd5b604051608081018181108382111715614a0457614a046152b2565b6040528251614a12816152c8565b808252506020830151602082015260408301516040820152606083015182811115614a3c57600080fd5b614a4887828601614601565b60608301525095945050505050565b600060208284031215614a6957600080fd5b5035919050565b60008060408385031215614a8357600080fd5b823591506020830135614a95816152c8565b809150509250929050565b600080600060608486031215614ab557600080fd5b833592506020840135614ac7816152c8565b91506040840135614ad7816152dd565b809150509250925092565b60008060408385031215614af557600080fd5b505080516020909101519092909150565b60008060408385031215614b1957600080fd5b50508035926020909101359150565b60008060008060808587031215614b3e57600080fd5b843593506020850135925060408501356001600160401b0380821115614b6357600080fd5b614b6f888389016144de565b93506060870135915080821115614b8557600080fd5b50614b92878288016144de565b91505092959194509250565b600080600060608486031215614bb357600080fd5b833592506020840135915060408401356001600160401b03811115614bd757600080fd5b614be3868287016145ab565b9150509250925092565b600080600060608486031215614c0257600080fd5b505081359360208301359350604090920135919050565b600081518084526020808501945080840160005b83811015614c4957815187529582019590820190600101614c2d565b509495945050505050565b60008151808452614c6c816020860160208601615246565b601f01601f19169290920160200192915050565b8183823760009101908152919050565b60008251614ca2818460208701615246565b9190910192915050565b6020808252825182820181905260009190848201906040850190845b81811015614ce457835183529284019291840191600101614cc8565b50909695505050505050565b602081526000610f836020830184614c54565b6020808252602c908201527f46756e6374696f6e206d7573742062652063616c6c6564207468726f7567682060408201526b19195b1959d85d1958d85b1b60a21b606082015260800190565b6020808252602c908201527f46756e6374696f6e206d7573742062652063616c6c6564207468726f7567682060408201526b6163746976652070726f787960a01b606082015260800190565b60208082526010908201526f14185d5cd8589b194e881c185d5cd95960821b604082015260600190565b6020808252601d908201527f506f7274616c3a2073656e646572206e6f7420474f5645524e414e4345000000604082015260600190565b6020808252602b908201527f496e697469616c697a61626c653a20636f6e7472616374206973206e6f74206960408201526a6e697469616c697a696e6760a81b606082015260800190565b6020808252601f908201527f5265656e7472616e637947756172643a207265656e7472616e742063616c6c00604082015260600190565b848152836020820152826040820152608060608201526000614ea36080830184614c54565b9695505050505050565b9182526020820152636e616d6560e01b604082015260600190565b91825260208201526921a7a72a2927a62622a960b11b604082015260600190565b91825260208201526c756e636c61696d65644665657360981b604082015260600190565b91825260208201526936b0b4b73a30b4b732b960b11b604082015260600190565b92835260208301919091526936b0b4b73a30b4b732b960b11b60408301526001600160a01b0316606082015260800190565b92835260208301919091526f63757272656e74496e7465726661636560801b60408301526001600160a01b0316606082015260800190565b918252602082015266737572706c757360c81b604082015260600190565b6020815260018060a01b03825116602082015260208201516040820152604082015160608201526000606083015160808084015261464660a0840182614c54565b81516001600160a01b031681526101408101602083015161502360208401826001600160a01b03169052565b50604083015161503e60408401826001600160a01b03169052565b50606083015161505960608401826001600160a01b03169052565b506080830151608083015260a083015160a083015260c083015160c083015260e083015160e083015261010080840151818401525061012080840151818401525092915050565b86815285602082015284604082015283606082015260c0608082015260006150cb60c0830185614c19565b82810360a08401526150dd8185614c19565b9998505050505050505050565b86815260018060a01b038616602082015284604082015283606082015260a060808201528160a0820152818360c0830137600081830160c090810191909152601f909201601f1916010195945050505050565b8381526060602082015260006151566060830185614c54565b905060018060a01b0383166040830152949350505050565b83815282602082015260606040820152600061449c6060830184614c54565b604051601f8201601f191681016001600160401b03811182821017156151b5576151b56152b2565b604052919050565b60006001600160401b038211156151d6576151d66152b2565b50601f01601f191660200190565b600082198211156151f7576151f7615286565b500190565b60008261520b5761520b61529c565b500490565b600081600019048311821515161561522a5761522a615286565b500290565b60008282101561524157615241615286565b500390565b60005b83811015615261578181015183820152602001615249565b8381111561430b5750506000910152565b6000826152815761528161529c565b500690565b634e487b7160e01b600052601160045260246000fd5b634e487b7160e01b600052601260045260246000fd5b634e487b7160e01b600052604160045260246000fd5b6001600160a01b038116811461145657600080fd5b801515811461145657600080fdfe360894a13ba1a3210667c828492db98dca3e2076cc3735a920a3ca505d382bbc416464726573733a206c6f772d6c6576656c2064656c65676174652063616c6c206661696c6564a2646970667358221220f73e1e6ac52cbbd22a67c9c4c8a61b15bac867ea73e3afb18ea7515b8a3373b964736f6c63430008070033",
  "devdoc": {
    "details": "refer to DataStoreUtils before reviewingrefer to GeodeUtils > Includes the logic for management of Geode Portal with Senate.refer to StakeUtils > Includes the logic for staking functionality with Withdrawal Pools",
    "events": {
      "OperationFeeUpdated(uint256)": {
        "details": "following events are added to help fellow devs with better ABIscontract size is not affected"
      }
    },
    "kind": "dev",
    "methods": {
      "accumulatedFee(uint256,uint256)": {
        "details": "for planet's maintainer's accumulatedFee (planetId,planetId)"
      },
      "approveProposal(uint256)": {
        "details": "only Senate is checked in GEODE.approveProposal"
      },
      "changeIdCONTROLLER(uint256,address)": {
        "details": "this action can not be overwritten by the old CONTROLLER after set."
      },
      "claimSurplus(uint256)": {
        "returns": {
          "success": "if transfer of funds is succesful"
        }
      },
      "deactivateOperator(uint256,uint256)": {
        "details": "when activationExpiration is up, operator will NOT be able generate fees from pool, it is expected for them to return the assets as surplus with payDebt function_deactivateAfter seconds until activation expires,"
      },
      "getIdsByType(uint256)": {
        "returns": {
          "_0": "allIdsByType array of DatastoreUtilsLib"
        }
      },
      "getMaintainerFromId(uint256)": {
        "details": "maintainer operates the id: claims the fee, pays the debt, signs the messages for verification etc."
      },
      "isOracleActive(uint256)": {
        "details": "returns false after oracle update for the given pool."
      },
      "newProposal(address,uint256,uint256,bytes)": {
        "details": "\"name already claimed check\" is being made here as override can be a wanted feature in the future",
        "params": {
          "_CONTROLLER": "address of the",
          "_name": "unique, id = keccak(name)",
          "_proposalDuration": "proposal can not approved after expiration but can be override",
          "_type": "of the proposal is seperator between different user experiences it can be upgrade proposal, senate election, operator/planet proposal etc."
        }
      },
      "paused()": {
        "details": "Returns true if the contract is paused, and false otherwise."
      },
      "payDebt(uint256,uint256)": {
        "details": "msg.value-debt is put to surplus, this can be used to increase surplus without minting new tokens!! useful to claim fees"
      },
      "planetCurrentInterface(uint256)": {
        "details": "not reliable => refer setPlanetInterface"
      },
      "planetDebt(uint256)": {
        "returns": {
          "debtInAvax": "is the current debt amount that pays for fees and provides a stable price to withdrawalPool"
        }
      },
      "planetOraclePrice(uint256)": {
        "details": "also the *mint price* as gAVAX.pricePerShare(id)TotalStakedAvax can be estimated by: TotalSupply(id) * planetOraclePrice(id)"
      },
      "planetPBalance(uint256)": {
        "returns": {
          "_0": "debtInAvax is the first guess that provides a withdrtawalPool price that is between limits of slippage when buyback&burn."
        }
      },
      "proxiableUUID()": {
        "details": "Implementation of the ERC1822 {proxiableUUID} function. This returns the storage slot used by the implementation. It is used to validate that the this implementation remains valid after an upgrade. IMPORTANT: A proxy pointing at a proxiable contract should not be considered proxiable itself, because this risks bricking a proxy that upgrades to it, by delegating to itself until out of gas. Thus it is critical that this function revert if invoked through a proxy. This is guaranteed by the `notDelegated` modifier."
      },
      "reportOracle(uint256,uint256,uint256[],uint256[])": {
        "details": "simply the new price is found by (pBALANCE + surplus - fees) / totalSupply)",
        "params": {
          "_opIds": "all ids of all operators who still collect fees.",
          "_pBalanceIncreases": "the amount of avax that has been gained by the operator as POS rewards, respective to _opIds"
        },
        "returns": {
          "price": ": new price after sanitychecks, might be useful if onchain oracle in the future"
        }
      },
      "setMaxOperationFee(uint256)": {
        "details": "onlySenate CHECKED inside"
      },
      "setPBank(uint256,uint256,bytes)": {
        "details": "this logic makes the operator-planet interactions more reliable and transparent when used by oracle to detect the token flow between different subchains."
      },
      "setPlanetInterface(uint256,address,bool)": {
        "params": {
          "_Interface": "address of the new gAVAX ERC1155 interface for given ID",
          "isSet": "true if new interface is going to be set, false if old interface is being unset"
        }
      },
      "supportsInterface(bytes4)": {
        "details": "See {IERC165-supportsInterface}."
      },
      "upgradeTo(address)": {
        "details": "Upgrade the implementation of the proxy to `newImplementation`. Calls {_authorizeUpgrade}. Emits an {Upgraded} event."
      },
      "upgradeToAndCall(address,bytes)": {
        "details": "Upgrade the implementation of the proxy to `newImplementation`, and subsequently execute the function call encoded in `data`. Calls {_authorizeUpgrade}. Emits an {Upgraded} event."
      }
    },
    "title": "Geode Finance Avalanche Portal: Avax Liquid Staking Geode Portal is a first of its kind Decentralized Minter that builds a trustless staking Ecosystem for any service provider.",
    "version": 1
  },
  "userdoc": {
    "kind": "user",
    "methods": {
      "DEFAULT_INTERFACE()": {
        "notice": "Default erc1155 interface, currently allows every id to be act as ERC20"
      },
      "accumulatedFee(uint256,uint256)": {
        "notice": "amount of fee (as AVAX) that has been distributed to the maintainer so far"
      },
      "activateOperator(uint256,uint256)": {
        "notice": "When a pool maintainer wants another operator's maintainer to be able to start claiming surplus and creating validators"
      },
      "changeIdCONTROLLER(uint256,address)": {
        "notice": "only CONTROLLER is allowed to change the CONTROLLER of the pool check is done inside the library."
      },
      "changeIdMaintainer(uint256,address)": {
        "notice": "only CONTROLLER is allowed to change the maintainer of the pool check is done inside the library."
      },
      "claimFee(uint256,uint256)": {
        "notice": "anyone can call this function, but it sends AVAX only to maintainer.reverts if there are not enough surplus."
      },
      "claimSurplus(uint256)": {
        "notice": "operators can not claim fees if: expired OR deactivatedcurrent unclaimedFees are not allowed to be claimed as surplus"
      },
      "deactivateOperator(uint256,uint256)": {
        "notice": "deactivates an old operator for the given staking pool"
      },
      "getCONTROLLERFromId(uint256)": {
        "notice": "returns address(0) for empty ids, mandatory"
      },
      "getIdFromName(string)": {
        "notice": "id is keccak(name)"
      },
      "getMaintainerFeeFromId(uint256)": {
        "notice": "even if MAX_MAINTAINER_FEE is decreased later, it returns limited maximum"
      },
      "getMaintainerFromId(uint256)": {
        "notice": "returns address(0) if NOT set, NOT mandatory"
      },
      "getNameFromId(uint256)": {
        "notice": "returns bytes(0) for empty ids, mandatory"
      },
      "getProposal(uint256)": {
        "notice": "** PROPOSALS **"
      },
      "getSenate()": {
        "notice": "** GOVERNANCE GETTERS **"
      },
      "isOracleActive(uint256)": {
        "notice": "Oracle is only allowed for a period every day & pool operations are stopped then"
      },
      "isStakingPausedForPool(uint256)": {
        "notice": "** Staking Pools **"
      },
      "newProposal(address,uint256,uint256,bytes)": {
        "notice": "creates a new proposal as id = keccak(name),"
      },
      "operatorActivationExpiration(uint256,uint256)": {
        "notice": "** Operator GETTERS ***"
      },
      "pauseStakingForPool(uint256)": {
        "notice": "when a pool is paused there are NO new funds to be minted, NO surplus."
      },
      "payDebt(uint256,uint256)": {
        "notice": "An Operator is expected to pay for the DEBT of a staking pool"
      },
      "planetActiveOperator(uint256)": {
        "notice": "ActiveOperator can claim the surplus of the given staking pool to create validators,There can be only one active operator for an ID. However old active operators can still continue operating until activationExpiration timestamp and acquire fees.*"
      },
      "planetClaimableSurplus(uint256)": {
        "notice": "total amount of staked Avax that can be claimed, as Fees are not claimable to be staked"
      },
      "planetDebt(uint256)": {
        "notice": "When a debt is calculated, it also takes the unclaimed Fees into consideration for the Planet since payDebt pays that -if it is more than surplus- first and then covers the withdrawal Pool."
      },
      "planetLPToken(uint256)": {
        "notice": "LP token of the Withdrawal pool of given ID"
      },
      "planetOraclePrice(uint256)": {
        "notice": "oraclePrice is a reliable source for any contract operation on-chain"
      },
      "planetPBalance(uint256)": {
        "notice": "Debt of the planet is found by approaching to it's price within WithdrawalPool"
      },
      "planetSurplus(uint256)": {
        "notice": "total amount of staked Avax that has been waiting to be staked"
      },
      "planetWithdrawalPool(uint256)": {
        "notice": "pool that maintains the price of the staking derivative"
      },
      "reportOracle(uint256,uint256,uint256[],uint256[])": {
        "notice": "only Oracle can report a new price. However price is not purely calculated by it. the balance on P subchain is estimated by it, including the unrealized staking rewards. Oracle has a pessimistic approach to make sure price will not decrease by a lot even in the case of loss of funds."
      },
      "setOperationFee(uint256)": {
        "notice": "** GOVERNANCE/SENATE SETTERS **"
      },
      "setPBank(uint256,uint256,bytes)": {
        "notice": "pBank is the only address on the P subchain that interacts with tokens that is claimed by operator as surplus."
      },
      "setPlanetInterface(uint256,address,bool)": {
        "notice": "if a planet did not unset an old Interface, before setting a new one;  & if new interface is unsetted, the old one will not be remembered!!  use gAVAX.isInterface(interface,  id)"
      }
    },
    "notice": "TYPE: seperates the proposals and related functionality between different ID types. * RESERVED TYPES on Portalv1: * * TYPE 4: Operator * * TYPE 5: Planet",
    "version": 1
  },
  "storageLayout": {
    "storage": [
      {
        "astId": 519,
        "contract": "contracts/Portal/Portal.sol:Portal",
        "label": "_initialized",
        "offset": 0,
        "slot": "0",
        "type": "t_bool"
      },
      {
        "astId": 522,
        "contract": "contracts/Portal/Portal.sol:Portal",
        "label": "_initializing",
        "offset": 1,
        "slot": "0",
        "type": "t_bool"
      },
      {
        "astId": 847,
        "contract": "contracts/Portal/Portal.sol:Portal",
        "label": "_status",
        "offset": 0,
        "slot": "1",
        "type": "t_uint256"
      },
      {
        "astId": 891,
        "contract": "contracts/Portal/Portal.sol:Portal",
        "label": "__gap",
        "offset": 0,
        "slot": "2",
        "type": "t_array(t_uint256)49_storage"
      },
      {
        "astId": 2122,
        "contract": "contracts/Portal/Portal.sol:Portal",
        "label": "__gap",
        "offset": 0,
        "slot": "51",
        "type": "t_array(t_uint256)50_storage"
      },
      {
        "astId": 743,
        "contract": "contracts/Portal/Portal.sol:Portal",
        "label": "_paused",
        "offset": 0,
        "slot": "101",
        "type": "t_bool"
      },
      {
        "astId": 832,
        "contract": "contracts/Portal/Portal.sol:Portal",
        "label": "__gap",
        "offset": 0,
        "slot": "102",
        "type": "t_array(t_uint256)49_storage"
      },
      {
        "astId": 2226,
        "contract": "contracts/Portal/Portal.sol:Portal",
        "label": "__gap",
        "offset": 0,
        "slot": "151",
        "type": "t_array(t_uint256)50_storage"
      },
      {
        "astId": 1057,
        "contract": "contracts/Portal/Portal.sol:Portal",
        "label": "__gap",
        "offset": 0,
        "slot": "201",
        "type": "t_array(t_uint256)50_storage"
      },
      {
        "astId": 1003,
        "contract": "contracts/Portal/Portal.sol:Portal",
        "label": "__gap",
        "offset": 0,
        "slot": "251",
        "type": "t_array(t_uint256)50_storage"
      },
      {
        "astId": 501,
        "contract": "contracts/Portal/Portal.sol:Portal",
        "label": "__gap",
        "offset": 0,
        "slot": "301",
        "type": "t_array(t_uint256)50_storage"
      },
      {
        "astId": 721,
        "contract": "contracts/Portal/Portal.sol:Portal",
        "label": "__gap",
        "offset": 0,
        "slot": "351",
        "type": "t_array(t_uint256)50_storage"
      },
      {
        "astId": 5025,
        "contract": "contracts/Portal/Portal.sol:Portal",
        "label": "DATASTORE",
        "offset": 0,
        "slot": "401",
        "type": "t_struct(DataStore)10566_storage"
      },
      {
        "astId": 5028,
        "contract": "contracts/Portal/Portal.sol:Portal",
        "label": "GEODE",
        "offset": 0,
        "slot": "405",
        "type": "t_struct(Universe)10815_storage"
      },
      {
        "astId": 5031,
        "contract": "contracts/Portal/Portal.sol:Portal",
        "label": "STAKEPOOL",
        "offset": 0,
        "slot": "415",
        "type": "t_struct(StakePool)11648_storage"
      },
      {
        "astId": 5034,
        "contract": "contracts/Portal/Portal.sol:Portal",
        "label": "DEFAULT_INTERFACE",
        "offset": 0,
        "slot": "425",
        "type": "t_address"
      },
      {
        "astId": 5036,
        "contract": "contracts/Portal/Portal.sol:Portal",
        "label": "CONTRACT_VERSION",
        "offset": 0,
        "slot": "426",
        "type": "t_uint256"
      },
      {
        "astId": 6515,
        "contract": "contracts/Portal/Portal.sol:Portal",
        "label": "__gap",
        "offset": 0,
        "slot": "427",
        "type": "t_array(t_uint256)45_storage"
      }
    ],
    "types": {
      "t_address": {
        "encoding": "inplace",
        "label": "address",
        "numberOfBytes": "20"
      },
      "t_array(t_uint256)45_storage": {
        "base": "t_uint256",
        "encoding": "inplace",
        "label": "uint256[45]",
        "numberOfBytes": "1440"
      },
      "t_array(t_uint256)49_storage": {
        "base": "t_uint256",
        "encoding": "inplace",
        "label": "uint256[49]",
        "numberOfBytes": "1568"
      },
      "t_array(t_uint256)50_storage": {
        "base": "t_uint256",
        "encoding": "inplace",
        "label": "uint256[50]",
        "numberOfBytes": "1600"
      },
      "t_array(t_uint256)dyn_storage": {
        "base": "t_uint256",
        "encoding": "dynamic_array",
        "label": "uint256[]",
        "numberOfBytes": "32"
      },
      "t_bool": {
        "encoding": "inplace",
        "label": "bool",
        "numberOfBytes": "1"
      },
      "t_bytes32": {
        "encoding": "inplace",
        "label": "bytes32",
        "numberOfBytes": "32"
      },
      "t_bytes_storage": {
        "encoding": "bytes",
        "label": "bytes",
        "numberOfBytes": "32"
      },
      "t_mapping(t_bytes32,t_address)": {
        "encoding": "mapping",
        "key": "t_bytes32",
        "label": "mapping(bytes32 => address)",
        "numberOfBytes": "32",
        "value": "t_address"
      },
      "t_mapping(t_bytes32,t_bytes_storage)": {
        "encoding": "mapping",
        "key": "t_bytes32",
        "label": "mapping(bytes32 => bytes)",
        "numberOfBytes": "32",
        "value": "t_bytes_storage"
      },
      "t_mapping(t_bytes32,t_uint256)": {
        "encoding": "mapping",
        "key": "t_bytes32",
        "label": "mapping(bytes32 => uint256)",
        "numberOfBytes": "32",
        "value": "t_uint256"
      },
      "t_mapping(t_uint256,t_array(t_uint256)dyn_storage)": {
        "encoding": "mapping",
        "key": "t_uint256",
        "label": "mapping(uint256 => uint256[])",
        "numberOfBytes": "32",
        "value": "t_array(t_uint256)dyn_storage"
      },
      "t_mapping(t_uint256,t_bool)": {
        "encoding": "mapping",
        "key": "t_uint256",
        "label": "mapping(uint256 => bool)",
        "numberOfBytes": "32",
        "value": "t_bool"
      },
      "t_mapping(t_uint256,t_struct(Proposal)10789_storage)": {
        "encoding": "mapping",
        "key": "t_uint256",
        "label": "mapping(uint256 => struct GeodeUtils.Proposal)",
        "numberOfBytes": "32",
        "value": "t_struct(Proposal)10789_storage"
      },
      "t_struct(DataStore)10566_storage": {
        "encoding": "inplace",
        "label": "struct DataStoreUtils.DataStore",
        "members": [
          {
            "astId": 10553,
            "contract": "contracts/Portal/Portal.sol:Portal",
            "label": "allIdsByType",
            "offset": 0,
            "slot": "0",
            "type": "t_mapping(t_uint256,t_array(t_uint256)dyn_storage)"
          },
          {
            "astId": 10557,
            "contract": "contracts/Portal/Portal.sol:Portal",
            "label": "uintData",
            "offset": 0,
            "slot": "1",
            "type": "t_mapping(t_bytes32,t_uint256)"
          },
          {
            "astId": 10561,
            "contract": "contracts/Portal/Portal.sol:Portal",
            "label": "bytesData",
            "offset": 0,
            "slot": "2",
            "type": "t_mapping(t_bytes32,t_bytes_storage)"
          },
          {
            "astId": 10565,
            "contract": "contracts/Portal/Portal.sol:Portal",
            "label": "addressData",
            "offset": 0,
            "slot": "3",
            "type": "t_mapping(t_bytes32,t_address)"
          }
        ],
        "numberOfBytes": "128"
      },
      "t_struct(Proposal)10789_storage": {
        "encoding": "inplace",
        "label": "struct GeodeUtils.Proposal",
        "members": [
          {
            "astId": 10782,
            "contract": "contracts/Portal/Portal.sol:Portal",
            "label": "CONTROLLER",
            "offset": 0,
            "slot": "0",
            "type": "t_address"
          },
          {
            "astId": 10784,
            "contract": "contracts/Portal/Portal.sol:Portal",
            "label": "TYPE",
            "offset": 0,
            "slot": "1",
            "type": "t_uint256"
          },
          {
            "astId": 10786,
            "contract": "contracts/Portal/Portal.sol:Portal",
            "label": "deadline",
            "offset": 0,
            "slot": "2",
            "type": "t_uint256"
          },
          {
            "astId": 10788,
            "contract": "contracts/Portal/Portal.sol:Portal",
            "label": "name",
            "offset": 0,
            "slot": "3",
            "type": "t_bytes_storage"
          }
        ],
        "numberOfBytes": "128"
      },
      "t_struct(StakePool)11648_storage": {
        "encoding": "inplace",
        "label": "struct StakeUtils.StakePool",
        "members": [
          {
            "astId": 11629,
            "contract": "contracts/Portal/Portal.sol:Portal",
            "label": "gAVAX",
            "offset": 0,
            "slot": "0",
            "type": "t_address"
          },
          {
            "astId": 11631,
            "contract": "contracts/Portal/Portal.sol:Portal",
            "label": "DEFAULT_SWAP_POOL",
            "offset": 0,
            "slot": "1",
            "type": "t_address"
          },
          {
            "astId": 11633,
            "contract": "contracts/Portal/Portal.sol:Portal",
            "label": "DEFAULT_LP_TOKEN",
            "offset": 0,
            "slot": "2",
            "type": "t_address"
          },
          {
            "astId": 11635,
            "contract": "contracts/Portal/Portal.sol:Portal",
            "label": "ORACLE",
            "offset": 0,
            "slot": "3",
            "type": "t_address"
          },
          {
            "astId": 11637,
            "contract": "contracts/Portal/Portal.sol:Portal",
            "label": "DEFAULT_A",
            "offset": 0,
            "slot": "4",
            "type": "t_uint256"
          },
          {
            "astId": 11639,
            "contract": "contracts/Portal/Portal.sol:Portal",
            "label": "DEFAULT_FEE",
            "offset": 0,
            "slot": "5",
            "type": "t_uint256"
          },
          {
            "astId": 11641,
            "contract": "contracts/Portal/Portal.sol:Portal",
            "label": "DEFAULT_ADMIN_FEE",
            "offset": 0,
            "slot": "6",
            "type": "t_uint256"
          },
          {
            "astId": 11643,
            "contract": "contracts/Portal/Portal.sol:Portal",
            "label": "FEE_DENOMINATOR",
            "offset": 0,
            "slot": "7",
            "type": "t_uint256"
          },
          {
            "astId": 11645,
            "contract": "contracts/Portal/Portal.sol:Portal",
            "label": "PERIOD_PRICE_INCREASE_LIMIT",
            "offset": 0,
            "slot": "8",
            "type": "t_uint256"
          },
          {
            "astId": 11647,
            "contract": "contracts/Portal/Portal.sol:Portal",
            "label": "MAX_MAINTAINER_FEE",
            "offset": 0,
            "slot": "9",
            "type": "t_uint256"
          }
        ],
        "numberOfBytes": "320"
      },
      "t_struct(Universe)10815_storage": {
        "encoding": "inplace",
        "label": "struct GeodeUtils.Universe",
        "members": [
          {
            "astId": 10791,
            "contract": "contracts/Portal/Portal.sol:Portal",
            "label": "SENATE",
            "offset": 0,
            "slot": "0",
            "type": "t_address"
          },
          {
            "astId": 10793,
            "contract": "contracts/Portal/Portal.sol:Portal",
            "label": "GOVERNANCE",
            "offset": 0,
            "slot": "1",
            "type": "t_address"
          },
          {
            "astId": 10795,
            "contract": "contracts/Portal/Portal.sol:Portal",
            "label": "OPERATION_FEE",
            "offset": 0,
            "slot": "2",
            "type": "t_uint256"
          },
          {
            "astId": 10797,
            "contract": "contracts/Portal/Portal.sol:Portal",
            "label": "MAX_OPERATION_FEE",
            "offset": 0,
            "slot": "3",
            "type": "t_uint256"
          },
          {
            "astId": 10799,
            "contract": "contracts/Portal/Portal.sol:Portal",
            "label": "FEE_DENOMINATOR",
            "offset": 0,
            "slot": "4",
            "type": "t_uint256"
          },
          {
            "astId": 10801,
            "contract": "contracts/Portal/Portal.sol:Portal",
            "label": "SENATE_EXPIRE_TIMESTAMP",
            "offset": 0,
            "slot": "5",
            "type": "t_uint256"
          },
          {
            "astId": 10803,
            "contract": "contracts/Portal/Portal.sol:Portal",
            "label": "approvedUpgrade",
            "offset": 0,
            "slot": "6",
            "type": "t_address"
          },
          {
            "astId": 10805,
            "contract": "contracts/Portal/Portal.sol:Portal",
            "label": "_electorCount",
            "offset": 0,
            "slot": "7",
            "type": "t_uint256"
          },
          {
            "astId": 10809,
            "contract": "contracts/Portal/Portal.sol:Portal",
            "label": "_electorTypes",
            "offset": 0,
            "slot": "8",
            "type": "t_mapping(t_uint256,t_bool)"
          },
          {
            "astId": 10814,
            "contract": "contracts/Portal/Portal.sol:Portal",
            "label": "_proposalForId",
            "offset": 0,
            "slot": "9",
            "type": "t_mapping(t_uint256,t_struct(Proposal)10789_storage)"
          }
        ],
        "numberOfBytes": "320"
      },
      "t_uint256": {
        "encoding": "inplace",
        "label": "uint256",
        "numberOfBytes": "32"
      }
    }
  }
}