{
  "address": "0xCa4E4229a0Aa81A4BF7aBC291f94F34B38726b51",
  "abi": [
    {
      "anonymous": false,
      "inputs": [
        {
          "indexed": true,
          "internalType": "address",
          "name": "provider",
          "type": "address"
        },
        {
          "indexed": false,
          "internalType": "uint256[]",
          "name": "tokenAmounts",
          "type": "uint256[]"
        },
        {
          "indexed": false,
          "internalType": "uint256[]",
          "name": "fees",
          "type": "uint256[]"
        },
        {
          "indexed": false,
          "internalType": "uint256",
          "name": "invariant",
          "type": "uint256"
        },
        {
          "indexed": false,
          "internalType": "uint256",
          "name": "lpTokenSupply",
          "type": "uint256"
        }
      ],
      "name": "AddLiquidity",
      "type": "event"
    },
    {
      "anonymous": false,
      "inputs": [
        {
          "indexed": false,
          "internalType": "uint256",
          "name": "newAdminFee",
          "type": "uint256"
        }
      ],
      "name": "NewAdminFee",
      "type": "event"
    },
    {
      "anonymous": false,
      "inputs": [
        {
          "indexed": false,
          "internalType": "uint256",
          "name": "newSwapFee",
          "type": "uint256"
        }
      ],
      "name": "NewSwapFee",
      "type": "event"
    },
    {
      "anonymous": false,
      "inputs": [
        {
          "indexed": true,
          "internalType": "address",
          "name": "provider",
          "type": "address"
        },
        {
          "indexed": false,
          "internalType": "uint256[]",
          "name": "tokenAmounts",
          "type": "uint256[]"
        },
        {
          "indexed": false,
          "internalType": "uint256",
          "name": "lpTokenSupply",
          "type": "uint256"
        }
      ],
      "name": "RemoveLiquidity",
      "type": "event"
    },
    {
      "anonymous": false,
      "inputs": [
        {
          "indexed": true,
          "internalType": "address",
          "name": "provider",
          "type": "address"
        },
        {
          "indexed": false,
          "internalType": "uint256[]",
          "name": "tokenAmounts",
          "type": "uint256[]"
        },
        {
          "indexed": false,
          "internalType": "uint256[]",
          "name": "fees",
          "type": "uint256[]"
        },
        {
          "indexed": false,
          "internalType": "uint256",
          "name": "invariant",
          "type": "uint256"
        },
        {
          "indexed": false,
          "internalType": "uint256",
          "name": "lpTokenSupply",
          "type": "uint256"
        }
      ],
      "name": "RemoveLiquidityImbalance",
      "type": "event"
    },
    {
      "anonymous": false,
      "inputs": [
        {
          "indexed": true,
          "internalType": "address",
          "name": "provider",
          "type": "address"
        },
        {
          "indexed": false,
          "internalType": "uint256",
          "name": "lpTokenAmount",
          "type": "uint256"
        },
        {
          "indexed": false,
          "internalType": "uint256",
          "name": "lpTokenSupply",
          "type": "uint256"
        },
        {
          "indexed": false,
          "internalType": "uint256",
          "name": "boughtId",
          "type": "uint256"
        },
        {
          "indexed": false,
          "internalType": "uint256",
          "name": "tokensBought",
          "type": "uint256"
        }
      ],
      "name": "RemoveLiquidityOne",
      "type": "event"
    },
    {
      "anonymous": false,
      "inputs": [
        {
          "indexed": true,
          "internalType": "address",
          "name": "buyer",
          "type": "address"
        },
        {
          "indexed": false,
          "internalType": "uint256",
          "name": "tokensSold",
          "type": "uint256"
        },
        {
          "indexed": false,
          "internalType": "uint256",
          "name": "tokensBought",
          "type": "uint256"
        },
        {
          "indexed": false,
          "internalType": "uint128",
          "name": "soldId",
          "type": "uint128"
        },
        {
          "indexed": false,
          "internalType": "uint128",
          "name": "boughtId",
          "type": "uint128"
        }
      ],
      "name": "TokenSwap",
      "type": "event"
    },
    {
      "inputs": [],
      "name": "MAX_ADMIN_FEE",
      "outputs": [
        {
          "internalType": "uint256",
          "name": "",
          "type": "uint256"
        }
      ],
      "stateMutability": "view",
      "type": "function"
    },
    {
      "inputs": [],
      "name": "MAX_SWAP_FEE",
      "outputs": [
        {
          "internalType": "uint256",
          "name": "",
          "type": "uint256"
        }
      ],
      "stateMutability": "view",
      "type": "function"
    },
    {
      "inputs": [],
      "name": "POOL_PRECISION_DECIMALS",
      "outputs": [
        {
          "internalType": "uint8",
          "name": "",
          "type": "uint8"
        }
      ],
      "stateMutability": "view",
      "type": "function"
    }
  ],
  "transactionHash": "0x1894ae99743911464a59661f2b12d39f618d4eb31110bcdc483068fdf355b304",
  "args": [],
  "solcInputHash": "492b8174343aef947d9cd2113004784d",
  "bytecode": "0x61459f61003a600b82828239805160001a60731461002d57634e487b7160e01b600052600060045260246000fd5b30600052607381538281f3fe73000000000000000000000000000000000000000030146080604052600436106101205760003560e01c806373fd6b3e116100ac578063aa0ce1861161007b578063aa0ce186146102a0578063ab3d8544146102b3578063e0692742146102be578063e7a4db81146102d1578063f3de0362146102f157600080fd5b806373fd6b3e1461023a5780637d0481601461025a578063834b49101461026d578063a5397b221461028057600080fd5b8063467e186c116100f3578063467e186c146101b45780634b23603c146101d457806370467276146101e757806370703e4a1461020757806371906c2c1461022757600080fd5b80630296ab501461012557806324c5c7511461014457806340370edf1461016657806341b91c2614610194575b600080fd5b61012d601281565b60405160ff90911681526020015b60405180910390f35b81801561015057600080fd5b5061016461015f366004613eb3565b6102fd565b005b81801561017257600080fd5b50610186610181366004613f53565b6104df565b60405190815260200161013b565b8180156101a057600080fd5b506101866101af366004613f53565b610e1c565b8180156101c057600080fd5b506101646101cf36600461402c565b611604565b6101866101e2366004614113565b611689565b8180156101f357600080fd5b5061016461020236600461402c565b6116f4565b61021a61021536600461402c565b611772565b60405161013b919061423a565b610186610235366004613e9a565b611868565b81801561024657600080fd5b5061021a61025536600461404e565b6119a4565b61018661026836600461402c565b611e48565b61018661027b366004613eef565b611f64565b81801561028c57600080fd5b5061018661029b366004614147565b6121f3565b6101866102ae366004613e9a565b61277e565b6101866305f5e10081565b6101866102cc3660046140a1565b6127ec565b8180156102dd57600080fd5b506101866102ec3660046140d6565b612882565b6101866402540be40081565b60088201546009830180546001600160a01b03909216916000919060019081106103295761032961453d565b6000918252602090912001546007850154604051627eeac760e11b81526001600160a01b0385169162fdd58e91610364913091600401614221565b60206040518083038186803b15801561037c57600080fd5b505afa158015610390573d6000803e3d6000fd5b505050506040513d601f19601f820116820180604052508101906103b49190614195565b6103be91906144f5565b9050801561042f576007840154604051637921219560e11b81526001600160a01b0384169163f242432a916103fc91309188919087906004016141e9565b600060405180830381600087803b15801561041657600080fd5b505af115801561042a573d6000803e3d6000fd5b505050505b6000846009016000815481106104475761044761453d565b90600052602060002001544761045d91906144f5565b905080156104d857604051600090339083908381818185875af1925050503d80600081146104a7576040519150601f19603f3d011682016040523d82523d6000602084013e6104ac565b606091505b50509050806104d65760405162461bcd60e51b81526004016104cd90614310565b60405180910390fd5b505b5050505050565b600082516002146105325760405162461bcd60e51b815260206004820181905260248201527f416d6f756e7473206d757374206d6174636820706f6f6c656420746f6b656e7360448201526064016104cd565b34836000815181106105465761054661453d565b6020026020010151146105b75760405162461bcd60e51b815260206004820152603360248201527f537761705574696c733a207265636569766564206c657373206f72206d6f72656044820152720810559056081d1a185b88195e1c1958dd1959606a1b60648201526084016104cd565b60088401546040805160e0810182526000808252602082018190529181018290526001600160a01b0390921691606081016105f188612c53565b81526020018760060160009054906101000a90046001600160a01b03166001600160a01b03168152602001600081526020018760090180548060200260200160405190810160405280929190818152602001828054801561067157602002820191906000526020600020905b81548152602001906001019080831161065d575b5050505050815250905080608001516001600160a01b03166318160ddd6040518163ffffffff1660e01b815260040160206040518083038186803b1580156106b857600080fd5b505afa1580156106cc573d6000803e3d6000fd5b505050506040513d601f19601f820116820180604052508101906106f09190614195565b60a082018190521561071a5761071761070d878360c00151612c5e565b8260600151612dc1565b81525b604080516002808252606082018352600092602083019080368337019050509050348260c001516000815181106107535761075361453d565b602002602001015161076591906143b1565b816000815181106107785761077861453d565b60200260200101818152505060005b60028110156108195760a08301511515806107bb575060008782815181106107b1576107b161453d565b6020026020010151115b6108075760405162461bcd60e51b815260206004820152601e60248201527f4d75737420737570706c7920616c6c20746f6b656e7320696e20706f6f6c000060448201526064016104cd565b806108118161450c565b915050610787565b506007870154604051627eeac760e11b81526000916001600160a01b0386169162fdd58e9161084d91309190600401614221565b60206040518083038186803b15801561086557600080fd5b505afa158015610879573d6000803e3d6000fd5b505050506040513d601f19601f8201168201806040525081019061089d9190614195565b9050836001600160a01b031663f242432a33308b600701548b6001815181106108c8576108c861453d565b60200260200101516040518563ffffffff1660e01b81526004016108ef94939291906141e9565b600060405180830381600087803b15801561090957600080fd5b505af115801561091d573d6000803e3d6000fd5b5050506007890154604051627eeac760e11b81528392506001600160a01b0387169162fdd58e91610952913091600401614221565b60206040518083038186803b15801561096a57600080fd5b505afa15801561097e573d6000803e3d6000fd5b505050506040513d601f19601f820116820180604052508101906109a29190614195565b6109ac91906144f5565b876001815181106109bf576109bf61453d565b602002602001018181525050866001815181106109de576109de61453d565b60200260200101518360c001516001815181106109fd576109fd61453d565b6020026020010151610a0f91906143b1565b82600181518110610a2257610a2261453d565b60200260200101818152505050610a46610a3c8883612c5e565b8360600151612dc1565b60208301819052825110610a905760405162461bcd60e51b8152602060048201526011602482015270442073686f756c6420696e63726561736560781b60448201526064016104cd565b6020820151604080840191909152805160028082526060820190925260009181602001602082028036833750505060a084015190915015610ca157600060028960040154610ade91906143c9565b905060005b6002811015610c7e57600085600001518660c001518381518110610b0957610b0961453d565b60200260200101518760200151610b2091906144d6565b610b2a91906143c9565b90506402540be400610b5e868481518110610b4757610b4761453d565b602002602001015183612fa990919063ffffffff16565b610b6890856144d6565b610b7291906143c9565b848381518110610b8457610b8461453d565b6020026020010181815250506402540be4008b60050154858481518110610bad57610bad61453d565b6020026020010151610bbf91906144d6565b610bc991906143c9565b858381518110610bdb57610bdb61453d565b6020026020010151610bed91906144f5565b8b6009018381548110610c0257610c0261453d565b9060005260206000200181905550838281518110610c2257610c2261453d565b6020026020010151858381518110610c3c57610c3c61453d565b6020026020010151610c4e91906144f5565b858381518110610c6057610c6061453d565b60209081029190910101525080610c768161450c565b915050610ae3565b50610c96610c8c8a85612c5e565b8560600151612dc1565b604085015250610cb8565b8151610cb69060098a01906020850190613dd8565b505b60008360a0015160001415610cd257506020830151610d00565b835160a08501516040860151610ce99083906144f5565b610cf391906144d6565b610cfd91906143c9565b90505b86811015610d505760405162461bcd60e51b815260206004820152601b60248201527f436f756c646e2774206d696e74206d696e20726571756573746564000000000060448201526064016104cd565b83608001516001600160a01b03166340c10f1933836040518363ffffffff1660e01b8152600401610d82929190614221565b600060405180830381600087803b158015610d9c57600080fd5b505af1158015610db0573d6000803e3d6000fd5b50505050336001600160a01b03167f189c623b666b1b45b83d7178f39b8c087cb09774317ca2f53c2d3c3726f222a289848760200151858960a00151610df691906143b1565b604051610e06949392919061427e565b60405180910390a29450505050505b9392505050565b60088301546040805160e08101825260008082526020820181905291810182905290916001600160a01b031690829060608101610e5888612c53565b81526020018760060160009054906101000a90046001600160a01b03166001600160a01b031681526020016000815260200187600901805480602002602001604051908101604052809291908181526020018280548015610ed857602002820191906000526020600020905b815481526020019060010190808311610ec4575b5050505050815250905080608001516001600160a01b03166318160ddd6040518163ffffffff1660e01b815260040160206040518083038186803b158015610f1f57600080fd5b505afa158015610f33573d6000803e3d6000fd5b505050506040513d601f19601f82011682018060405250810190610f579190614195565b60a08201528451600214610fad5760405162461bcd60e51b815260206004820181905260248201527f416d6f756e74732073686f756c64206d6174636820706f6f6c20746f6b656e7360448201526064016104cd565b60808101516040516370a0823160e01b81523360048201526001600160a01b03909116906370a082319060240160206040518083038186803b158015610ff257600080fd5b505afa158015611006573d6000803e3d6000fd5b505050506040513d601f19601f8201168201806040525081019061102a9190614195565b841115801561103857508315155b6110545760405162461bcd60e51b81526004016104cd9061438a565b60006002876004015461106791906143c9565b60408051600280825260608201835292935060009290916020830190803683375050604080516002808252606082018352939450600093909250906020830190803683370190505090506110c2610c8c8a8660c00151612c5e565b845260005b6002811015611197578460c0015181815181106110e6576110e661453d565b60200260200101518982815181106111005761110061453d565b602002602001015111156111265760405162461bcd60e51b81526004016104cd90614347565b8881815181106111385761113861453d565b60200260200101518560c0015182815181106111565761115661453d565b602002602001015161116891906144f5565b82828151811061117a5761117a61453d565b60209081029190910101528061118f8161450c565b9150506110c7565b506111a5610c8c8a83612c5e565b602085015260005b600281101561133e57600085600001518660c0015183815181106111d3576111d361453d565b602002602001015187602001516111ea91906144d6565b6111f491906143c9565b9050600061120d848481518110610b4757610b4761453d565b90506402540be40061121f82886144d6565b61122991906143c9565b85848151811061123b5761123b61453d565b60200260200101818152505060008c6005015490506402540be400818786815181106112695761126961453d565b602002602001015161127b91906144d6565b61128591906143c9565b8585815181106112975761129761453d565b60200260200101516112a991906144f5565b8d60090185815481106112be576112be61453d565b90600052602060002001819055508584815181106112de576112de61453d565b60200260200101518585815181106112f8576112f861453d565b602002602001015161130a91906144f5565b85858151811061131c5761131c61453d565b60200260200101818152505050505080806113369061450c565b9150506111ad565b5061134c610c8c8a83612c5e565b60408501819052845160a086015160009350909161136a90836144f5565b61137491906144d6565b61137e91906143c9565b9050806113cd5760405162461bcd60e51b815260206004820152601b60248201527f4275726e7420616d6f756e742063616e6e6f74206265207a65726f000000000060448201526064016104cd565b6113d88160016143b1565b90508681111561142a5760405162461bcd60e51b815260206004820152601b60248201527f746f6b656e416d6f756e74203e206d61784275726e416d6f756e74000000000060448201526064016104cd565b83608001516001600160a01b03166379cc679033836040518363ffffffff1660e01b815260040161145c929190614221565b600060405180830381600087803b15801561147657600080fd5b505af115801561148a573d6000803e3d6000fd5b505050506000336001600160a01b0316896000815181106114ad576114ad61453d565b602002602001015160405160006040518083038185875af1925050503d80600081146114f5576040519150601f19603f3d011682016040523d82523d6000602084013e6114fa565b606091505b505090508061151b5760405162461bcd60e51b81526004016104cd90614310565b856001600160a01b031663f242432a30338d600701548d6001815181106115445761154461453d565b60200260200101516040518563ffffffff1660e01b815260040161156b94939291906141e9565b600060405180830381600087803b15801561158557600080fd5b505af1158015611599573d6000803e3d6000fd5b50505050336001600160a01b03167f3631c28b1f9dd213e0319fb167b554d76b6c283a41143eb400a0d1adb1af17558a858860200151868a60a001516115df91906144f5565b6040516115ef949392919061427e565b60405180910390a25098975050505050505050565b6305f5e10081111561164a5760405162461bcd60e51b815260206004820152600f60248201526e08ccaca40d2e640e8dede40d0d2ced608b1b60448201526064016104cd565b600482018190556040518181527fd88ea5155021c6f8dafa1a741e173f595cdf77ce7c17d43342131d7f06afdfe5906020015b60405180910390a15050565b60006116ea85858585896009018054806020026020016040519081016040528092919081815260200182805480156116e057602002820191906000526020600020905b8154815260200190600101908083116116cc575b5050505050612fc7565b5095945050505050565b6402540be40081111561173b5760405162461bcd60e51b815260206004820152600f60248201526e08ccaca40d2e640e8dede40d0d2ced608b1b60448201526064016104cd565b600582018190556040518181527fab599d640ca80cde2b09b128a4154a8dfe608cb80f4c9399c8b954b01fd35f389060200161167d565b606061185f8361185a6117d786876009018054806020026020016040519081016040528092919081815260200182805480156117cd57602002820191906000526020600020905b8154815260200190600101908083116117b9575b5050505050612c5e565b6006870154604080516318160ddd60e01b8152905188926001600160a01b0316916318160ddd916004808301926020929190829003018186803b15801561181d57600080fd5b505afa158015611831573d6000803e3d6000fd5b505050506040513d601f19601f820116820180604052508101906118559190614195565b6130da565b6131f4565b90505b92915050565b6000806118d66118c884856009018054806020026020016040519081016040528092919081815260200182805480156117cd57602002820191906000526020600020908154815260200190600101908083116117b9575050505050612c5e565b6118d185612c53565b612dc1565b905060008360060160009054906101000a90046001600160a01b031690506000816001600160a01b03166318160ddd6040518163ffffffff1660e01b815260040160206040518083038186803b15801561192f57600080fd5b505afa158015611943573d6000803e3d6000fd5b505050506040513d601f19601f820116820180604052508101906119679190614195565b90508015611999578061197c6012600a61442e565b61198690856144d6565b61199091906143c9565b95945050505050565b506000949350505050565b600684015460088501546040516370a0823160e01b81523360048201526060926001600160a01b0390811692169082906370a082319060240160206040518083038186803b1580156119f557600080fd5b505afa158015611a09573d6000803e3d6000fd5b505050506040513d601f19601f82011682018060405250810190611a2d9190614195565b861115611a4c5760405162461bcd60e51b81526004016104cd9061438a565b60028414611a9c5760405162461bcd60e51b815260206004820181905260248201527f6d696e416d6f756e7473206d757374206d6174636820706f6f6c546f6b656e7360448201526064016104cd565b600087600901805480602002602001604051908101604052809291908181526020018280548015611aec57602002820191906000526020600020905b815481526020019060010190808311611ad8575b505050505090506000836001600160a01b03166318160ddd6040518163ffffffff1660e01b815260040160206040518083038186803b158015611b2e57600080fd5b505afa158015611b42573d6000803e3d6000fd5b505050506040513d601f19601f82011682018060405250810190611b669190614195565b90506000611b828a61185a611b7b8d87612c5e565b8c866130da565b905060005b8151811015611c8257888882818110611ba257611ba261453d565b90506020020135828281518110611bbb57611bbb61453d565b60200260200101511015611c115760405162461bcd60e51b815260206004820152601a60248201527f616d6f756e74735b695d203c206d696e416d6f756e74735b695d00000000000060448201526064016104cd565b818181518110611c2357611c2361453d565b6020026020010151848281518110611c3d57611c3d61453d565b6020026020010151611c4f91906144f5565b8b6009018281548110611c6457611c6461453d565b60009182526020909120015580611c7a8161450c565b915050611b87565b5060405163079cc67960e41b81526001600160a01b038616906379cc679090611cb19033908d90600401614221565b600060405180830381600087803b158015611ccb57600080fd5b505af1158015611cdf573d6000803e3d6000fd5b505050506000336001600160a01b031682600081518110611d0257611d0261453d565b602002602001015160405160006040518083038185875af1925050503d8060008114611d4a576040519150601f19603f3d011682016040523d82523d6000602084013e611d4f565b606091505b5050905080611d705760405162461bcd60e51b81526004016104cd90614310565b846001600160a01b031663f242432a30338e6007015486600181518110611d9957611d9961453d565b60200260200101516040518563ffffffff1660e01b8152600401611dc094939291906141e9565b600060405180830381600087803b158015611dda57600080fd5b505af1158015611dee573d6000803e3d6000fd5b503392507f88d38ed598fdd809c2bf01ee49cd24b7fdabf379a83d29567952b60324d58cef9150849050611e228d876144f5565b604051611e309291906142b7565b60405180910390a2509450505050505b949350505050565b600060028210611e6a5760405162461bcd60e51b81526004016104cd906142d9565b81611ea157826009018281548110611e8457611e8461453d565b906000526020600020015447611e9a91906144f5565b9050611862565b8160011415611f5b57826009018281548110611ebf57611ebf61453d565b60009182526020909120015460088401546007850154604051627eeac760e11b81526001600160a01b039092169162fdd58e91611f0191309190600401614221565b60206040518083038186803b158015611f1957600080fd5b505afa158015611f2d573d6000803e3d6000fd5b505050506040513d601f19601f82011682018060405250810190611f519190614195565b611e9a91906144f5565b50600092915050565b600080611f7086612c53565b9050600086600901805480602002602001604051908101604052809291908181526020018280548015611fc257602002820191906000526020600020905b815481526020019060010190808311611fae575b505050505090506000611fde611fd88984612c5e565b84612dc1565b905060005b8251811015612111578515612052578787828181106120045761200461453d565b9050602002013583828151811061201d5761201d61453d565b602002602001015161202f91906143b1565b8382815181106120415761204161453d565b6020026020010181815250506120ff565b8281815181106120645761206461453d565b602002602001015188888381811061207e5761207e61453d565b9050602002013511156120a35760405162461bcd60e51b81526004016104cd90614347565b8787828181106120b5576120b561453d565b905060200201358382815181106120ce576120ce61453d565b60200260200101516120e091906144f5565b8382815181106120f2576120f261453d565b6020026020010181815250505b806121098161450c565b915050611fe3565b5060006121276121218a85612c5e565b85612dc1565b905060008960060160009054906101000a90046001600160a01b03166001600160a01b03166318160ddd6040518163ffffffff1660e01b815260040160206040518083038186803b15801561217b57600080fd5b505afa15801561218f573d6000803e3d6000fd5b505050506040513d601f19601f820116820180604052508101906121b39190614195565b905086156121e75782816121c782856144f5565b6121d191906144d6565b6121db91906143c9565b95505050505050611e40565b82816121c784836144f5565b60088501546000906001600160a01b031660ff8616612267573484146122675760405162461bcd60e51b815260206004820152602360248201527f43616e6e6f742073776170206d6f72652f6c657373207468616e20796f752073604482015262195b9d60ea1b60648201526084016104cd565b8560ff16600114156124b6576007870154604051627eeac760e11b81526001600160a01b0383169062fdd58e906122a49033908590600401614221565b60206040518083038186803b1580156122bc57600080fd5b505afa1580156122d0573d6000803e3d6000fd5b505050506040513d601f19601f820116820180604052508101906122f49190614195565b8511156123435760405162461bcd60e51b815260206004820152601d60248201527f43616e6e6f742073776170206d6f7265207468616e20796f75206f776e00000060448201526064016104cd565b604051627eeac760e11b81526000906001600160a01b0384169062fdd58e906123729030908690600401614221565b60206040518083038186803b15801561238a57600080fd5b505afa15801561239e573d6000803e3d6000fd5b505050506040513d601f19601f820116820180604052508101906123c29190614195565b604051637921219560e11b81529091506001600160a01b0384169063f242432a906123f7903390309087908c906004016141e9565b600060405180830381600087803b15801561241157600080fd5b505af1158015612425573d6000803e3d6000fd5b5050604051627eeac760e11b81528392506001600160a01b038616915062fdd58e906124579030908790600401614221565b60206040518083038186803b15801561246f57600080fd5b505afa158015612483573d6000803e3d6000fd5b505050506040513d601f19601f820116820180604052508101906124a79190614195565b6124b191906144f5565b955050505b60008060008960090180548060200260200160405190810160405280929190818152602001828054801561250957602002820191906000526020600020905b8154815260200190600101908083116124f5575b5050505050905061251d8a8a8a8a85612fc7565b9093509150858310156125725760405162461bcd60e51b815260206004820181905260248201527f53776170206469646e277420726573756c7420696e206d696e20746f6b656e7360448201526064016104cd565b60006402540be4008b600501548461258a91906144d6565b61259491906143c9565b905087828b60ff16815181106125ac576125ac61453d565b60200260200101516125be91906143b1565b8b6009018b60ff16815481106125d6576125d661453d565b90600052602060002001819055508084838b60ff16815181106125fb576125fb61453d565b602002602001015161260d91906144f5565b61261791906144f5565b8b6009018a60ff168154811061262f5761262f61453d565b60009182526020909120015560ff89166126ad57604051600090339086908381818185875af1925050503d8060008114612685576040519150601f19603f3d011682016040523d82523d6000602084013e61268a565b606091505b50509050806126ab5760405162461bcd60e51b81526004016104cd90614310565b505b8860ff16600114156127225760078b0154604051637921219560e11b81526001600160a01b0387169163f242432a916126ef9130913391908a906004016141e9565b600060405180830381600087803b15801561270957600080fd5b505af115801561271d573d6000803e3d6000fd5b505050505b604080518981526020810186905260ff8c8116828401528b166060820152905133917fc6c1e0630dbe9130cc068028486c0d118ddcea348550819defd5cb8c257f8a38919081900360800190a250919998505050505050505050565b6000611862826127de84856009018054806020026020016040519081016040528092919081815260200182805480156117cd57602002820191906000526020600020908154815260200190600101908083116117b9575050505050612c5e565b6127e785612c53565b61332e565b6000806116ea8585858860060160009054906101000a90046001600160a01b03166001600160a01b03166318160ddd6040518163ffffffff1660e01b815260040160206040518083038186803b15801561284557600080fd5b505afa158015612859573d6000803e3d6000fd5b505050506040513d601f19601f8201168201806040525081019061287d9190614195565b61340d565b600684015460088501546040516370a0823160e01b81523360048201526000926001600160a01b0390811692169082906370a082319060240160206040518083038186803b1580156128d357600080fd5b505afa1580156128e7573d6000803e3d6000fd5b505050506040513d601f19601f8201168201806040525081019061290b9190614195565b86111561292a5760405162461bcd60e51b81526004016104cd9061438a565b60028560ff161061296f5760405162461bcd60e51b815260206004820152600f60248201526e151bdad95b881b9bdd08199bdd5b99608a1b60448201526064016104cd565b6000826001600160a01b03166318160ddd6040518163ffffffff1660e01b815260040160206040518083038186803b1580156129aa57600080fd5b505afa1580156129be573d6000803e3d6000fd5b505050506040513d601f19601f820116820180604052508101906129e29190614195565b90506000806129f38a8a8a8661340d565b9150915086821015612a385760405162461bcd60e51b815260206004820152600e60248201526d191e480f081b5a5b905b5bdd5b9d60921b60448201526064016104cd565b6402540be4008a6005015482612a4e91906144d6565b612a5891906143c9565b612a6290836143b1565b8a6009018960ff1681548110612a7a57612a7a61453d565b9060005260206000200154612a8f91906144f5565b8a6009018960ff1681548110612aa757612aa761453d565b60009182526020909120015560405163079cc67960e41b81526001600160a01b038616906379cc679090612ae19033908d90600401614221565b600060405180830381600087803b158015612afb57600080fd5b505af1158015612b0f573d6000803e3d6000fd5b5050505060ff8816612b8557604051600090339084908381818185875af1925050503d8060008114612b5d576040519150601f19603f3d011682016040523d82523d6000602084013e612b62565b606091505b5050905080612b835760405162461bcd60e51b81526004016104cd90614310565b505b8760ff1660011415612bfa5760078a0154604051637921219560e11b81526001600160a01b0386169163f242432a91612bc791309133919088906004016141e9565b600060405180830381600087803b158015612be157600080fd5b505af1158015612bf5573d6000803e3d6000fd5b505050505b604080518a81526020810185905260ff8a168183015260608101849052905133917f43fb02998f4e03da2e0e6fff53fdbf0c40a9f45f145dc377fc30615d7d7a8a64919081900360800190a25098975050505050505050565b600061186282613450565b60606000825167ffffffffffffffff811115612c7c57612c7c614553565b604051908082528060200260200182016040528015612ca5578160200160208202803683370190505b50905082600081518110612cbb57612cbb61453d565b602002602001015181600081518110612cd657612cd661453d565b60209081029190910101526008840154600785015460405163f759cc3b60e01b81526004810191909152670de0b6b3a7640000916001600160a01b03169063f759cc3b9060240160206040518083038186803b158015612d3557600080fd5b505afa158015612d49573d6000803e3d6000fd5b505050506040513d601f19601f82011682018060405250810190612d6d9190614195565b84600181518110612d8057612d8061453d565b6020026020010151612d9291906144d6565b612d9c91906143c9565b81600181518110612daf57612daf61453d565b60209081029190910101529392505050565b60008060029050600084600181518110612ddd57612ddd61453d565b602002602001015185600081518110612df857612df861453d565b6020026020010151612e0a91906143b1565b905080612e1c57600092505050611862565b60008181612e2a85886144d6565b905060005b610100811015612f6a57600089600181518110612e4e57612e4e61453d565b60200260200101518a600081518110612e6957612e6961453d565b60200260200101518889612e7d919061442e565b612e8791906144d6565b612e9191906144d6565b612e9c8860016143b1565b612ea6908661442e565b612eb091906143c9565b905083945080876001612ec391906143b1565b612ecd91906144d6565b606485612eda82876144f5565b612ee491906144d6565b612eee91906143c9565b612ef891906143b1565b84612f0389846144d6565b6064612f0f8a886144d6565b612f1991906143c9565b612f2391906143b1565b612f2d91906144d6565b612f3791906143c9565b9350612f4384866134f7565b15612f575783975050505050505050611862565b5080612f628161450c565b915050612e2f565b5060405162461bcd60e51b81526020600482015260136024820152724420646f6573206e6f7420636f6e766572676560681b60448201526064016104cd565b600081831115612fbd57611e9a82846144f5565b61185f83836144f5565b60008082518660ff16108015612fe0575082518560ff16105b612ffc5760405162461bcd60e51b81526004016104cd906142d9565b600061303388858960ff16815181106130175761301761453d565b60200260200101518761302a91906143b1565b8960ff1661350e565b905060006130418986612c5e565b905060006130678a61305e6130558d612c53565b8c8c88886135be565b8a60ff166137cf565b9050600181878a60ff16815181106130815761308161453d565b602002602001015161309391906144f5565b61309d91906144f5565b94506402540be4008a60040154866130b591906144d6565b6130bf91906143c9565b93506130cb84866144f5565b94505050509550959350505050565b60608183111561312c5760405162461bcd60e51b815260206004820152601a60248201527f43616e6e6f742065786365656420746f74616c20737570706c7900000000000060448201526064016104cd565b6040805160028082526060820183526000926020830190803683370190505090508284866000815181106131625761316261453d565b602002602001015161317491906144d6565b61317e91906143c9565b816000815181106131915761319161453d565b6020026020010181815250508284866001815181106131b2576131b261453d565b60200260200101516131c491906144d6565b6131ce91906143c9565b816001815181106131e1576131e161453d565b6020908102919091010152949350505050565b60606000825167ffffffffffffffff81111561321257613212614553565b60405190808252806020026020018201604052801561323b578160200160208202803683370190505b509050826000815181106132515761325161453d565b60200260200101518160008151811061326c5761326c61453d565b60209081029190910101526008840154600785015460405163f759cc3b60e01b81526001600160a01b039092169163f759cc3b916132b09160040190815260200190565b60206040518083038186803b1580156132c857600080fd5b505afa1580156132dc573d6000803e3d6000fd5b505050506040513d601f19601f820116820180604052508101906133009190614195565b836001815181106133135761331361453d565b6020026020010151670de0b6b3a7640000612d9291906144d6565b600080600261333d8585612dc1565b61334791906143c9565b9050808460008151811061335d5761335d61453d565b602002602001015110613374576000915050610e15565b6000818560018151811061338a5761338a61453d565b602002602001015161339c91906144f5565b9050600060026402540be4008860040154846133b891906144d6565b6133c291906143c9565b6133cc91906143c9565b9050600081876000815181106133e4576133e461453d565b6020026020010151856133f791906144f5565b61340191906143b1565b9450610e159350505050565b600080600080600061342189888a8961387a565b9194509250905060008361343584846144f5565b61343f91906144f5565b939a93995092975050505050505050565b600381015460018201546000919042821115610e155760028401548454808311156134bb5761347f82856144f5565b61348983426144f5565b61349383866144f5565b61349d91906144d6565b6134a791906143c9565b6134b190826143b1565b9695505050505050565b6134c582856144f5565b6134cf83426144f5565b6134d985846144f5565b6134e391906144d6565b6134ed91906143c9565b6134b190826144f5565b600060016135058484612fa9565b11159392505050565b60008160011461351e5782611e40565b6008840154600785015460405163f759cc3b60e01b81526004810191909152670de0b6b3a7640000916001600160a01b03169063f759cc3b9060240160206040518083038186803b15801561357257600080fd5b505afa158015613586573d6000803e3d6000fd5b505050506040513d601f19601f820116820180604052508101906135aa9190614195565b6135b490856144d6565b611e4091906143c9565b6000600260ff86811690861614156136185760405162461bcd60e51b815260206004820152601d60248201527f43616e277420636f6d7061726520746f6b656e20746f20697473656c6600000060448201526064016104cd565b808660ff1610801561362c5750808560ff16105b6136715760405162461bcd60e51b8152602060048201526016602482015275151bdad95b9cc81b5d5cdd081899481a5b881c1bdbdb60521b60448201526064016104cd565b600061367d8489612dc1565b90508085600061368d8b866144d6565b905061369985896144d6565b6136a385856144d6565b6136ad91906143c9565b92506136b985826144d6565b60646136c586866144d6565b6136cf91906144d6565b6136d991906143c9565b92506000816136e96064876144d6565b6136f391906143c9565b6136fd90846143b1565b9050600085815b61010081101561378657819250878483600261372091906144d6565b61372a91906143b1565b61373491906144f5565b8761373f84806144d6565b61374991906143b1565b61375391906143c9565b915061375f82846134f7565b15613774575097506119909650505050505050565b8061377e8161450c565b915050613704565b5060405162461bcd60e51b815260206004820152601e60248201527f417070726f78696d6174696f6e20646964206e6f7420636f6e7665726765000060448201526064016104cd565b6000816001146137df5782611e40565b6008840154600785015460405163f759cc3b60e01b81526001600160a01b039092169163f759cc3b916138189160040190815260200190565b60206040518083038186803b15801561383057600080fd5b505afa158015613844573d6000803e3d6000fd5b505050506040513d601f19601f820116820180604052508101906138689190614195565b6135b484670de0b6b3a76400006144d6565b600080600060028660ff16106138a25760405162461bcd60e51b81526004016104cd906142d9565b60006040518060a0016040528060008152602001600081526020016000815260200160008152602001600081525090506138db88612c53565b6080820152600988018054604080516020808402820181019092528281526139449361393a938d938301828280156117cd57602002820191906000526020600020908154815260200190600101908083116117b9575050505050612c5e565b8260800151612dc1565b808252859061395390886144d6565b61395d91906143c9565b815161396991906144f5565b602082015260098801805460ff89169081106139875761398761453d565b90600052602060002001548611156139e15760405162461bcd60e51b815260206004820152601a60248201527f5769746864726177206578636565647320617661696c61626c6500000000000060448201526064016104cd565b613a5b88613a5283608001518a613a488d8e6009018054806020026020016040519081016040528092919081815260200182805480156117cd57602002820191906000526020600020908154815260200190600101908083116117b9575050505050612c5e565b8660200151613c1f565b8960ff166137cf565b6040828101919091528051600280825260608201835260009260208301908036833701905050905060028960040154613a9491906143c9565b606083015260005b6002811015613b805760008a6009018281548110613abc57613abc61453d565b906000526020600020015490506402540be40084606001518b60ff168414613b085785516020870151613aef90856144d6565b613af991906143c9565b613b0390846144f5565b613b32565b604086015186516020880151613b1e90866144d6565b613b2891906143c9565b613b3291906144f5565b613b3c91906144d6565b613b4691906143c9565b613b5090826144f5565b838381518110613b6257613b6261453d565b60209081029190910101525080613b788161450c565b915050613a9c565b506000613bad8a613ba485608001518c613b9a8f88612c5e565b8860200151613c1f565b8b60ff166137cf565b828a60ff1681518110613bc257613bc261453d565b6020026020010151613bd491906144f5565b9050613be16001826144f5565b90508083604001518b6009018b60ff1681548110613c0157613c0161453d565b90600052602060002001549550955095505050509450945094915050565b6000600260ff85168111613c675760405162461bcd60e51b815260206004820152600f60248201526e151bdad95b881b9bdd08199bdd5b99608a1b60448201526064016104cd565b82600080613c75848a6144d6565b905060005b84811015613d01578860ff168114613cef57878181518110613c9e57613c9e61453d565b602002602001015183613cb191906143b1565b925084888281518110613cc657613cc661453d565b6020026020010151613cd891906144d6565b613ce288866144d6565b613cec91906143c9565b93505b80613cf98161450c565b915050613c7a565b50613d0c84826144d6565b6064613d1888866144d6565b613d2291906144d6565b613d2c91906143c9565b9250600081613d3c6064896144d6565b613d4691906143c9565b613d5090846143b1565b9050600087815b610100811015613786578192508984836002613d7391906144d6565b613d7d91906143b1565b613d8791906144f5565b87613d9284806144d6565b613d9c91906143b1565b613da691906143c9565b9150613db282846134f7565b15613dc657509650611e4095505050505050565b80613dd08161450c565b915050613d57565b828054828255906000526020600020908101928215613e13579160200282015b82811115613e13578251825591602001919060010190613df8565b50613e1f929150613e23565b5090565b5b80821115613e1f5760008155600101613e24565b60008083601f840112613e4a57600080fd5b50813567ffffffffffffffff811115613e6257600080fd5b6020830191508360208260051b8501011115613e7d57600080fd5b9250929050565b803560ff81168114613e9557600080fd5b919050565b600060208284031215613eac57600080fd5b5035919050565b60008060408385031215613ec657600080fd5b8235915060208301356001600160a01b0381168114613ee457600080fd5b809150509250929050565b60008060008060608587031215613f0557600080fd5b84359350602085013567ffffffffffffffff811115613f2357600080fd5b613f2f87828801613e38565b90945092505060408501358015158114613f4857600080fd5b939692955090935050565b600080600060608486031215613f6857600080fd5b8335925060208085013567ffffffffffffffff80821115613f8857600080fd5b818701915087601f830112613f9c57600080fd5b813581811115613fae57613fae614553565b8060051b604051601f19603f83011681018181108582111715613fd357613fd3614553565b604052828152858101935084860182860187018c1015613ff257600080fd5b600095505b83861015614015578035855260019590950194938601938601613ff7565b50979a979950505050604095909501359450505050565b6000806040838503121561403f57600080fd5b50508035926020909101359150565b6000806000806060858703121561406457600080fd5b8435935060208501359250604085013567ffffffffffffffff81111561408957600080fd5b61409587828801613e38565b95989497509550505050565b6000806000606084860312156140b657600080fd5b83359250602084013591506140cd60408501613e84565b90509250925092565b600080600080608085870312156140ec57600080fd5b843593506020850135925061410360408601613e84565b9396929550929360600135925050565b6000806000806080858703121561412957600080fd5b8435935061413960208601613e84565b925061410360408601613e84565b600080600080600060a0868803121561415f57600080fd5b8535945061416f60208701613e84565b935061417d60408701613e84565b94979396509394606081013594506080013592915050565b6000602082840312156141a757600080fd5b5051919050565b600081518084526020808501945080840160005b838110156141de578151875295820195908201906001016141c2565b509495945050505050565b6001600160a01b0394851681529290931660208301526040820152606081019190915260a06080820181905260009082015260c00190565b6001600160a01b03929092168252602082015260400190565b6020808252825182820181905260009190848201906040850190845b8181101561427257835183529284019291840191600101614256565b50909695505050505050565b60808152600061429160808301876141ae565b82810360208401526142a381876141ae565b604084019590955250506060015292915050565b6040815260006142ca60408301856141ae565b90508260208301529392505050565b60208082526018908201527f546f6b656e20696e646578206f7574206f662072616e67650000000000000000604082015260600190565b6020808252601e908201527f537761705574696c733a204661696c656420746f2073656e6420417661780000604082015260600190565b60208082526023908201527f43616e6e6f74207769746864726177206d6f7265207468616e20617661696c61604082015262626c6560e81b606082015260800190565b6020808252600d908201526c1f2628173130b630b731b2a7b360991b604082015260600190565b600082198211156143c4576143c4614527565b500190565b6000826143e657634e487b7160e01b600052601260045260246000fd5b500490565b600181815b8085111561442657816000190482111561440c5761440c614527565b8085161561441957918102915b93841c93908002906143f0565b509250929050565b600061185f838360008261444457506001611862565b8161445157506000611862565b816001811461446757600281146144715761448d565b6001915050611862565b60ff84111561448257614482614527565b50506001821b611862565b5060208310610133831016604e8410600b84101617156144b0575081810a611862565b6144ba83836143eb565b80600019048211156144ce576144ce614527565b029392505050565b60008160001904831182151516156144f0576144f0614527565b500290565b60008282101561450757614507614527565b500390565b600060001982141561452057614520614527565b5060010190565b634e487b7160e01b600052601160045260246000fd5b634e487b7160e01b600052603260045260246000fd5b634e487b7160e01b600052604160045260246000fdfea2646970667358221220cfdb095508b1cb4df3c69badb7239ccbc2ae7ef9d75bc73b2d765b4adf25342564736f6c63430008070033",
  "devdoc": {
    "details": "Contracts relying on this library must initialize SwapUtils.Swap struct then use this library for SwapUtils.Swap struct. Note that this library contains both functions called by users and admins. Admin functions should be protected within contracts using this library.",
    "kind": "dev",
    "methods": {
      "addLiquidity(SwapUtils.Swap storage,uint256[],uint256)": {
        "params": {
          "amounts": "the amounts of each token to add, in their native precision",
          "minToMint": "the minimum LP tokens adding this amount of liquidity should mint, otherwise revert. Handy for front-running mitigation allowed addresses. If the pool is not in the guarded launch phase, this parameter will be ignored.",
          "self": "Swap struct to read from and write to"
        },
        "returns": {
          "_0": "amount of LP token user received"
        }
      },
      "calculateRemoveLiquidity(SwapUtils.Swap storage,uint256)": {
        "params": {
          "amount": "the amount of LP tokens that would to be burned on withdrawal"
        },
        "returns": {
          "_0": "array of amounts of tokens user will receive"
        }
      },
      "calculateSwap(SwapUtils.Swap storage,uint8,uint8,uint256)": {
        "params": {
          "dx": "the number of tokens to sell. If the token charges a fee on transfers, use the amount that gets transferred after the fee.",
          "self": "Swap struct to read from",
          "tokenIndexFrom": "the token to sell",
          "tokenIndexTo": "the token to buy"
        },
        "returns": {
          "dy": "the number of tokens the user will get"
        }
      },
      "calculateTokenAmount(SwapUtils.Swap storage,uint256[],bool)": {
        "details": "This shouldn't be used outside frontends for user estimates.",
        "params": {
          "amounts": "an array of token amounts to deposit or withdrawal, corresponding to pooledTokens. The amount should be in each pooled token's native precision. If a token charges a fee on transfers, use the amount that gets transferred after the fee.",
          "deposit": "whether this is a deposit or a withdrawal",
          "self": "Swap struct to read from"
        },
        "returns": {
          "_0": "if deposit was true, total amount of lp token that will be minted and if deposit was false, total amount of lp token that will be burned"
        }
      },
      "calculateWithdrawOneToken(SwapUtils.Swap storage,uint256,uint8)": {
        "params": {
          "self": "Swap struct to read from",
          "tokenAmount": "the amount to withdraw in the pool's precision",
          "tokenIndex": "which token will be withdrawn"
        },
        "returns": {
          "_0": "the amount of token user will receive"
        }
      },
      "getAdminBalance(SwapUtils.Swap storage,uint256)": {
        "params": {
          "index": "Index of the pooled token",
          "self": "Swap struct to read from"
        },
        "returns": {
          "_0": "admin balance in the token's precision"
        }
      },
      "getDebt(SwapUtils.Swap storage)": {
        "returns": {
          "_0": "debt the half of the D StableSwap invariant when debt is needed to be payed."
        }
      },
      "getVirtualPrice(SwapUtils.Swap storage)": {
        "params": {
          "self": "Swap struct to read from"
        },
        "returns": {
          "_0": "the virtual price, scaled to precision of POOL_PRECISION_DECIMALS"
        }
      },
      "removeLiquidity(SwapUtils.Swap storage,uint256,uint256[])": {
        "details": "Liquidity can always be removed, even when the pool is paused.",
        "params": {
          "amount": "the amount of LP tokens to burn",
          "minAmounts": "the minimum amounts of each token in the pool acceptable for this burn. Useful as a front-running mitigation",
          "self": "Swap struct to read from and write to"
        },
        "returns": {
          "_0": "amounts of tokens the user received"
        }
      },
      "removeLiquidityImbalance(SwapUtils.Swap storage,uint256[],uint256)": {
        "params": {
          "amounts": "how much of each token to withdraw",
          "maxBurnAmount": "the max LP token provider is willing to pay to remove liquidity. Useful as a front-running mitigation.",
          "self": "Swap struct to read from and write to"
        },
        "returns": {
          "_0": "actual amount of LP tokens burned in the withdrawal"
        }
      },
      "removeLiquidityOneToken(SwapUtils.Swap storage,uint256,uint8,uint256)": {
        "params": {
          "minAmount": "the minimum amount to withdraw, otherwise revert",
          "self": "Swap struct to read from and write to",
          "tokenAmount": "the amount of the lp tokens to burn",
          "tokenIndex": "the index of the token you want to receive"
        },
        "returns": {
          "_0": "amount chosen token that user received"
        }
      },
      "setAdminFee(SwapUtils.Swap storage,uint256)": {
        "details": "adminFee cannot be higher than 100% of the swap fee",
        "params": {
          "newAdminFee": "new admin fee to be applied on future transactions",
          "self": "Swap struct to update"
        }
      },
      "setSwapFee(SwapUtils.Swap storage,uint256)": {
        "details": "fee cannot be higher than 1% of each swap",
        "params": {
          "newSwapFee": "new swap fee to be applied on future transactions",
          "self": "Swap struct to update"
        }
      },
      "swap(SwapUtils.Swap storage,uint8,uint8,uint256,uint256)": {
        "params": {
          "dx": "the amount of tokens the user wants to sell",
          "minDy": "the min amount the user would like to receive, or revert.",
          "self": "Swap struct to read from and write to",
          "tokenIndexFrom": "the token the user wants to sell",
          "tokenIndexTo": "the token the user wants to buy"
        },
        "returns": {
          "_0": "amount of token user received on swap"
        }
      },
      "withdrawAdminFees(SwapUtils.Swap storage,address)": {
        "params": {
          "self": "Swap struct to withdraw fees from",
          "to": "Address to send the fees to"
        }
      }
    },
    "title": "SwapUtils library",
    "version": 1
  },
  "userdoc": {
    "kind": "user",
    "methods": {
      "addLiquidity(SwapUtils.Swap storage,uint256[],uint256)": {
        "notice": "Add liquidity to the pool"
      },
      "calculateRemoveLiquidity(SwapUtils.Swap storage,uint256)": {
        "notice": "A simple method to calculate amount of each underlying tokens that is returned upon burning given amount of LP tokens"
      },
      "calculateSwap(SwapUtils.Swap storage,uint8,uint8,uint256)": {
        "notice": "Externally calculates a swap between two tokens."
      },
      "calculateTokenAmount(SwapUtils.Swap storage,uint256[],bool)": {
        "notice": "A simple method to calculate prices from deposits or withdrawals, excluding fees but including slippage. This is helpful as an input into the various \"min\" parameters on calls to fight front-running"
      },
      "calculateWithdrawOneToken(SwapUtils.Swap storage,uint256,uint8)": {
        "notice": "Calculate the dy, the amount of selected token that user receives and the fee of withdrawing in one token"
      },
      "getAdminBalance(SwapUtils.Swap storage,uint256)": {
        "notice": "return accumulated amount of admin fees of the token with given index"
      },
      "getVirtualPrice(SwapUtils.Swap storage)": {
        "notice": "Get the virtual price, to help calculate profit"
      },
      "removeLiquidity(SwapUtils.Swap storage,uint256,uint256[])": {
        "notice": "Burn LP tokens to remove liquidity from the pool."
      },
      "removeLiquidityImbalance(SwapUtils.Swap storage,uint256[],uint256)": {
        "notice": "Remove liquidity from the pool, weighted differently than the pool's current balances."
      },
      "removeLiquidityOneToken(SwapUtils.Swap storage,uint256,uint8,uint256)": {
        "notice": "Remove liquidity from the pool all in one token."
      },
      "setAdminFee(SwapUtils.Swap storage,uint256)": {
        "notice": "Sets the admin fee"
      },
      "setSwapFee(SwapUtils.Swap storage,uint256)": {
        "notice": "update the swap fee"
      },
      "swap(SwapUtils.Swap storage,uint8,uint8,uint256,uint256)": {
        "notice": "swap two tokens in the pool"
      },
      "withdrawAdminFees(SwapUtils.Swap storage,address)": {
        "notice": "withdraw all admin fees to a given address"
      }
    },
    "notice": "A library to be used within Swap.sol. Contains functions responsible for custody and AMM functionalities.",
    "version": 1
  },
  "storageLayout": {
    "storage": [],
    "types": null
  }
}